{
  "_format": "hh-sol-artifact-1",
  "contractName": "DeFiYieldPool",
  "sourceName": "smart-contracts/contracts/DeFiYieldPool.sol",
  "abi": [
    {
      "inputs": [
        {
          "internalType": "uint256",
          "name": "_baseYieldRate",
          "type": "uint256"
        },
        {
          "internalType": "uint256",
          "name": "_compoundingPeriod",
          "type": "uint256"
        }
      ],
      "stateMutability": "nonpayable",
      "type": "constructor"
    },
    {
      "inputs": [],
      "name": "AccessControlBadConfirmation",
      "type": "error"
    },
    {
      "inputs": [
        {
          "internalType": "address",
          "name": "account",
          "type": "address"
        },
        {
          "internalType": "bytes32",
          "name": "neededRole",
          "type": "bytes32"
        }
      ],
      "name": "AccessControlUnauthorizedAccount",
      "type": "error"
    },
    {
      "inputs": [],
      "name": "CampaignIdExists",
      "type": "error"
    },
    {
      "inputs": [],
      "name": "EmptyCampaignId",
      "type": "error"
    },
    {
      "inputs": [],
      "name": "EnforcedPause",
      "type": "error"
    },
    {
      "inputs": [],
      "name": "ExpectedPause",
      "type": "error"
    },
    {
      "inputs": [],
      "name": "FundsAlreadyReleased",
      "type": "error"
    },
    {
      "inputs": [],
      "name": "InsufficientContractBalance",
      "type": "error"
    },
    {
      "inputs": [],
      "name": "InvalidAddress",
      "type": "error"
    },
    {
      "inputs": [],
      "name": "InvalidAmount",
      "type": "error"
    },
    {
      "inputs": [],
      "name": "InvalidCampaignId",
      "type": "error"
    },
    {
      "inputs": [],
      "name": "PoolNotActive",
      "type": "error"
    },
    {
      "inputs": [],
      "name": "ReentrancyGuardReentrantCall",
      "type": "error"
    },
    {
      "inputs": [],
      "name": "TransferFailed",
      "type": "error"
    },
    {
      "inputs": [],
      "name": "Unauthorized",
      "type": "error"
    },
    {
      "anonymous": false,
      "inputs": [
        {
          "indexed": true,
          "internalType": "string",
          "name": "campaignId",
          "type": "string"
        },
        {
          "indexed": false,
          "internalType": "uint256",
          "name": "amount",
          "type": "uint256"
        },
        {
          "indexed": false,
          "internalType": "uint256",
          "name": "expectedYield",
          "type": "uint256"
        }
      ],
      "name": "FundsStaked",
      "type": "event"
    },
    {
      "anonymous": false,
      "inputs": [
        {
          "indexed": false,
          "internalType": "address",
          "name": "account",
          "type": "address"
        }
      ],
      "name": "Paused",
      "type": "event"
    },
    {
      "anonymous": false,
      "inputs": [
        {
          "indexed": false,
          "internalType": "uint256",
          "name": "newYieldRate",
          "type": "uint256"
        },
        {
          "indexed": false,
          "internalType": "uint256",
          "name": "newCompoundingPeriod",
          "type": "uint256"
        },
        {
          "indexed": false,
          "internalType": "bool",
          "name": "isActive",
          "type": "bool"
        }
      ],
      "name": "PoolConfigUpdated",
      "type": "event"
    },
    {
      "anonymous": false,
      "inputs": [
        {
          "indexed": false,
          "internalType": "address",
          "name": "newProtocol",
          "type": "address"
        }
      ],
      "name": "ProtocolIntegrationUpdated",
      "type": "event"
    },
    {
      "anonymous": false,
      "inputs": [
        {
          "indexed": true,
          "internalType": "bytes32",
          "name": "role",
          "type": "bytes32"
        },
        {
          "indexed": true,
          "internalType": "bytes32",
          "name": "previousAdminRole",
          "type": "bytes32"
        },
        {
          "indexed": true,
          "internalType": "bytes32",
          "name": "newAdminRole",
          "type": "bytes32"
        }
      ],
      "name": "RoleAdminChanged",
      "type": "event"
    },
    {
      "anonymous": false,
      "inputs": [
        {
          "indexed": true,
          "internalType": "bytes32",
          "name": "role",
          "type": "bytes32"
        },
        {
          "indexed": true,
          "internalType": "address",
          "name": "account",
          "type": "address"
        },
        {
          "indexed": true,
          "internalType": "address",
          "name": "sender",
          "type": "address"
        }
      ],
      "name": "RoleGranted",
      "type": "event"
    },
    {
      "anonymous": false,
      "inputs": [
        {
          "indexed": true,
          "internalType": "bytes32",
          "name": "role",
          "type": "bytes32"
        },
        {
          "indexed": true,
          "internalType": "address",
          "name": "account",
          "type": "address"
        },
        {
          "indexed": true,
          "internalType": "address",
          "name": "sender",
          "type": "address"
        }
      ],
      "name": "RoleRevoked",
      "type": "event"
    },
    {
      "anonymous": false,
      "inputs": [
        {
          "indexed": false,
          "internalType": "address",
          "name": "account",
          "type": "address"
        }
      ],
      "name": "Unpaused",
      "type": "event"
    },
    {
      "anonymous": false,
      "inputs": [
        {
          "indexed": true,
          "internalType": "string",
          "name": "campaignId",
          "type": "string"
        },
        {
          "indexed": false,
          "internalType": "uint256",
          "name": "newYieldAccrued",
          "type": "uint256"
        },
        {
          "indexed": false,
          "internalType": "uint256",
          "name": "totalYield",
          "type": "uint256"
        }
      ],
      "name": "YieldCompounded",
      "type": "event"
    },
    {
      "anonymous": false,
      "inputs": [
        {
          "indexed": true,
          "internalType": "string",
          "name": "campaignId",
          "type": "string"
        },
        {
          "indexed": false,
          "internalType": "uint256",
          "name": "principal",
          "type": "uint256"
        },
        {
          "indexed": false,
          "internalType": "uint256",
          "name": "yieldAmount",
          "type": "uint256"
        },
        {
          "indexed": false,
          "internalType": "uint256",
          "name": "totalReturn",
          "type": "uint256"
        }
      ],
      "name": "YieldHarvested",
      "type": "event"
    },
    {
      "inputs": [],
      "name": "DEFAULT_ADMIN_ROLE",
      "outputs": [
        {
          "internalType": "bytes32",
          "name": "",
          "type": "bytes32"
        }
      ],
      "stateMutability": "view",
      "type": "function"
    },
    {
      "inputs": [],
      "name": "ESCROW_ROLE",
      "outputs": [
        {
          "internalType": "bytes32",
          "name": "",
          "type": "bytes32"
        }
      ],
      "stateMutability": "view",
      "type": "function"
    },
    {
      "inputs": [],
      "name": "POOL_MANAGER_ROLE",
      "outputs": [
        {
          "internalType": "bytes32",
          "name": "",
          "type": "bytes32"
        }
      ],
      "stateMutability": "view",
      "type": "function"
    },
    {
      "inputs": [
        {
          "internalType": "string",
          "name": "",
          "type": "string"
        }
      ],
      "name": "authorizedCampaigns",
      "outputs": [
        {
          "internalType": "bool",
          "name": "",
          "type": "bool"
        }
      ],
      "stateMutability": "view",
      "type": "function"
    },
    {
      "inputs": [
        {
          "internalType": "string",
          "name": "",
          "type": "string"
        }
      ],
      "name": "campaignStakes",
      "outputs": [
        {
          "internalType": "uint256",
          "name": "principal",
          "type": "uint256"
        },
        {
          "internalType": "uint256",
          "name": "yieldAccrued",
          "type": "uint256"
        },
        {
          "internalType": "uint256",
          "name": "stakeTime",
          "type": "uint256"
        },
        {
          "internalType": "uint256",
          "name": "lastCompoundTime",
          "type": "uint256"
        },
        {
          "internalType": "bool",
          "name": "harvested",
          "type": "bool"
        }
      ],
      "stateMutability": "view",
      "type": "function"
    },
    {
      "inputs": [
        {
          "internalType": "string",
          "name": "campaignId",
          "type": "string"
        }
      ],
      "name": "compoundYield",
      "outputs": [],
      "stateMutability": "nonpayable",
      "type": "function"
    },
    {
      "inputs": [
        {
          "internalType": "uint256",
          "name": "amount",
          "type": "uint256"
        },
        {
          "internalType": "address",
          "name": "recipient",
          "type": "address"
        }
      ],
      "name": "emergencyWithdraw",
      "outputs": [],
      "stateMutability": "nonpayable",
      "type": "function"
    },
    {
      "inputs": [
        {
          "internalType": "string",
          "name": "campaignId",
          "type": "string"
        }
      ],
      "name": "getCampaignStake",
      "outputs": [
        {
          "components": [
            {
              "internalType": "uint256",
              "name": "principal",
              "type": "uint256"
            },
            {
              "internalType": "uint256",
              "name": "yieldAccrued",
              "type": "uint256"
            },
            {
              "internalType": "uint256",
              "name": "stakeTime",
              "type": "uint256"
            },
            {
              "internalType": "uint256",
              "name": "lastCompoundTime",
              "type": "uint256"
            },
            {
              "internalType": "bool",
              "name": "harvested",
              "type": "bool"
            }
          ],
          "internalType": "struct DeFiYieldPool.CampaignStake",
          "name": "stake",
          "type": "tuple"
        }
      ],
      "stateMutability": "view",
      "type": "function"
    },
    {
      "inputs": [
        {
          "internalType": "string",
          "name": "campaignId",
          "type": "string"
        }
      ],
      "name": "getCurrentYield",
      "outputs": [
        {
          "internalType": "uint256",
          "name": "currentYield",
          "type": "uint256"
        }
      ],
      "stateMutability": "view",
      "type": "function"
    },
    {
      "inputs": [],
      "name": "getPoolStats",
      "outputs": [
        {
          "internalType": "uint256",
          "name": "totalStaked",
          "type": "uint256"
        },
        {
          "internalType": "uint256",
          "name": "totalYieldPaid",
          "type": "uint256"
        },
        {
          "internalType": "uint256",
          "name": "currentTVL",
          "type": "uint256"
        },
        {
          "internalType": "uint256",
          "name": "yieldGenerated",
          "type": "uint256"
        }
      ],
      "stateMutability": "view",
      "type": "function"
    },
    {
      "inputs": [
        {
          "internalType": "bytes32",
          "name": "role",
          "type": "bytes32"
        }
      ],
      "name": "getRoleAdmin",
      "outputs": [
        {
          "internalType": "bytes32",
          "name": "",
          "type": "bytes32"
        }
      ],
      "stateMutability": "view",
      "type": "function"
    },
    {
      "inputs": [
        {
          "internalType": "bytes32",
          "name": "role",
          "type": "bytes32"
        },
        {
          "internalType": "address",
          "name": "account",
          "type": "address"
        }
      ],
      "name": "grantRole",
      "outputs": [],
      "stateMutability": "nonpayable",
      "type": "function"
    },
    {
      "inputs": [
        {
          "internalType": "string",
          "name": "campaignId",
          "type": "string"
        }
      ],
      "name": "harvestYield",
      "outputs": [
        {
          "internalType": "uint256",
          "name": "totalYield",
          "type": "uint256"
        }
      ],
      "stateMutability": "nonpayable",
      "type": "function"
    },
    {
      "inputs": [
        {
          "internalType": "bytes32",
          "name": "role",
          "type": "bytes32"
        },
        {
          "internalType": "address",
          "name": "account",
          "type": "address"
        }
      ],
      "name": "hasRole",
      "outputs": [
        {
          "internalType": "bool",
          "name": "",
          "type": "bool"
        }
      ],
      "stateMutability": "view",
      "type": "function"
    },
    {
      "inputs": [],
      "name": "pause",
      "outputs": [],
      "stateMutability": "nonpayable",
      "type": "function"
    },
    {
      "inputs": [],
      "name": "paused",
      "outputs": [
        {
          "internalType": "bool",
          "name": "",
          "type": "bool"
        }
      ],
      "stateMutability": "view",
      "type": "function"
    },
    {
      "inputs": [],
      "name": "poolConfig",
      "outputs": [
        {
          "internalType": "uint256",
          "name": "baseYieldRate",
          "type": "uint256"
        },
        {
          "internalType": "uint256",
          "name": "compoundingPeriod",
          "type": "uint256"
        },
        {
          "internalType": "bool",
          "name": "isActive",
          "type": "bool"
        },
        {
          "internalType": "uint256",
          "name": "totalStaked",
          "type": "uint256"
        },
        {
          "internalType": "uint256",
          "name": "totalYieldPaid",
          "type": "uint256"
        }
      ],
      "stateMutability": "view",
      "type": "function"
    },
    {
      "inputs": [
        {
          "internalType": "string",
          "name": "",
          "type": "string"
        }
      ],
      "name": "protocolShares",
      "outputs": [
        {
          "internalType": "uint256",
          "name": "",
          "type": "uint256"
        }
      ],
      "stateMutability": "view",
      "type": "function"
    },
    {
      "inputs": [
        {
          "internalType": "bytes32",
          "name": "role",
          "type": "bytes32"
        },
        {
          "internalType": "address",
          "name": "callerConfirmation",
          "type": "address"
        }
      ],
      "name": "renounceRole",
      "outputs": [],
      "stateMutability": "nonpayable",
      "type": "function"
    },
    {
      "inputs": [
        {
          "internalType": "bytes32",
          "name": "role",
          "type": "bytes32"
        },
        {
          "internalType": "address",
          "name": "account",
          "type": "address"
        }
      ],
      "name": "revokeRole",
      "outputs": [],
      "stateMutability": "nonpayable",
      "type": "function"
    },
    {
      "inputs": [
        {
          "internalType": "address",
          "name": "protocolAddress",
          "type": "address"
        }
      ],
      "name": "setYieldProtocol",
      "outputs": [],
      "stateMutability": "nonpayable",
      "type": "function"
    },
    {
      "inputs": [
        {
          "internalType": "string",
          "name": "campaignId",
          "type": "string"
        }
      ],
      "name": "stake",
      "outputs": [],
      "stateMutability": "payable",
      "type": "function"
    },
    {
      "inputs": [
        {
          "internalType": "bytes4",
          "name": "interfaceId",
          "type": "bytes4"
        }
      ],
      "name": "supportsInterface",
      "outputs": [
        {
          "internalType": "bool",
          "name": "",
          "type": "bool"
        }
      ],
      "stateMutability": "view",
      "type": "function"
    },
    {
      "inputs": [],
      "name": "totalValueLocked",
      "outputs": [
        {
          "internalType": "uint256",
          "name": "",
          "type": "uint256"
        }
      ],
      "stateMutability": "view",
      "type": "function"
    },
    {
      "inputs": [],
      "name": "totalYieldGenerated",
      "outputs": [
        {
          "internalType": "uint256",
          "name": "",
          "type": "uint256"
        }
      ],
      "stateMutability": "view",
      "type": "function"
    },
    {
      "inputs": [],
      "name": "unpause",
      "outputs": [],
      "stateMutability": "nonpayable",
      "type": "function"
    },
    {
      "inputs": [
        {
          "internalType": "uint256",
          "name": "newYieldRate",
          "type": "uint256"
        },
        {
          "internalType": "uint256",
          "name": "newCompoundingPeriod",
          "type": "uint256"
        },
        {
          "internalType": "bool",
          "name": "isActive",
          "type": "bool"
        }
      ],
      "name": "updatePoolConfig",
      "outputs": [],
      "stateMutability": "nonpayable",
      "type": "function"
    },
    {
      "inputs": [],
      "name": "yieldProtocol",
      "outputs": [
        {
          "internalType": "contract IYieldProtocol",
          "name": "",
          "type": "address"
        }
      ],
      "stateMutability": "view",
      "type": "function"
    },
    {
      "stateMutability": "payable",
      "type": "receive"
    }
  ],
  "bytecode": "0x608034620000de5762001601906001600160401b0390601f38849003908101601f191682019083821183831017620000c85780839160409687948552833981010312620000de5760208151910151916001805583519060a082019082821090821117620000c85760009160809186528381528460208201526001868201528260608201520152600355600455600160ff19600554161760055560006006556000600755620000ad33620000e3565b50620000b93362000163565b50516113db9081620002068239f35b634e487b7160e01b600052604160045260246000fd5b600080fd5b6001600160a01b031660008181527fad3228b676f7d3cd4284a5443f17f1962b36e491b30a40b2405849e597ba5fb5602052604081205490919060ff166200015f57818052816020526040822081835260205260408220600160ff198254161790553391600080516020620015e18339815191528180a4600190565b5090565b6001600160a01b031660008181527f729ef9451dd492832bd2a98139702ced95dfa0cec7e99526dbbcb957abcbc47660205260408120549091907f6077685936c8169d09204a1d97db12e41713588c38e1d29a61867d3dcee98aff9060ff166200020057808352826020526040832082845260205260408320600160ff19825416179055600080516020620015e1833981519152339380a4600190565b50509056fe6080604081815260049182361015610022575b505050361561002057600080fd5b005b600092833560e01c91826301ffc9a714610d8d575081630e8cd5a514610cd9578163137ba4bd14610cb7578163248a9ca314610c8d5781632f2ff15d14610c635781632f940c7014610be357816336568abe14610b9d5781633bc725c314610b2f5781633f4ba83a14610ab857816346f45b8d1461085f57816356d73568146108245781635c975abb146108005781636ce76f30146107c55781638456cb59146107505781638c8250561461073157816391d14854146106eb5781639695e195146106a3578163a217fddf14610688578163ae2f5fe114610630578163b9895da01461055c578163bab03e961461053f578163bbb8518814610506578163c563105d146104d4578163c78a33f61461049d578163cd4c73a714610474578163cf84b477146101ca578163d547741f14610187575063ec18154e146101665780610012565b34610183578160031936011261018357602090600c549051908152f35b5080fd5b919050346101c657806003193601126101c6576101c291356101bd60016101ac610ebe565b938387528660205286200154610fb3565b611057565b5080f35b8280fd5b919050346101c6576101db36610e50565b926101e4610f57565b6101ec6110ef565b815193846101fa8183610ed4565b600a815260209687910301902090600282015415610464578482019460ff8654166104565760ff8551888161022f8187610ed4565b600b815203019020541615610449576102478261116f565b600183549301549560018060a01b03600854168015158061042a575b610330575b50600160ff1982541617905561028083600654611112565b60065561028f866007546110cc565b60075561029e86600d546110cc565b600d556102ab86846110cc565b93478511610328575b80808087335af16102c361111f565b501561031a57507ff3c2011acca1f2ffb75ab76d3067b8793a44da28183661434033aa8b89d108ed916102fd606092865191828092610ed4565b039020938551918252868883015285820152a26001805551908152f35b84516312171d8360e31b8152fd5b4794506102b4565b86516364c3397760e01b815230848201528981602481855afa90811561042057908a929188916103eb575b508981116103e3575b50908691602489518381610378818b610ed4565b6009815203019020548a519485938492632e1a7d4d60e01b8452898401525af180156103d9579089916103ac575b50610268565b813d83116103d2575b6103bf8183610e12565b810103126103ce5787386103a6565b8480fd5b503d6103b5565b87513d88823e3d90fd5b985086610364565b8381939492503d8311610419575b6104038183610e12565b8101031261041557908991513861035b565b8680fd5b503d6103f9565b88513d89823e3d90fd5b50865189816104398188610ed4565b6009815203019020541515610263565b84516282b42960e81b8152fd5b8451635c1508a760e01b8152fd5b50505051636824bccd60e01b8152fd5b50503461018357816003193601126101835760085490516001600160a01b039091168152602090f35b5050346101835760209060ff6104c1836104b636610e50565b845192838092610ed4565b600b815203019020541690519015158152f35b505034610183576020906104f6826104eb36610e50565b835192838092610ed4565b6009815203019020549051908152f35b5050346101835781600319360112610183576080906006549060075490600c5490600d5492815194855260208501528301526060820152f35b83346105595761055661055136610e50565b61116f565b80f35b80fd5b9050346101c65760603660031901126101c6578035916024356044359283151580940361062c577f6077685936c8169d09204a1d97db12e41713588c38e1d29a61867d3dcee98aff8087528660205283872033885260205260ff84882054161561060f575091816060949286947f23375e71f1b85c5d36859520d4f3bbd7a66dd53cc8176df50c3528f9f392c4f0976003555560ff196005541660ff84161760055581519384526020840152820152a180f35b6044925083519163e2517d3f60e01b835233908301526024820152fd5b8580fd5b919050346101c65760a0925061064a60206104eb36610e50565b600a81520301902080549260018201549260ff6002840154926003850154940154169381519586526020860152840152606083015215156080820152f35b50503461018357816003193601126101835751908152602090f35b919050346101c657826003193601126101c65760a0925060035491549060ff600554169060065491600754938251958652602086015215159084015260608301526080820152f35b9050346101c657816003193601126101c6578160209360ff9261070c610ebe565b903582528186528282206001600160a01b039091168252855220549151911615158152f35b505034610183578160031936011261018357602090600d549051908152f35b919050346101c657826003193601126101c65761076b610eff565b6002549160ff83166107b7575060207f62e78cea01bee320cd4e420270b5ea74000d11b0c9f74754ebdbfc544b05a25891600160ff198095161760025551338152a16005541660055580f35b905163d93c066560e01b8152fd5b505034610183578160031936011261018357602090517f2fdac322ee704ce09f0773f7f3f92eb98d5e7c836ee9c056cccd5f61041e5e3f8152f35b50503461018357816003193601126101835760209060ff6002541690519015158152f35b505034610183578160031936011261018357602090517f6077685936c8169d09204a1d97db12e41713588c38e1d29a61867d3dcee98aff8152f35b838361086a36610e50565b90610873610f57565b61087b6110ef565b60ff6005541615610aa9573415610a9a57815115610a8b5780516002816108a28186610ed4565b600a81526020938491030190200154610a7b5781516108c081610de0565b348152858282019186835284810142815260608201904282526080830194898652875187816108ef818d610ed4565b600a8152030190209351845551600184015551600283015551600382015501905115159060ff199160ff8383541691161790556001835183816109328189610ed4565b600b8152030190209182541617905561094d346006546110cc565b60065561095c34600c546110cc565b600c55600854849082906001600160a01b0316806109fd575b50505061271061098760035434611246565b04906301e1338093848302928084048614901517156109ea57906109d38493927f93f46241c51a70ef9e52cfef524d2b2f13bdad625f7bedb6ee9331620aa9c356955191828092610ed4565b039020948351923484520490820152a26001805580f35b634e487b7160e01b865260118752602486fd5b602485518094819363b6b55f2560e01b8352348c8401525af1908115610a71578591610a44575b5082518281610a338188610ed4565b600981520301902055838187610975565b90508181813d8311610a6a575b610a5b8183610e12565b810103126103ce575186610a24565b503d610a51565b83513d87823e3d90fd5b81516382706ec560e01b81528590fd5b51633925755160e11b81528390fd5b5163162908e360e11b81528390fd5b516338c0a90160e11b81528390fd5b919050346101c657826003193601126101c657610ad3610eff565b6002549160ff831615610b215750907f5db9ee0a495bf2e6ff9c91a7834c1ba4fdd244a5e8aa4e537bd38aeae4b073aa602060019360ff1980941660025551338152a1600554161760055580f35b9051638dfc202b60e01b8152fd5b9050346101c65760203660031901126101c657356001600160a01b03811691908290036101c6577f7119b40d6ded0eb50e31175a9bd1e51464b3a3fc29277841d1db3d21443a8bcf91602091610b83610eff565b600880546001600160a01b0319168317905551908152a180f35b838334610183578060031936011261018357610bb7610ebe565b90336001600160a01b03831603610bd457506101c2919235611057565b5163334bd91960e11b81528390fd5b919050346101c657806003193601126101c6578135610c00610ebe565b610c08610eff565b6001600160a01b03811615610c5457478211610c45578480809381935af1610c2e61111f565b5015610c38578280f35b516312171d8360e31b8152fd5b50505163786e0a9960e01b8152fd5b50505163e6c4247b60e01b8152fd5b919050346101c657806003193601126101c6576101c29135610c8860016101ac610ebe565b610fd9565b9050346101c65760203660031901126101c657816020936001923581528085522001549051908152f35b50503461018357602090610cd2610ccd36610e50565b6112f4565b9051908152f35b919050346101c657610d20602060a094610cf236610e50565b9060808551610d0081610de0565b828152828582015282878201528260608201520152835192838092610ed4565b600a815203019020815191610d3483610de0565b815493848452600183015460208501908152608060ff6002860154938588019485526003870154966060890197885201541695019415158552825195865251602086015251908401525160608301525115156080820152f35b8491346101c65760203660031901126101c6573563ffffffff60e01b81168091036101c65760209250637965db0b60e01b8114908115610dcf575b5015158152f35b6301ffc9a760e01b14905083610dc8565b60a0810190811067ffffffffffffffff821117610dfc57604052565b634e487b7160e01b600052604160045260246000fd5b90601f8019910116810190811067ffffffffffffffff821117610dfc57604052565b67ffffffffffffffff8111610dfc57601f01601f191660200190565b6020600319820112610eb95760043567ffffffffffffffff8111610eb95781602382011215610eb957806004013590610e8882610e34565b92610e966040519485610e12565b82845260248383010111610eb95781600092602460209301838601378301015290565b600080fd5b602435906001600160a01b0382168203610eb957565b9081519160005b838110610eec575050016000815290565b8060208092840101518185015201610edb565b3360009081527fad3228b676f7d3cd4284a5443f17f1962b36e491b30a40b2405849e597ba5fb5602052604081205460ff1615610f395750565b6044906040519063e2517d3f60e01b82523360048301526024820152fd5b3360009081527fe3c558b62678382104a32eca8acfc9cd319238c371fe623afa6ac48f9723f7b060205260409020547f2fdac322ee704ce09f0773f7f3f92eb98d5e7c836ee9c056cccd5f61041e5e3f9060ff1615610f395750565b80600052600060205260406000203360005260205260ff6040600020541615610f395750565b9060009180835282602052604083209160018060a01b03169182845260205260ff6040842054161560001461105257808352826020526040832082845260205260408320600160ff198254161790557f2f8788117e7eff1d82e926ec794901d17c78024a50270940304540a733656f0d339380a4600190565b505090565b9060009180835282602052604083209160018060a01b03169182845260205260ff6040842054166000146110525780835282602052604083208284526020526040832060ff1981541690557ff6391f5c32d9c69d2a47ea670b442974b53935d1edc7fd64eb21e047a839171b339380a4600190565b919082018092116110d957565b634e487b7160e01b600052601160045260246000fd5b600260015414611100576002600155565b604051633ee5aeb560e01b8152600490fd5b919082039182116110d957565b3d1561114a573d9061113082610e34565b9161113e6040519384610e12565b82523d6000602084013e565b606090565b8115611159570490565b634e487b7160e01b600052601260045260246000fd5b60405160208161117f8185610ed4565b600a815203019020906002820154158015611238575b6112345760038201916111a9835442611112565b9060045480831061122d577fe7cf28f048159bc1ad30a0ad9f9c152af37eb9439c0c0f70d509614bc6e2ae69936111e561121c9260409561114f565b9561120b611204600186549601986111ff8a5480986110cc565b611259565b80956110cc565b809755429055835191828092610ed4565b0390209382519182526020820152a2565b5050505050565b5050565b5060ff600483015416611195565b818102929181159184041417156110d957565b90916000809284156112ed5790600354926301e1338061127d600495865490611246565b049085925b878410806112e3575b156112d9576112b2906112ac6127106112a48689611246565b0480926110cc565b956110cc565b9260001981146112c6576001019293611282565b634e487b7160e01b875260118652602487fd5b9650945050505050565b506064841061128b565b5050915090565b60206113069160405192838092610ed4565b600a8152030190206040519061131b82610de0565b8054825260018101549060208301918252600281015480604085015260ff60046003840154938460608801520154161515908160808601521590811561139d575b5061139557611392926111ff61138161137861138b9442611112565b6004549061114f565b91518451906110cc565b90516110cc565b90565b505050600090565b90503861135c56fea264697066735822122002313b4e2b5eb77aed22b123df0a885b984bd9b7849e0c07d407688707dd272764736f6c634300081400332f8788117e7eff1d82e926ec794901d17c78024a50270940304540a733656f0d",
  "linkReferences": {},
  "deployedLinkReferences": {}
}