{
  "_format": "hh-sol-artifact-1",
  "contractName": "CampaignFactory",
  "sourceName": "smart-contracts/contracts/CampaignFactory.sol",
  "abi": [
    {
      "inputs": [
        {
          "internalType": "address",
          "name": "nftContractAddress",
          "type": "address"
        },
        {
          "internalType": "address payable",
          "name": "daoContractAddress",
          "type": "address"
        },
        {
          "internalType": "uint256",
          "name": "platformFee_",
          "type": "uint256"
        }
      ],
      "stateMutability": "nonpayable",
      "type": "constructor"
    },
    {
      "inputs": [],
      "name": "AccessControlBadConfirmation",
      "type": "error"
    },
    {
      "inputs": [
        {
          "internalType": "address",
          "name": "account",
          "type": "address"
        },
        {
          "internalType": "bytes32",
          "name": "neededRole",
          "type": "bytes32"
        }
      ],
      "name": "AccessControlUnauthorizedAccount",
      "type": "error"
    },
    {
      "inputs": [],
      "name": "FailedDeployment",
      "type": "error"
    },
    {
      "inputs": [
        {
          "internalType": "uint256",
          "name": "balance",
          "type": "uint256"
        },
        {
          "internalType": "uint256",
          "name": "needed",
          "type": "uint256"
        }
      ],
      "name": "InsufficientBalance",
      "type": "error"
    },
    {
      "inputs": [],
      "name": "ReentrancyGuardReentrantCall",
      "type": "error"
    },
    {
      "anonymous": false,
      "inputs": [
        {
          "indexed": true,
          "internalType": "address",
          "name": "campaignAddress",
          "type": "address"
        },
        {
          "indexed": false,
          "internalType": "string",
          "name": "campaignId",
          "type": "string"
        },
        {
          "indexed": false,
          "internalType": "uint256",
          "name": "totalRaised",
          "type": "uint256"
        },
        {
          "indexed": false,
          "internalType": "bool",
          "name": "successful",
          "type": "bool"
        }
      ],
      "name": "CampaignCompleted",
      "type": "event"
    },
    {
      "anonymous": false,
      "inputs": [
        {
          "indexed": true,
          "internalType": "address",
          "name": "campaignAddress",
          "type": "address"
        },
        {
          "indexed": true,
          "internalType": "address",
          "name": "creator",
          "type": "address"
        },
        {
          "indexed": false,
          "internalType": "string",
          "name": "campaignId",
          "type": "string"
        },
        {
          "indexed": false,
          "internalType": "string",
          "name": "companyName",
          "type": "string"
        },
        {
          "indexed": false,
          "internalType": "uint256",
          "name": "fundingGoal",
          "type": "uint256"
        },
        {
          "indexed": false,
          "internalType": "uint256",
          "name": "deadline",
          "type": "uint256"
        }
      ],
      "name": "CampaignCreated",
      "type": "event"
    },
    {
      "anonymous": false,
      "inputs": [
        {
          "indexed": false,
          "internalType": "address",
          "name": "newRecipient",
          "type": "address"
        }
      ],
      "name": "FeeRecipientUpdated",
      "type": "event"
    },
    {
      "anonymous": false,
      "inputs": [
        {
          "indexed": false,
          "internalType": "address",
          "name": "newImplementation",
          "type": "address"
        }
      ],
      "name": "ImplementationUpdated",
      "type": "event"
    },
    {
      "anonymous": false,
      "inputs": [
        {
          "indexed": false,
          "internalType": "uint256",
          "name": "newFee",
          "type": "uint256"
        }
      ],
      "name": "PlatformFeeUpdated",
      "type": "event"
    },
    {
      "anonymous": false,
      "inputs": [
        {
          "indexed": true,
          "internalType": "bytes32",
          "name": "role",
          "type": "bytes32"
        },
        {
          "indexed": true,
          "internalType": "bytes32",
          "name": "previousAdminRole",
          "type": "bytes32"
        },
        {
          "indexed": true,
          "internalType": "bytes32",
          "name": "newAdminRole",
          "type": "bytes32"
        }
      ],
      "name": "RoleAdminChanged",
      "type": "event"
    },
    {
      "anonymous": false,
      "inputs": [
        {
          "indexed": true,
          "internalType": "bytes32",
          "name": "role",
          "type": "bytes32"
        },
        {
          "indexed": true,
          "internalType": "address",
          "name": "account",
          "type": "address"
        },
        {
          "indexed": true,
          "internalType": "address",
          "name": "sender",
          "type": "address"
        }
      ],
      "name": "RoleGranted",
      "type": "event"
    },
    {
      "anonymous": false,
      "inputs": [
        {
          "indexed": true,
          "internalType": "bytes32",
          "name": "role",
          "type": "bytes32"
        },
        {
          "indexed": true,
          "internalType": "address",
          "name": "account",
          "type": "address"
        },
        {
          "indexed": true,
          "internalType": "address",
          "name": "sender",
          "type": "address"
        }
      ],
      "name": "RoleRevoked",
      "type": "event"
    },
    {
      "inputs": [],
      "name": "ADMIN_ROLE",
      "outputs": [
        {
          "internalType": "bytes32",
          "name": "",
          "type": "bytes32"
        }
      ],
      "stateMutability": "view",
      "type": "function"
    },
    {
      "inputs": [],
      "name": "DEFAULT_ADMIN_ROLE",
      "outputs": [
        {
          "internalType": "bytes32",
          "name": "",
          "type": "bytes32"
        }
      ],
      "stateMutability": "view",
      "type": "function"
    },
    {
      "inputs": [],
      "name": "OPERATOR_ROLE",
      "outputs": [
        {
          "internalType": "bytes32",
          "name": "",
          "type": "bytes32"
        }
      ],
      "stateMutability": "view",
      "type": "function"
    },
    {
      "inputs": [
        {
          "internalType": "uint256",
          "name": "",
          "type": "uint256"
        }
      ],
      "name": "allCampaigns",
      "outputs": [
        {
          "internalType": "address",
          "name": "",
          "type": "address"
        }
      ],
      "stateMutability": "view",
      "type": "function"
    },
    {
      "inputs": [
        {
          "internalType": "string",
          "name": "",
          "type": "string"
        }
      ],
      "name": "campaignIdToAddress",
      "outputs": [
        {
          "internalType": "address",
          "name": "",
          "type": "address"
        }
      ],
      "stateMutability": "view",
      "type": "function"
    },
    {
      "inputs": [
        {
          "internalType": "address",
          "name": "",
          "type": "address"
        }
      ],
      "name": "campaigns",
      "outputs": [
        {
          "internalType": "address payable",
          "name": "campaignAddress",
          "type": "address"
        },
        {
          "internalType": "address",
          "name": "creator",
          "type": "address"
        },
        {
          "internalType": "string",
          "name": "campaignId",
          "type": "string"
        },
        {
          "internalType": "string",
          "name": "companyName",
          "type": "string"
        },
        {
          "internalType": "uint256",
          "name": "fundingGoal",
          "type": "uint256"
        },
        {
          "internalType": "uint256",
          "name": "deadline",
          "type": "uint256"
        },
        {
          "internalType": "uint256",
          "name": "createdAt",
          "type": "uint256"
        },
        {
          "internalType": "bool",
          "name": "isActive",
          "type": "bool"
        }
      ],
      "stateMutability": "view",
      "type": "function"
    },
    {
      "inputs": [
        {
          "internalType": "address payable",
          "name": "campaignAddress",
          "type": "address"
        }
      ],
      "name": "completeCampaign",
      "outputs": [],
      "stateMutability": "nonpayable",
      "type": "function"
    },
    {
      "inputs": [
        {
          "internalType": "string",
          "name": "campaignId",
          "type": "string"
        },
        {
          "internalType": "string",
          "name": "companyName",
          "type": "string"
        },
        {
          "internalType": "string",
          "name": "description",
          "type": "string"
        },
        {
          "internalType": "uint256",
          "name": "fundingGoal",
          "type": "uint256"
        },
        {
          "internalType": "uint256",
          "name": "duration",
          "type": "uint256"
        },
        {
          "internalType": "string",
          "name": "documentHash",
          "type": "string"
        }
      ],
      "name": "createCampaign",
      "outputs": [
        {
          "internalType": "address",
          "name": "",
          "type": "address"
        }
      ],
      "stateMutability": "nonpayable",
      "type": "function"
    },
    {
      "inputs": [
        {
          "internalType": "address",
          "name": "",
          "type": "address"
        },
        {
          "internalType": "uint256",
          "name": "",
          "type": "uint256"
        }
      ],
      "name": "creatorCampaigns",
      "outputs": [
        {
          "internalType": "address",
          "name": "",
          "type": "address"
        }
      ],
      "stateMutability": "view",
      "type": "function"
    },
    {
      "inputs": [],
      "name": "daoContract",
      "outputs": [
        {
          "internalType": "contract DAOGovernance",
          "name": "",
          "type": "address"
        }
      ],
      "stateMutability": "view",
      "type": "function"
    },
    {
      "inputs": [],
      "name": "feeRecipient",
      "outputs": [
        {
          "internalType": "address",
          "name": "",
          "type": "address"
        }
      ],
      "stateMutability": "view",
      "type": "function"
    },
    {
      "inputs": [],
      "name": "getAllCampaigns",
      "outputs": [
        {
          "internalType": "address[]",
          "name": "",
          "type": "address[]"
        }
      ],
      "stateMutability": "view",
      "type": "function"
    },
    {
      "inputs": [
        {
          "internalType": "string",
          "name": "campaignId",
          "type": "string"
        }
      ],
      "name": "getCampaignByID",
      "outputs": [
        {
          "internalType": "address",
          "name": "",
          "type": "address"
        }
      ],
      "stateMutability": "view",
      "type": "function"
    },
    {
      "inputs": [],
      "name": "getCampaignCount",
      "outputs": [
        {
          "internalType": "uint256",
          "name": "",
          "type": "uint256"
        }
      ],
      "stateMutability": "view",
      "type": "function"
    },
    {
      "inputs": [],
      "name": "getCampaignStats",
      "outputs": [
        {
          "internalType": "uint256",
          "name": "totalCampaigns",
          "type": "uint256"
        },
        {
          "internalType": "uint256",
          "name": "activeCampaigns",
          "type": "uint256"
        },
        {
          "internalType": "uint256",
          "name": "completedCampaigns",
          "type": "uint256"
        },
        {
          "internalType": "uint256",
          "name": "totalRaised",
          "type": "uint256"
        }
      ],
      "stateMutability": "view",
      "type": "function"
    },
    {
      "inputs": [
        {
          "internalType": "address",
          "name": "creator",
          "type": "address"
        }
      ],
      "name": "getCampaignsByCreator",
      "outputs": [
        {
          "internalType": "address[]",
          "name": "",
          "type": "address[]"
        }
      ],
      "stateMutability": "view",
      "type": "function"
    },
    {
      "inputs": [
        {
          "internalType": "bytes32",
          "name": "role",
          "type": "bytes32"
        }
      ],
      "name": "getRoleAdmin",
      "outputs": [
        {
          "internalType": "bytes32",
          "name": "",
          "type": "bytes32"
        }
      ],
      "stateMutability": "view",
      "type": "function"
    },
    {
      "inputs": [
        {
          "internalType": "bytes32",
          "name": "role",
          "type": "bytes32"
        },
        {
          "internalType": "address",
          "name": "account",
          "type": "address"
        }
      ],
      "name": "grantRole",
      "outputs": [],
      "stateMutability": "nonpayable",
      "type": "function"
    },
    {
      "inputs": [
        {
          "internalType": "bytes32",
          "name": "role",
          "type": "bytes32"
        },
        {
          "internalType": "address",
          "name": "account",
          "type": "address"
        }
      ],
      "name": "hasRole",
      "outputs": [
        {
          "internalType": "bool",
          "name": "",
          "type": "bool"
        }
      ],
      "stateMutability": "view",
      "type": "function"
    },
    {
      "inputs": [],
      "name": "implementationContract",
      "outputs": [
        {
          "internalType": "address",
          "name": "",
          "type": "address"
        }
      ],
      "stateMutability": "view",
      "type": "function"
    },
    {
      "inputs": [],
      "name": "nftContract",
      "outputs": [
        {
          "internalType": "contract NFTShareCertificate",
          "name": "",
          "type": "address"
        }
      ],
      "stateMutability": "view",
      "type": "function"
    },
    {
      "inputs": [
        {
          "internalType": "address payable",
          "name": "campaignAddress",
          "type": "address"
        }
      ],
      "name": "pauseCampaign",
      "outputs": [],
      "stateMutability": "nonpayable",
      "type": "function"
    },
    {
      "inputs": [],
      "name": "platformFee",
      "outputs": [
        {
          "internalType": "uint256",
          "name": "",
          "type": "uint256"
        }
      ],
      "stateMutability": "view",
      "type": "function"
    },
    {
      "inputs": [
        {
          "internalType": "bytes32",
          "name": "role",
          "type": "bytes32"
        },
        {
          "internalType": "address",
          "name": "callerConfirmation",
          "type": "address"
        }
      ],
      "name": "renounceRole",
      "outputs": [],
      "stateMutability": "nonpayable",
      "type": "function"
    },
    {
      "inputs": [
        {
          "internalType": "address payable",
          "name": "campaignAddress",
          "type": "address"
        }
      ],
      "name": "resumeCampaign",
      "outputs": [],
      "stateMutability": "nonpayable",
      "type": "function"
    },
    {
      "inputs": [
        {
          "internalType": "bytes32",
          "name": "role",
          "type": "bytes32"
        },
        {
          "internalType": "address",
          "name": "account",
          "type": "address"
        }
      ],
      "name": "revokeRole",
      "outputs": [],
      "stateMutability": "nonpayable",
      "type": "function"
    },
    {
      "inputs": [
        {
          "internalType": "address",
          "name": "newImplementation",
          "type": "address"
        }
      ],
      "name": "setImplementation",
      "outputs": [],
      "stateMutability": "nonpayable",
      "type": "function"
    },
    {
      "inputs": [
        {
          "internalType": "bytes4",
          "name": "interfaceId",
          "type": "bytes4"
        }
      ],
      "name": "supportsInterface",
      "outputs": [
        {
          "internalType": "bool",
          "name": "",
          "type": "bool"
        }
      ],
      "stateMutability": "view",
      "type": "function"
    },
    {
      "inputs": [
        {
          "internalType": "address",
          "name": "newRecipient",
          "type": "address"
        }
      ],
      "name": "updateFeeRecipient",
      "outputs": [],
      "stateMutability": "nonpayable",
      "type": "function"
    },
    {
      "inputs": [
        {
          "internalType": "uint256",
          "name": "newFee",
          "type": "uint256"
        }
      ],
      "name": "updatePlatformFee",
      "outputs": [],
      "stateMutability": "nonpayable",
      "type": "function"
    },
    {
      "inputs": [],
      "name": "withdrawFees",
      "outputs": [],
      "stateMutability": "nonpayable",
      "type": "function"
    },
    {
      "stateMutability": "payable",
      "type": "receive"
    }
  ],
  "bytecode": "0x60c034620001ca57601f6200269138819003918201601f191683019291906001600160401b03841183851017620001cf578160609284926040968752833981010312620001ca5780516001600160a01b03808216929091839003620001ca576020810151918216809203620001ca57830151916001805580156200018657811562000142576103e88311620000fe5760805260a052600355600480546001600160a01b03191633908117909155620000b790620001e5565b50620000c33362000265565b50620000cf3362000307565b50516122cc9081620003a5823960805181818161041201528181610c3a0152611405015260a05181611af20152f35b835162461bcd60e51b815260206004820152601560248201527f506c6174666f726d2066656520746f6f206869676800000000000000000000006044820152606490fd5b835162461bcd60e51b815260206004820152601460248201527f496e76616c69642044414f20636f6e74726163740000000000000000000000006044820152606490fd5b835162461bcd60e51b815260206004820152601460248201527f496e76616c6964204e465420636f6e74726163740000000000000000000000006044820152606490fd5b600080fd5b634e487b7160e01b600052604160045260246000fd5b6001600160a01b031660008181527fad3228b676f7d3cd4284a5443f17f1962b36e491b30a40b2405849e597ba5fb5602052604081205490919060ff166200026157818052816020526040822081835260205260408220600160ff198254161790553391600080516020620026718339815191528180a4600190565b5090565b6001600160a01b031660008181527f7d7ffb7a348e1c6a02869081a26547b49160dd3df72d1d75a570eb9b698292ec60205260408120549091907fa49807205ce4d355092ef5a8a18f56e8913cf4a201fbe287825b095693c217759060ff166200030257808352826020526040832082845260205260408320600160ff1982541617905560008051602062002671833981519152339380a4600190565b505090565b6001600160a01b031660008181527fee57cd81e84075558e8fcc182a1f4393f91fc97f963a136e66b7f949a62f319f60205260408120549091907f97667070c54ef182b0f5858b034beac1b6f3089aa2d3188bb1e8929f4fa9b9299060ff166200030257808352826020526040832082845260205260408320600160ff1982541617905560008051602062002671833981519152339380a460019056fe608080604052600436101561001d575b50361561001b57600080fd5b005b600090813560e01c90816301ffc9a714611d6a5750806306b1d164146105f95780631601d0b514611cae578063248a9ca314611c8257806326232a2e14611c645780632f2ff15d14611c2757806336568abe14611bdf5780634690484014611bb6578063476343ee14611b215780634a7ffcbc14611adc57806350e2aacd14611a745780636caa921814611a565780636e5add48146111fa57806375b238fc146111bf57806386cdf6041461114057806391d14854146110f557806399e7d056146110cc578063a217fddf146110b0578063a509f4d11461106c578063aa0b598814610fe0578063aca3464014610f56578063b5c795c914610663578063c80cb122146105f9578063d5330fb214610482578063d547741f14610441578063d56d229d146103fc578063d5b8d84a14610370578063d784d426146102bf578063ddc8af6114610264578063f160d369146101b85763f5b541a60361000f57346101b557806003193601126101b55760206040517f97667070c54ef182b0f5858b034beac1b6f3089aa2d3188bb1e8929f4fa9b9298152f35b80fd5b50346101b55760203660031901126101b5576101d2611e75565b6101da612072565b6001600160a01b0316801561022b576020817f7a7b5a0a132f9e0581eb8527f66eae9ee89c2a3e79d4ac7e41a1f1f4d48a7fc2926001600160601b0360a01b6004541617600455604051908152a180f35b60405162461bcd60e51b8152602060048201526011602482015270125b9d985b1a59081c9958da5c1a595b9d607a1b6044820152606490fd5b50346101b55760403660031901126101b55761027e611e75565b6001600160a01b039081168252600760205260408220805460243593908410156101b557506020926102af9161205a565b9190546040519260031b1c168152f35b50346101b55760203660031901126101b5576102d9611e75565b6102e1612072565b6001600160a01b03168015610332576020817f310ba5f1d2ed074b51e2eccd052a47ae9ab7c6b800d1fca3db3999d6a592ca03926001600160601b0360a01b6002541617600255604051908152a180f35b60405162461bcd60e51b815260206004820152601660248201527524b73b30b634b21034b6b83632b6b2b73a30ba34b7b760511b6044820152606490fd5b50346101b5576020806003193601126103f8576001600160a01b039182610395611e75565b168152600782526040812092604051908193808654938481520195845280842093915b8383106103df576103db866103cf818a0382611df0565b60405191829182611fc9565b0390f35b84548116875295810195600194850194909201916103b8565b5080fd5b50346101b557806003193601126101b5576040517f00000000000000000000000000000000000000000000000000000000000000006001600160a01b03168152602090f35b50346101b55760403660031901126101b55761047e600435610461611e8b565b908084528360205261047960016040862001546120ce565b612172565b5080f35b50346101b557806003193601126101b557600854818080805b8481106104be575060809450604051938452602084015260408301526060820152f35b926104c88461200d565b9260018060a01b03809254600395861b1c16885260059160ff600760209480865260408c2090610527604051996104fe8b611dd3565b868454168b5286600185015416898c015261051b60028501611edb565b60408c01528301611edb565b60608a0152600482015460808a015281015460a0890152600681015460c089015201541615801560e0870152945116936105e55781610567600492612287565b945b6040516331711d1360e21b815292839182905afa9182156105da5788926105a5575b505061059a906105a0926121e7565b93612287565b61049b565b90809250813d83116105d3575b6105bc8183611df0565b810103126105ce57518161059a61058b565b600080fd5b503d6105b2565b6040513d8a823e3d90fd5b9293816105f3600492612287565b95610569565b50346101b55760203660031901126101b5576004359067ffffffffffffffff82116101b557602061062d3660048501611e2e565b816106416040519283815193849201611f81565b600690820190815281900382019020546040516001600160a01b039091168152f35b50346101b55760203660031901126101b557600435906001600160a01b03821682036101b5573360009081527fee57cd81e84075558e8fcc182a1f4393f91fc97f963a136e66b7f949a62f319f60205260409020547f97667070c54ef182b0f5858b034beac1b6f3089aa2d3188bb1e8929f4fa9b9299060ff1615610f3857506106eb61220a565b6001600160a01b0382168152600560205260408120600701546107109060ff1661222d565b604051633e8e471960e21b81526020816004816001600160a01b0387165afa908115610ed0578291610f19575b5015610edb576001600160a01b038216808252600560209081526040808420600701805460ff19169055516331711d1360e21b815291829060049082905afa908115610ed0578291610e9e575b5060405163ec4cd0cf60e01b8152906020826004816001600160a01b0388165afa918215610e93578392610e62575b50816108f0575b60018060a01b038416835260056020526002604084200191604051906060825284928454946107ee86611ea1565b9081606086015260019687811690816000146108ab5750600114610853575b50506020830152151560408201526001600160a01b038516917f98daf57b74203c9ac8a332f2411cd5aeabdf57af81d9b456ad54674a33c04aa9919081900390a2805580f35b87526020872091945086915b818310610895575050820160800192817f98daf57b74203c9ac8a332f2411cd5aeabdf57af81d9b456ad54674a33c04aa961080d565b805460808487010152602090920191860161085f565b60ff191660808781019190915292151560051b860190920195508391507f98daf57b74203c9ac8a332f2411cd5aeabdf57af81d9b456ad54674a33c04aa9905061080d565b91909260018060a01b038116825260056020526040822060ff60076040519261091884611dd3565b80546001600160a01b039081168552600182015416602085015261093e60028201611edb565b604085015261094f60038201611edb565b606085015260048101546080850152600581015460a0850152600681015460c0850152015416151560e082015260405194632cbd695360e21b8652838660048160018060a01b0387165afa958615610e57578496610d79575b50835b8651811015610d6d5760018060a01b0360208260051b8901015116604051906316b7d25960e11b825280600483015260208260248160018060a01b038a165afa918215610d62578792610d2e575b508115918215610a15575b505050610a1090612287565b6109ab565b91959790936103e899939996838881020488141715610d1a576080860151988915610d045788946040880151938592600a6021888a907a184f03e93ff9f4daa797ed6e38ed64bf6a1f010000000000000000808c1015610cf6575b5083906d04ee2d6d415b85acef810000000080821015610ce9575b50662386f26fc1000080821015610cdc575b506305f5e10080821015610ccf575b5061271080821015610cc2575b506064811015610cb4575b1015610cac575b610ad760018201611e12565b9a610ae56040519c8d611df0565b60018201808d52601f1990610af990611e12565b013660208e0137508a01015b60001901946f181899199a1a9b1b9c1cb0b131b232b360811b8282061a865304938415610b3457600a90610b05565b5099939792509a94602094610c0496610bce610c35949f9960405180947f68747470733a2f2f6170692e63726f776466756e64636861696e2e636f6d2f6e8b8301526b66742f6d657461646174612f60a01b6040830152602f60f81b8151610ba481604c948f8688019101611f81565b830191820152825190610bbf82604d958e8785019101611f81565b0103602d810185520183611df0565b60408b015195610c1660608d01516040519a8b998a996368ad321d60e01b8b5260048b015260c060248b015260c48a0190611fa4565b8881036003190160448a015290611fa4565b93806064880152020460848501526003198483030160a4850152611fa4565b0381897f00000000000000000000000000000000000000000000000000000000000000006001600160a01b03165af18015610ca157610c76575b8080610a04565b602090813d8311610c9a575b610c8c8183611df0565b810103126105ce5738610c6f565b503d610c82565b6040513d88823e3d90fd5b600101610acb565b606460029104920191610ac4565b6004910492019138610ab9565b6008910492019138610aac565b6010910492019138610a9d565b6020910492019138610a8b565b604092508b04905083610a70565b634e487b7160e01b600052601260045260246000fd5b634e487b7160e01b88526011600452602488fd5b9091506020813d602011610d5a575b81610d4a60209383611df0565b810103126105ce575190386109f9565b3d9150610d3d565b6040513d89823e3d90fd5b509293919450506107c0565b9095503d8085833e610d8b8183611df0565b6020828281010312610e535781519167ffffffffffffffff92838111610e4f57828201601f828401011215610e4f5780820151938411610e3b578360051b9060405194610ddb6020840187611df0565b855260208501938301602083838601010111610e3757602081840101935b60208383860101018510610e1357505050505094386109a8565b84516001600160a01b0381168103610e3357815260209485019401610df9565b8980fd5b8780fd5b634e487b7160e01b87526041600452602487fd5b8680fd5b8480fd5b6040513d86823e3d90fd5b610e8591925060203d602011610e8c575b610e7d8183611df0565b81019061226f565b90386107b9565b503d610e73565b6040513d85823e3d90fd5b90506020813d602011610ec8575b81610eb960209383611df0565b810103126105ce57513861078a565b3d9150610eac565b6040513d84823e3d90fd5b60405162461bcd60e51b815260206004820152601660248201527510d85b5c185a59db881b9bdd0818dbdb5c1b195d195960521b6044820152606490fd5b610f32915060203d602011610e8c57610e7d8183611df0565b3861073d565b6044906040519063e2517d3f60e01b82523360048301526024820152fd5b50346101b55760203660031901126101b557806004356001600160a01b03811690819003610fdd57610f86612072565b8082526005602052610fa160ff60076040852001541661222d565b803b15610fdd57818091600460405180948193638456cb5960e01b83525af18015610ed057610fcd5750f35b610fd690611dbf565b6101b55780f35b50fd5b50346101b55760203660031901126101b557600435610ffd612072565b6103e88111611038576020817f45610d581145924dd7090a5017e5f2b1d6f42213bb2e95707ff86846bbfcb1ca92600355604051908152a180f35b60405162461bcd60e51b815260206004820152600c60248201526b08ccaca40e8dede40d0d2ced60a31b6044820152606490fd5b50346101b55760203660031901126101b557600435906008548210156101b55760206110978361200d565b905460405160039290921b1c6001600160a01b03168152f35b50346101b557806003193601126101b557602090604051908152f35b50346101b557806003193601126101b5576002546040516001600160a01b039091168152602090f35b50346101b55760403660031901126101b5576040611111611e8b565b91600435815280602052209060018060a01b0316600052602052602060ff604060002054166040519015158152f35b50346101b557806003193601126101b557604051600880548083529083526020808301937ff3f7a9fe364faab93b216da50a3214154f22a0a2b415b23a84c8169e8b636ee392915b82821061119f576103db856103cf81890382611df0565b83546001600160a01b031686529485019460019384019390910190611188565b50346101b557806003193601126101b55760206040517fa49807205ce4d355092ef5a8a18f56e8913cf4a201fbe287825b095693c217758152f35b50346101b55760c03660031901126101b55760043567ffffffffffffffff81116103f85761122c903690600401611e2e565b9060243567ffffffffffffffff81116103f85761124d903690600401611e2e565b9060443567ffffffffffffffff81116103f85761126e903690600401611e2e565b9160a43567ffffffffffffffff8111611a525761128f903690600401611e2e565b9161129861220a565b845115611a16578151156119d9576064351561199457608435151580611984575b1561194c5760405185516112d1818360208a01611f81565b60069082019081528190036020019020546001600160a01b0316611907576002546001600160a01b038116156118c957608881901c62ffffff16763d602d80600a3d3981f3363d3d373d3d3d363d7300000017825260781b6effffffffffffffffffffffffffffff19166e5af43d82803e903d91602b57fd5bf3176020526001600160a01b036037600983f0169384156118b757611371608435426121e7565b9360035491863b156118b357876113cb936113fd86946113dd6113b9956040519889978897636c11e1dd60e01b89523360048a015261014060248a0152610144890190611fa4565b8781036003190160448901528c611fa4565b86810360031901606488015290611fa4565b9060643560848601528a60a48601526003198583030160c4860152611fa4565b3060e48401527f00000000000000000000000000000000000000000000000000000000000000006001600160a01b0316610104840152610124830191909152038183895af18015610ed05790829161189f575b505060405161145e81611dd3565b84815233602082015285604082015282606082015260643560808201528360a08201524260c0820152600160e082015284825260056020526040822060018060a01b038251166001600160601b0360a01b8254161781556001810160018060a01b036020840151166001600160601b0360a01b825416179055604082015180519067ffffffffffffffff82116117c15781906114fd6002850154611ea1565b601f811161184f575b50602090601f83116001146117e05786926117d5575b50508160011b916000199060031b1c19161760028201555b606082015180519067ffffffffffffffff82116117c1576115586003840154611ea1565b601f811161177d575b50602090601f831160011461170757928260e093600793889796604099926116fc575b50508160011b916000199060031b1c19161760038201555b6080840151600482015560a0840151600582015560c0840151600682015501910151151560ff80198354169116179055815160208188516115e08183858d01611f81565b81016006815203019020856001600160601b0360a01b825416179055338152600760205220908154916801000000000000000092838110156116e65761162b9160018201815561205a565b81546001600160a01b0360039290921b91821b19169086901b179055600854918210156116e6576020946116c67fada0d111faa4c3d443b09b9a5d21786bfe768dc215e0bce8830de404bea93c9d9261168b85600189970160085561200d565b81549060031b9087821b9160018060a01b03901b19161790556116b960405193608085526080850190611fa4565b9083820389850152611fa4565b93606435604083015260608201528033940390a360018055604051908152f35b634e487b7160e01b600052604160045260246000fd5b015190503880611584565b906003840186526020862091865b601f198516811061176557508360079360409897969360019360e097601f1981161061174c575b505050811b01600382015561159c565b015160001960f88460031b161c1916905538808061173c565b91926020600181928685015181550194019201611715565b60038401865260208620601f840160051c8101602085106117ba575b601f830160051c820181106117af575050611561565b878155600101611799565b5080611799565b634e487b7160e01b85526041600452602485fd5b01519050388061151c565b9250600284018652602086209086935b601f1984168510611834576001945083601f1981161061181b575b505050811b016002820155611534565b015160001960f88460031b161c1916905538808061180b565b818101518355602094850194600190930192909101906117f0565b90915060028401865260208620601f840160051c810160208510611898575b90849392915b601f830160051c8201811061188a575050611506565b888155859450600101611874565b508061186e565b6118a890611dbf565b6101b5578038611450565b8380fd5b60405163b06ebf3d60e01b8152600490fd5b60405162461bcd60e51b8152602060048201526016602482015275125b5c1b195b595b9d185d1a5bdb881b9bdd081cd95d60521b6044820152606490fd5b60405162461bcd60e51b815260206004820152601a60248201527f43616d706169676e20494420616c7265616479206578697374730000000000006044820152606490fd5b60405162461bcd60e51b815260206004820152601060248201526f24b73b30b634b210323ab930ba34b7b760811b6044820152606490fd5b506301e1338060843511156112b9565b60405162461bcd60e51b815260206004820152601d60248201527f46756e64696e6720676f616c206d75737420626520706f7369746976650000006044820152606490fd5b60405162461bcd60e51b815260206004820152601560248201527410dbdb5c185b9e481b985b59481c995c5d5a5c9959605a1b6044820152606490fd5b60405162461bcd60e51b815260206004820152601460248201527310d85b5c185a59db881251081c995c5d5a5c995960621b6044820152606490fd5b8280fd5b50346101b557806003193601126101b5576020600854604051908152f35b50346101b55760203660031901126101b557806004356001600160a01b03811690819003610fdd57611aa4612072565b803b15610fdd578190600460405180948193631fa5d41d60e11b83525af18015610ed057611ad0575080f35b611ad990611dbf565b80f35b50346101b557806003193601126101b5576040517f00000000000000000000000000000000000000000000000000000000000000006001600160a01b03168152602090f35b50346101b557806003193601126101b557611b3a612072565b6004546001600160a01b03168015611b795781808080934790828215611b70575bf115611b645780f35b604051903d90823e3d90fd5b506108fc611b5b565b60405162461bcd60e51b8152602060048201526015602482015274119959481c9958da5c1a595b9d081b9bdd081cd95d605a1b6044820152606490fd5b50346101b557806003193601126101b5576004546040516001600160a01b039091168152602090f35b50346101b55760403660031901126101b557611bf9611e8b565b336001600160a01b03821603611c155761047e90600435612172565b60405163334bd91960e11b8152600490fd5b50346101b55760403660031901126101b55761047e600435611c47611e8b565b9080845283602052611c5f60016040862001546120ce565b6120f4565b50346101b557806003193601126101b5576020600354604051908152f35b50346101b55760203660031901126101b557600160406020926004358152808452200154604051908152f35b50346101b55760203660031901126101b5576001600160a01b039060409082611cd5611e75565b168152600560205220805460018201548316921690611cf660028201611edb565b611d0260038301611edb565b91600481015492611d4f600583015491611d4160ff600760068701549601541695604051998a998a5260208a01526101008060408b0152890190611fa4565b908782036060890152611fa4565b93608086015260a085015260c0840152151560e08301520390f35b9050346103f85760203660031901126103f85760043563ffffffff60e01b8116809103611a525760209250637965db0b60e01b8114908115611dae575b5015158152f35b6301ffc9a760e01b14905038611da7565b67ffffffffffffffff81116116e657604052565b610100810190811067ffffffffffffffff8211176116e657604052565b90601f8019910116810190811067ffffffffffffffff8211176116e657604052565b67ffffffffffffffff81116116e657601f01601f191660200190565b81601f820112156105ce57803590611e4582611e12565b92611e536040519485611df0565b828452602083830101116105ce57816000926020809301838601378301015290565b600435906001600160a01b03821682036105ce57565b602435906001600160a01b03821682036105ce57565b90600182811c92168015611ed1575b6020831014611ebb57565b634e487b7160e01b600052602260045260246000fd5b91607f1691611eb0565b9060405191826000825492611eef84611ea1565b908184526001948581169081600014611f5e5750600114611f1b575b5050611f1992500383611df0565b565b9093915060005260209081600020936000915b818310611f46575050611f1993508201013880611f0b565b85548884018501529485019487945091830191611f2e565b915050611f1994506020925060ff191682840152151560051b8201013880611f0b565b60005b838110611f945750506000910152565b8181015183820152602001611f84565b90602091611fbd81518092818552858086019101611f81565b601f01601f1916010190565b6020908160408183019282815285518094520193019160005b828110611ff0575050505090565b83516001600160a01b031685529381019392810192600101611fe2565b6008548110156120445760086000527ff3f7a9fe364faab93b216da50a3214154f22a0a2b415b23a84c8169e8b636ee30190600090565b634e487b7160e01b600052603260045260246000fd5b80548210156120445760005260206000200190600090565b3360009081527f7d7ffb7a348e1c6a02869081a26547b49160dd3df72d1d75a570eb9b698292ec60205260409020547fa49807205ce4d355092ef5a8a18f56e8913cf4a201fbe287825b095693c217759060ff1615610f385750565b80600052600060205260406000203360005260205260ff6040600020541615610f385750565b9060009180835282602052604083209160018060a01b03169182845260205260ff6040842054161560001461216d57808352826020526040832082845260205260408320600160ff198254161790557f2f8788117e7eff1d82e926ec794901d17c78024a50270940304540a733656f0d339380a4600190565b505090565b9060009180835282602052604083209160018060a01b03169182845260205260ff60408420541660001461216d5780835282602052604083208284526020526040832060ff1981541690557ff6391f5c32d9c69d2a47ea670b442974b53935d1edc7fd64eb21e047a839171b339380a4600190565b919082018092116121f457565b634e487b7160e01b600052601160045260246000fd5b60026001541461221b576002600155565b604051633ee5aeb560e01b8152600490fd5b1561223457565b60405162461bcd60e51b815260206004820152601360248201527243616d706169676e206e6f742061637469766560681b6044820152606490fd5b908160209103126105ce575180151581036105ce5790565b60001981146121f4576001019056fea26469706673582212207cd0c58387409b99a9dd302aed18fdcc052bdefbb776e62be4ea357aa9e446f764736f6c634300081400332f8788117e7eff1d82e926ec794901d17c78024a50270940304540a733656f0d",
  "linkReferences": {},
  "deployedLinkReferences": {}
}