{
  "_format": "hh-sol-artifact-1",
  "contractName": "IssuerRegistry",
  "sourceName": "smart-contracts/contracts/IssuerRegistry.sol",
  "abi": [
    {
      "inputs": [],
      "stateMutability": "nonpayable",
      "type": "constructor"
    },
    {
      "inputs": [],
      "name": "AccessControlBadConfirmation",
      "type": "error"
    },
    {
      "inputs": [
        {
          "internalType": "address",
          "name": "account",
          "type": "address"
        },
        {
          "internalType": "bytes32",
          "name": "neededRole",
          "type": "bytes32"
        }
      ],
      "name": "AccessControlUnauthorizedAccount",
      "type": "error"
    },
    {
      "inputs": [],
      "name": "CampaignIdExists",
      "type": "error"
    },
    {
      "inputs": [],
      "name": "EmptyDescription",
      "type": "error"
    },
    {
      "inputs": [],
      "name": "InvalidAddress",
      "type": "error"
    },
    {
      "inputs": [],
      "name": "ReentrancyGuardReentrantCall",
      "type": "error"
    },
    {
      "inputs": [],
      "name": "Unauthorized",
      "type": "error"
    },
    {
      "anonymous": false,
      "inputs": [
        {
          "indexed": true,
          "internalType": "address",
          "name": "issuer",
          "type": "address"
        },
        {
          "indexed": false,
          "internalType": "bool",
          "name": "locked",
          "type": "bool"
        }
      ],
      "name": "ExclusivityLockSet",
      "type": "event"
    },
    {
      "anonymous": false,
      "inputs": [
        {
          "indexed": true,
          "internalType": "address",
          "name": "issuer",
          "type": "address"
        },
        {
          "indexed": false,
          "internalType": "string",
          "name": "newIpfsHash",
          "type": "string"
        }
      ],
      "name": "InformationMemorandumUpdated",
      "type": "event"
    },
    {
      "anonymous": false,
      "inputs": [
        {
          "indexed": true,
          "internalType": "address",
          "name": "issuer",
          "type": "address"
        },
        {
          "indexed": false,
          "internalType": "uint256",
          "name": "timestamp",
          "type": "uint256"
        }
      ],
      "name": "IssuerDeactivated",
      "type": "event"
    },
    {
      "anonymous": false,
      "inputs": [
        {
          "indexed": true,
          "internalType": "address",
          "name": "issuer",
          "type": "address"
        },
        {
          "indexed": false,
          "internalType": "string",
          "name": "vcHash",
          "type": "string"
        },
        {
          "indexed": false,
          "internalType": "string",
          "name": "ipfsHash",
          "type": "string"
        },
        {
          "indexed": false,
          "internalType": "uint256",
          "name": "timestamp",
          "type": "uint256"
        }
      ],
      "name": "IssuerRegistered",
      "type": "event"
    },
    {
      "anonymous": false,
      "inputs": [
        {
          "indexed": true,
          "internalType": "bytes32",
          "name": "role",
          "type": "bytes32"
        },
        {
          "indexed": true,
          "internalType": "bytes32",
          "name": "previousAdminRole",
          "type": "bytes32"
        },
        {
          "indexed": true,
          "internalType": "bytes32",
          "name": "newAdminRole",
          "type": "bytes32"
        }
      ],
      "name": "RoleAdminChanged",
      "type": "event"
    },
    {
      "anonymous": false,
      "inputs": [
        {
          "indexed": true,
          "internalType": "bytes32",
          "name": "role",
          "type": "bytes32"
        },
        {
          "indexed": true,
          "internalType": "address",
          "name": "account",
          "type": "address"
        },
        {
          "indexed": true,
          "internalType": "address",
          "name": "sender",
          "type": "address"
        }
      ],
      "name": "RoleGranted",
      "type": "event"
    },
    {
      "anonymous": false,
      "inputs": [
        {
          "indexed": true,
          "internalType": "bytes32",
          "name": "role",
          "type": "bytes32"
        },
        {
          "indexed": true,
          "internalType": "address",
          "name": "account",
          "type": "address"
        },
        {
          "indexed": true,
          "internalType": "address",
          "name": "sender",
          "type": "address"
        }
      ],
      "name": "RoleRevoked",
      "type": "event"
    },
    {
      "inputs": [],
      "name": "DEFAULT_ADMIN_ROLE",
      "outputs": [
        {
          "internalType": "bytes32",
          "name": "",
          "type": "bytes32"
        }
      ],
      "stateMutability": "view",
      "type": "function"
    },
    {
      "inputs": [],
      "name": "REGISTRAR_ROLE",
      "outputs": [
        {
          "internalType": "bytes32",
          "name": "",
          "type": "bytes32"
        }
      ],
      "stateMutability": "view",
      "type": "function"
    },
    {
      "inputs": [
        {
          "internalType": "address",
          "name": "",
          "type": "address"
        }
      ],
      "name": "activeCampaigns",
      "outputs": [
        {
          "internalType": "address",
          "name": "",
          "type": "address"
        }
      ],
      "stateMutability": "view",
      "type": "function"
    },
    {
      "inputs": [
        {
          "internalType": "address",
          "name": "issuer",
          "type": "address"
        }
      ],
      "name": "canStartCampaign",
      "outputs": [
        {
          "internalType": "bool",
          "name": "canStartCampaign",
          "type": "bool"
        }
      ],
      "stateMutability": "view",
      "type": "function"
    },
    {
      "inputs": [
        {
          "internalType": "address",
          "name": "issuer",
          "type": "address"
        }
      ],
      "name": "deactivateIssuer",
      "outputs": [],
      "stateMutability": "nonpayable",
      "type": "function"
    },
    {
      "inputs": [],
      "name": "getAllIssuers",
      "outputs": [
        {
          "internalType": "address[]",
          "name": "",
          "type": "address[]"
        }
      ],
      "stateMutability": "view",
      "type": "function"
    },
    {
      "inputs": [],
      "name": "getCurrentYear",
      "outputs": [
        {
          "internalType": "uint256",
          "name": "year",
          "type": "uint256"
        }
      ],
      "stateMutability": "view",
      "type": "function"
    },
    {
      "inputs": [
        {
          "internalType": "address",
          "name": "issuer",
          "type": "address"
        }
      ],
      "name": "getIssuer",
      "outputs": [
        {
          "internalType": "string",
          "name": "vcHash",
          "type": "string"
        },
        {
          "internalType": "string",
          "name": "ipfsHash",
          "type": "string"
        },
        {
          "internalType": "uint256",
          "name": "registeredAt",
          "type": "uint256"
        },
        {
          "internalType": "bool",
          "name": "isActive",
          "type": "bool"
        },
        {
          "internalType": "bool",
          "name": "exclusivityLock",
          "type": "bool"
        },
        {
          "internalType": "address",
          "name": "activeCampaign",
          "type": "address"
        }
      ],
      "stateMutability": "view",
      "type": "function"
    },
    {
      "inputs": [
        {
          "internalType": "bytes32",
          "name": "role",
          "type": "bytes32"
        }
      ],
      "name": "getRoleAdmin",
      "outputs": [
        {
          "internalType": "bytes32",
          "name": "",
          "type": "bytes32"
        }
      ],
      "stateMutability": "view",
      "type": "function"
    },
    {
      "inputs": [
        {
          "internalType": "bytes32",
          "name": "role",
          "type": "bytes32"
        },
        {
          "internalType": "address",
          "name": "account",
          "type": "address"
        }
      ],
      "name": "grantRole",
      "outputs": [],
      "stateMutability": "nonpayable",
      "type": "function"
    },
    {
      "inputs": [
        {
          "internalType": "bytes32",
          "name": "role",
          "type": "bytes32"
        },
        {
          "internalType": "address",
          "name": "account",
          "type": "address"
        }
      ],
      "name": "hasRole",
      "outputs": [
        {
          "internalType": "bool",
          "name": "",
          "type": "bool"
        }
      ],
      "stateMutability": "view",
      "type": "function"
    },
    {
      "inputs": [
        {
          "internalType": "address",
          "name": "issuer",
          "type": "address"
        }
      ],
      "name": "isRegisteredIssuer",
      "outputs": [
        {
          "internalType": "bool",
          "name": "registered",
          "type": "bool"
        }
      ],
      "stateMutability": "view",
      "type": "function"
    },
    {
      "inputs": [
        {
          "internalType": "address",
          "name": "",
          "type": "address"
        }
      ],
      "name": "issuers",
      "outputs": [
        {
          "internalType": "string",
          "name": "vcHash",
          "type": "string"
        },
        {
          "internalType": "string",
          "name": "ipfsHash",
          "type": "string"
        },
        {
          "internalType": "uint256",
          "name": "registeredAt",
          "type": "uint256"
        },
        {
          "internalType": "bool",
          "name": "isActive",
          "type": "bool"
        },
        {
          "internalType": "uint256",
          "name": "lastCampaignYear",
          "type": "uint256"
        },
        {
          "internalType": "bool",
          "name": "exclusivityLock",
          "type": "bool"
        }
      ],
      "stateMutability": "view",
      "type": "function"
    },
    {
      "inputs": [
        {
          "internalType": "address",
          "name": "issuer",
          "type": "address"
        },
        {
          "internalType": "string",
          "name": "vcHash",
          "type": "string"
        },
        {
          "internalType": "string",
          "name": "ipfsHash",
          "type": "string"
        }
      ],
      "name": "registerIssuer",
      "outputs": [],
      "stateMutability": "nonpayable",
      "type": "function"
    },
    {
      "inputs": [
        {
          "internalType": "uint256",
          "name": "",
          "type": "uint256"
        }
      ],
      "name": "registeredIssuers",
      "outputs": [
        {
          "internalType": "address",
          "name": "",
          "type": "address"
        }
      ],
      "stateMutability": "view",
      "type": "function"
    },
    {
      "inputs": [
        {
          "internalType": "address",
          "name": "issuer",
          "type": "address"
        }
      ],
      "name": "releaseExclusivityLock",
      "outputs": [],
      "stateMutability": "nonpayable",
      "type": "function"
    },
    {
      "inputs": [
        {
          "internalType": "bytes32",
          "name": "role",
          "type": "bytes32"
        },
        {
          "internalType": "address",
          "name": "callerConfirmation",
          "type": "address"
        }
      ],
      "name": "renounceRole",
      "outputs": [],
      "stateMutability": "nonpayable",
      "type": "function"
    },
    {
      "inputs": [
        {
          "internalType": "bytes32",
          "name": "role",
          "type": "bytes32"
        },
        {
          "internalType": "address",
          "name": "account",
          "type": "address"
        }
      ],
      "name": "revokeRole",
      "outputs": [],
      "stateMutability": "nonpayable",
      "type": "function"
    },
    {
      "inputs": [
        {
          "internalType": "address",
          "name": "issuer",
          "type": "address"
        },
        {
          "internalType": "address",
          "name": "campaignAddress",
          "type": "address"
        }
      ],
      "name": "setExclusivityLock",
      "outputs": [],
      "stateMutability": "nonpayable",
      "type": "function"
    },
    {
      "inputs": [
        {
          "internalType": "bytes4",
          "name": "interfaceId",
          "type": "bytes4"
        }
      ],
      "name": "supportsInterface",
      "outputs": [
        {
          "internalType": "bool",
          "name": "",
          "type": "bool"
        }
      ],
      "stateMutability": "view",
      "type": "function"
    },
    {
      "inputs": [
        {
          "internalType": "string",
          "name": "newIpfsHash",
          "type": "string"
        }
      ],
      "name": "updateInformationMemorandum",
      "outputs": [],
      "stateMutability": "nonpayable",
      "type": "function"
    }
  ],
  "bytecode": "0x608060405234610030576001805561001633610035565b50610020336100b3565b5060405161141f90816101548239f35b600080fd5b6001600160a01b031660008181527fad3228b676f7d3cd4284a5443f17f1962b36e491b30a40b2405849e597ba5fb5602052604081205490919060ff166100af57818052816020526040822081835260205260408220600160ff1982541617905533916000805160206115738339815191528180a4600190565b5090565b6001600160a01b031660008181527f01ddc098da42acdf4176da08ec75800bc0fb2bce2be978b2037bcb0ae696651960205260408120549091907fedcc084d3dcd65a1f7f23c65c46722faca6953d28e43150a467cf43e5c3092389060ff1661014e57808352826020526040832082845260205260408320600160ff19825416179055600080516020611573833981519152339380a4600190565b50509056fe6080806040526004908136101561001557600080fd5b60003560e01c90816301ffc9a714610edf5750806313632d5014610dd3578063248a9ca314610da557806328d96a6714610cf75780632d33d7d514610c9e5780632f2ff15d14610c5f57806336568abe14610c1b57806338a7543e14610b815780634c32c35c14610ab85780634ca720e514610a8b57806363e4102114610637578063707e2dc0146105fc5780637a0091351461053757806391d14854146104ea578063a217fddf146104ce578063a5b701ac1461048d578063bc930f6714610293578063ce41607a14610270578063d547741f1461022f578063f68e9553146101f45763fef03da31461010857600080fd5b346101ef5760203660031901126101ef576101c8906001600160a01b03908161012f610f31565b16918260005260026020526040600020916040519061014d82610f97565b61015684610feb565b82526101d661016760018601610feb565b9384602085015260ff60056002880154978860408801528260038201541615159586606089015281015460808801520154161515938460a082015251966000526003602052604060002054169360405197889760c0895260c0890190611091565b908782036020890152611091565b9360408601526060850152608084015260a08301520390f35b600080fd5b346101ef5760003660031901126101ef5760206040517fedcc084d3dcd65a1f7f23c65c46722faca6953d28e43150a467cf43e5c3092388152f35b50346101ef5760403660031901126101ef5761026e903561024e610f47565b908060005260006020526102696001604060002001546111ef565b611293565b005b346101ef5760003660031901126101ef57602061028b6113bd565b604051908152f35b50346101ef57602090816003193601126101ef5767ffffffffffffffff9080358281116101ef576102c790369083016110d1565b90336000526002845260ff600360406000200154161561047f5781511561047057336000526002845260018060406000200191835194851161045b575061030e8254610f5d565b601f8111610412575b5084601f851160011461038b5793808061037b9594937fcdad215a7fe6c8be10c618103dc143b94ff485185e65e2ad5c1d3303a2aab99c97600093610380575b501b916000199060031b1c19161790555b6040519182918583523395830190611091565b0390a2005b860151925038610357565b601f1985169083600052866000209160005b888282106103fe5750509186917fcdad215a7fe6c8be10c618103dc143b94ff485185e65e2ad5c1d3303a2aab99c9761037b97969594106103e5575b5050811b019055610368565b85015160001960f88460031b161c1916905538806103d9565b87840151855593850193928301920161039d565b8260005285600020601f860160051c810191878710610451575b601f0160051c019082905b828110610445575050610317565b60008155018290610437565b909150819061042c565b604190634e487b7160e01b6000525260246000fd5b60405163d937d5df60e01b8152fd5b6040516282b42960e81b8152fd5b50346101ef5760203660031901126101ef57803590548110156101ef576104b5602091611128565b905460405160039290921b1c6001600160a01b03168152f35b346101ef5760003660031901126101ef57602060405160008152f35b50346101ef5760403660031901126101ef57610504610f47565b9035600052600060205260406000209060018060a01b0316600052602052602060ff604060002054166040519015158152f35b50346101ef5760203660031901126101ef57610551610f31565b610559611175565b6001600160a01b031660008181526002602052604090206003015490919060ff161561047f575080600052600260205260406000206005600382019160ff19928381541690550190815460ff81166105d9575b837f586aa13012da4d969863a6facf031a08a22f65dbae68786e4de5261d411a60d86020604051428152a2005b1690556003602052604060002080546001600160a01b03191690553880806105ac565b346101ef5760203660031901126101ef5760206001600160a01b0380610620610f31565b166000526003825260406000205416604051908152f35b50346101ef5760603660031901126101ef57610651610f31565b9060243567ffffffffffffffff81116101ef5761067190369083016110d1565b9060443567ffffffffffffffff81116101ef5761069190369083016110d1565b9061069a611175565b6001600160a01b03841615610a7c57825115610470578151156104705760018060a01b0384166000526002602052600260406000200154610a6d576040516106e181610f97565b8381528260208201524260408201526001606082015260006080820152600060a082015260018060a01b0385166000526002602052604060002090805180519067ffffffffffffffff821161099157819061073c8554610f5d565b601f8111610a1d575b50602090601f83116001146109b1576000926109a6575b50508160011b916000199060031b1c19161782555b602081015180519067ffffffffffffffff8211610991576107956001850154610f5d565b601f811161094a575b50602090601f83116001146108d357928260059360a09361082397966000926108c8575b50508160011b916000199060031b1c19161760018501555b6040810151600285015561080360608201511515600386019060ff801983541691151516179055565b6080810151868501550151151591019060ff801983541691151516179055565b8054906801000000000000000082101561045b576108a392610870836108b19360017fb90fab3f509b58e3f490dae1e5c582e8fde219064c5b98889d1a22f99fd38e849896019055611128565b81546001600160a01b0389811660039390931b92831b921b19161790556040516060808252909485949091850190611091565b908382036020850152611091565b4260408301526001600160a01b03909416930390a2005b0151905038806107c2565b90601f198316916001860160005260206000209260005b81811061093257509360a0936108239796936001938360059810610919575b505050811b0160018501556107da565b015160001960f88460031b161c19169055388080610909565b929360206001819287860151815501950193016108ea565b600185016000526020600020601f840160051c81016020851061098a575b601f830160051c8201811061097e57505061079e565b60008155600101610968565b5080610968565b604185634e487b7160e01b6000525260246000fd5b01519050388061075c565b9250846000526020600020906000935b601f1984168510610a02576001945083601f198116106109e9575b505050811b018255610771565b015160001960f88460031b161c191690553880806109dc565b818101518355602094850194600190930192909101906109c1565b909150846000526020600020601f840160051c810160208510610a66575b90849392915b601f830160051c82018110610a57575050610745565b60008155859450600101610a41565b5080610a3b565b6040516382706ec560e01b8152fd5b60405163e6c4247b60e01b8152fd5b346101ef5760203660031901126101ef576020610aae610aa9610f31565b611308565b6040519015158152f35b50346101ef5760003660031901126101ef57604051908190805480845260208094019081926000527f8a35acfbc15ff81a39ae7d344fd709f28e8600b4aa8c65c6b64bfe7fe36bd19b9060005b86828210610b64578686610b1b82880383610fc9565b604051928392818401908285525180915260408401929160005b828110610b4457505050500390f35b83516001600160a01b031685528695509381019392810192600101610b35565b83546001600160a01b031685529093019260019283019201610b05565b50346101ef5760203660031901126101ef576101c8906001600160a01b03610ba7610f31565b166000526002602052604060002090610bbf82610feb565b91610bcc60018201610feb565b90600281015492610bfe60ff60058160038601541693850154940154169360405197889760c0895260c0890190611091565b936040860152151560608501526080840152151560a08301520390f35b50346101ef5760403660031901126101ef57610c35610f47565b336001600160a01b03821603610c4f5761026e9135611293565b5060405163334bd91960e11b8152fd5b50346101ef5760403660031901126101ef5761026e9035610c7e610f47565b90806000526000602052610c996001604060002001546111ef565b611215565b346101ef5760203660031901126101ef576001600160a01b03610cbf610f31565b1660005260026020526020604060002060ff6003820154169081610ce9575b506040519015158152f35b600291500154151582610cde565b50346101ef5760203660031901126101ef57610d11610f31565b610d19611175565b6001600160a01b031660008181526002602052604090206005015490919060ff161561047f5750806000526002602052600560406000200160ff198154169055600360205260406000206bffffffffffffffffffffffff60a01b81541690557ffa61478b1610e67febc7398840b9542af8c7261aacd616a1b32ea77d7d6378ff602060405160008152a2005b50346101ef5760203660031901126101ef573560005260006020526020600160406000200154604051908152f35b50346101ef5760403660031901126101ef57610ded610f31565b610df5610f47565b90610dfe611175565b60018060a01b0380911691826000526020916002835260ff6003604060002001541615610ecf57836000526002835260ff60056040600020015416610ebe5783947ffa61478b1610e67febc7398840b9542af8c7261aacd616a1b32ea77d7d6378ff94600052600284526005604060002001600160ff19825416179055610e836113bd565b9086600052600285526040600020015560038352604060002091166bffffffffffffffffffffffff60a01b82541617905560405160018152a2005b6040516382706ec560e01b81528590fd5b6040516282b42960e81b81528590fd5b82346101ef5760203660031901126101ef57359063ffffffff60e01b82168092036101ef57602091637965db0b60e01b8114908115610f20575b5015158152f35b6301ffc9a760e01b14905083610f19565b600435906001600160a01b03821682036101ef57565b602435906001600160a01b03821682036101ef57565b90600182811c92168015610f8d575b6020831014610f7757565b634e487b7160e01b600052602260045260246000fd5b91607f1691610f6c565b60c0810190811067ffffffffffffffff821117610fb357604052565b634e487b7160e01b600052604160045260246000fd5b90601f8019910116810190811067ffffffffffffffff821117610fb357604052565b9060405191826000825492610fff84610f5d565b90818452600194858116908160001461106e575060011461102b575b505061102992500383610fc9565b565b9093915060005260209081600020936000915b8183106110565750506110299350820101388061101b565b8554888401850152948501948794509183019161103e565b91505061102994506020925060ff191682840152151560051b820101388061101b565b919082519283825260005b8481106110bd575050826000602080949584010152601f8019910116010190565b60208183018101518483018201520161109c565b81601f820112156101ef5780359067ffffffffffffffff8211610fb35760405192611106601f8401601f191660200185610fc9565b828452602083830101116101ef57816000926020809301838601378301015290565b60045481101561115f5760046000527f8a35acfbc15ff81a39ae7d344fd709f28e8600b4aa8c65c6b64bfe7fe36bd19b0190600090565b634e487b7160e01b600052603260045260246000fd5b3360009081527f01ddc098da42acdf4176da08ec75800bc0fb2bce2be978b2037bcb0ae696651960205260409020547fedcc084d3dcd65a1f7f23c65c46722faca6953d28e43150a467cf43e5c3092389060ff16156111d15750565b6044906040519063e2517d3f60e01b82523360048301526024820152fd5b80600052600060205260406000203360005260205260ff60406000205416156111d15750565b9060009180835282602052604083209160018060a01b03169182845260205260ff6040842054161560001461128e57808352826020526040832082845260205260408320600160ff198254161790557f2f8788117e7eff1d82e926ec794901d17c78024a50270940304540a733656f0d339380a4600190565b505090565b9060009180835282602052604083209160018060a01b03169182845260205260ff60408420541660001461128e5780835282602052604083208284526020526040832060ff1981541690557ff6391f5c32d9c69d2a47ea670b442974b53935d1edc7fd64eb21e047a839171b339380a4600190565b60018060a01b03166000526002602052604060002060a060405161132b81610f97565b61133483610feb565b815261134260018401610feb565b6020820152600283015480604083015260ff6003850154161580159283606082015260ff60056004880154976080840198895201541615159485910152916113b4575b506113ad576113a7576113966113bd565b9051146113a257600190565b600090565b50600090565b5050600090565b90501538611385565b6107b26301e187e0420481018091116113d35790565b634e487b7160e01b600052601160045260246000fdfea2646970667358221220c585a1611561411718825cbdfd0277904c74c18dd99f5443a9778b8cb8ed858b64736f6c634300081400332f8788117e7eff1d82e926ec794901d17c78024a50270940304540a733656f0d",
  "linkReferences": {},
  "deployedLinkReferences": {}
}