{
  "_format": "hh-sol-artifact-1",
  "contractName": "NFTShareCertificate",
  "sourceName": "smart-contracts/contracts/NFTShareCertificate.sol",
  "abi": [
    {
      "inputs": [
        {
          "internalType": "string",
          "name": "name",
          "type": "string"
        },
        {
          "internalType": "string",
          "name": "symbol",
          "type": "string"
        },
        {
          "internalType": "string",
          "name": "baseTokenURI",
          "type": "string"
        }
      ],
      "stateMutability": "nonpayable",
      "type": "constructor"
    },
    {
      "inputs": [],
      "name": "AccessControlBadConfirmation",
      "type": "error"
    },
    {
      "inputs": [
        {
          "internalType": "address",
          "name": "account",
          "type": "address"
        },
        {
          "internalType": "bytes32",
          "name": "neededRole",
          "type": "bytes32"
        }
      ],
      "name": "AccessControlUnauthorizedAccount",
      "type": "error"
    },
    {
      "inputs": [
        {
          "internalType": "address",
          "name": "sender",
          "type": "address"
        },
        {
          "internalType": "uint256",
          "name": "tokenId",
          "type": "uint256"
        },
        {
          "internalType": "address",
          "name": "owner",
          "type": "address"
        }
      ],
      "name": "ERC721IncorrectOwner",
      "type": "error"
    },
    {
      "inputs": [
        {
          "internalType": "address",
          "name": "operator",
          "type": "address"
        },
        {
          "internalType": "uint256",
          "name": "tokenId",
          "type": "uint256"
        }
      ],
      "name": "ERC721InsufficientApproval",
      "type": "error"
    },
    {
      "inputs": [
        {
          "internalType": "address",
          "name": "approver",
          "type": "address"
        }
      ],
      "name": "ERC721InvalidApprover",
      "type": "error"
    },
    {
      "inputs": [
        {
          "internalType": "address",
          "name": "operator",
          "type": "address"
        }
      ],
      "name": "ERC721InvalidOperator",
      "type": "error"
    },
    {
      "inputs": [
        {
          "internalType": "address",
          "name": "owner",
          "type": "address"
        }
      ],
      "name": "ERC721InvalidOwner",
      "type": "error"
    },
    {
      "inputs": [
        {
          "internalType": "address",
          "name": "receiver",
          "type": "address"
        }
      ],
      "name": "ERC721InvalidReceiver",
      "type": "error"
    },
    {
      "inputs": [
        {
          "internalType": "address",
          "name": "sender",
          "type": "address"
        }
      ],
      "name": "ERC721InvalidSender",
      "type": "error"
    },
    {
      "inputs": [
        {
          "internalType": "uint256",
          "name": "tokenId",
          "type": "uint256"
        }
      ],
      "name": "ERC721NonexistentToken",
      "type": "error"
    },
    {
      "inputs": [],
      "name": "ReentrancyGuardReentrantCall",
      "type": "error"
    },
    {
      "anonymous": false,
      "inputs": [
        {
          "indexed": true,
          "internalType": "address",
          "name": "owner",
          "type": "address"
        },
        {
          "indexed": true,
          "internalType": "address",
          "name": "approved",
          "type": "address"
        },
        {
          "indexed": true,
          "internalType": "uint256",
          "name": "tokenId",
          "type": "uint256"
        }
      ],
      "name": "Approval",
      "type": "event"
    },
    {
      "anonymous": false,
      "inputs": [
        {
          "indexed": true,
          "internalType": "address",
          "name": "owner",
          "type": "address"
        },
        {
          "indexed": true,
          "internalType": "address",
          "name": "operator",
          "type": "address"
        },
        {
          "indexed": false,
          "internalType": "bool",
          "name": "approved",
          "type": "bool"
        }
      ],
      "name": "ApprovalForAll",
      "type": "event"
    },
    {
      "anonymous": false,
      "inputs": [
        {
          "indexed": false,
          "internalType": "string",
          "name": "newBaseURI",
          "type": "string"
        }
      ],
      "name": "BaseURIUpdated",
      "type": "event"
    },
    {
      "anonymous": false,
      "inputs": [
        {
          "indexed": false,
          "internalType": "uint256",
          "name": "_fromTokenId",
          "type": "uint256"
        },
        {
          "indexed": false,
          "internalType": "uint256",
          "name": "_toTokenId",
          "type": "uint256"
        }
      ],
      "name": "BatchMetadataUpdate",
      "type": "event"
    },
    {
      "anonymous": false,
      "inputs": [
        {
          "indexed": true,
          "internalType": "uint256",
          "name": "tokenId",
          "type": "uint256"
        },
        {
          "indexed": true,
          "internalType": "address",
          "name": "owner",
          "type": "address"
        },
        {
          "indexed": false,
          "internalType": "string",
          "name": "campaignId",
          "type": "string"
        },
        {
          "indexed": false,
          "internalType": "uint256",
          "name": "investmentAmount",
          "type": "uint256"
        },
        {
          "indexed": false,
          "internalType": "uint256",
          "name": "shareCount",
          "type": "uint256"
        }
      ],
      "name": "CertificateIssued",
      "type": "event"
    },
    {
      "anonymous": false,
      "inputs": [
        {
          "indexed": true,
          "internalType": "uint256",
          "name": "tokenId",
          "type": "uint256"
        },
        {
          "indexed": false,
          "internalType": "string",
          "name": "reason",
          "type": "string"
        }
      ],
      "name": "CertificateRevoked",
      "type": "event"
    },
    {
      "anonymous": false,
      "inputs": [
        {
          "indexed": false,
          "internalType": "uint256",
          "name": "_tokenId",
          "type": "uint256"
        }
      ],
      "name": "MetadataUpdate",
      "type": "event"
    },
    {
      "anonymous": false,
      "inputs": [
        {
          "indexed": true,
          "internalType": "bytes32",
          "name": "role",
          "type": "bytes32"
        },
        {
          "indexed": true,
          "internalType": "bytes32",
          "name": "previousAdminRole",
          "type": "bytes32"
        },
        {
          "indexed": true,
          "internalType": "bytes32",
          "name": "newAdminRole",
          "type": "bytes32"
        }
      ],
      "name": "RoleAdminChanged",
      "type": "event"
    },
    {
      "anonymous": false,
      "inputs": [
        {
          "indexed": true,
          "internalType": "bytes32",
          "name": "role",
          "type": "bytes32"
        },
        {
          "indexed": true,
          "internalType": "address",
          "name": "account",
          "type": "address"
        },
        {
          "indexed": true,
          "internalType": "address",
          "name": "sender",
          "type": "address"
        }
      ],
      "name": "RoleGranted",
      "type": "event"
    },
    {
      "anonymous": false,
      "inputs": [
        {
          "indexed": true,
          "internalType": "bytes32",
          "name": "role",
          "type": "bytes32"
        },
        {
          "indexed": true,
          "internalType": "address",
          "name": "account",
          "type": "address"
        },
        {
          "indexed": true,
          "internalType": "address",
          "name": "sender",
          "type": "address"
        }
      ],
      "name": "RoleRevoked",
      "type": "event"
    },
    {
      "anonymous": false,
      "inputs": [
        {
          "indexed": true,
          "internalType": "address",
          "name": "from",
          "type": "address"
        },
        {
          "indexed": true,
          "internalType": "address",
          "name": "to",
          "type": "address"
        },
        {
          "indexed": true,
          "internalType": "uint256",
          "name": "tokenId",
          "type": "uint256"
        }
      ],
      "name": "Transfer",
      "type": "event"
    },
    {
      "inputs": [],
      "name": "ADMIN_ROLE",
      "outputs": [
        {
          "internalType": "bytes32",
          "name": "",
          "type": "bytes32"
        }
      ],
      "stateMutability": "view",
      "type": "function"
    },
    {
      "inputs": [],
      "name": "DEFAULT_ADMIN_ROLE",
      "outputs": [
        {
          "internalType": "bytes32",
          "name": "",
          "type": "bytes32"
        }
      ],
      "stateMutability": "view",
      "type": "function"
    },
    {
      "inputs": [],
      "name": "MINTER_ROLE",
      "outputs": [
        {
          "internalType": "bytes32",
          "name": "",
          "type": "bytes32"
        }
      ],
      "stateMutability": "view",
      "type": "function"
    },
    {
      "inputs": [
        {
          "internalType": "address",
          "name": "to",
          "type": "address"
        },
        {
          "internalType": "uint256",
          "name": "tokenId",
          "type": "uint256"
        }
      ],
      "name": "approve",
      "outputs": [],
      "stateMutability": "nonpayable",
      "type": "function"
    },
    {
      "inputs": [
        {
          "internalType": "address",
          "name": "owner",
          "type": "address"
        }
      ],
      "name": "balanceOf",
      "outputs": [
        {
          "internalType": "uint256",
          "name": "",
          "type": "uint256"
        }
      ],
      "stateMutability": "view",
      "type": "function"
    },
    {
      "inputs": [
        {
          "internalType": "string",
          "name": "",
          "type": "string"
        },
        {
          "internalType": "uint256",
          "name": "",
          "type": "uint256"
        }
      ],
      "name": "campaignCertificates",
      "outputs": [
        {
          "internalType": "uint256",
          "name": "",
          "type": "uint256"
        }
      ],
      "stateMutability": "view",
      "type": "function"
    },
    {
      "inputs": [
        {
          "internalType": "uint256",
          "name": "",
          "type": "uint256"
        }
      ],
      "name": "certificates",
      "outputs": [
        {
          "internalType": "string",
          "name": "campaignId",
          "type": "string"
        },
        {
          "internalType": "string",
          "name": "companyName",
          "type": "string"
        },
        {
          "internalType": "uint256",
          "name": "investmentAmount",
          "type": "uint256"
        },
        {
          "internalType": "uint256",
          "name": "shareCount",
          "type": "uint256"
        },
        {
          "internalType": "uint256",
          "name": "votingPower",
          "type": "uint256"
        },
        {
          "internalType": "uint256",
          "name": "issuedAt",
          "type": "uint256"
        },
        {
          "internalType": "bool",
          "name": "isActive",
          "type": "bool"
        }
      ],
      "stateMutability": "view",
      "type": "function"
    },
    {
      "inputs": [
        {
          "internalType": "uint256",
          "name": "tokenId",
          "type": "uint256"
        }
      ],
      "name": "getApproved",
      "outputs": [
        {
          "internalType": "address",
          "name": "",
          "type": "address"
        }
      ],
      "stateMutability": "view",
      "type": "function"
    },
    {
      "inputs": [
        {
          "internalType": "uint256",
          "name": "tokenId",
          "type": "uint256"
        }
      ],
      "name": "getCertificate",
      "outputs": [
        {
          "components": [
            {
              "internalType": "string",
              "name": "campaignId",
              "type": "string"
            },
            {
              "internalType": "string",
              "name": "companyName",
              "type": "string"
            },
            {
              "internalType": "uint256",
              "name": "investmentAmount",
              "type": "uint256"
            },
            {
              "internalType": "uint256",
              "name": "shareCount",
              "type": "uint256"
            },
            {
              "internalType": "uint256",
              "name": "votingPower",
              "type": "uint256"
            },
            {
              "internalType": "uint256",
              "name": "issuedAt",
              "type": "uint256"
            },
            {
              "internalType": "bool",
              "name": "isActive",
              "type": "bool"
            }
          ],
          "internalType": "struct NFTShareCertificate.ShareCertificate",
          "name": "",
          "type": "tuple"
        }
      ],
      "stateMutability": "view",
      "type": "function"
    },
    {
      "inputs": [
        {
          "internalType": "string",
          "name": "campaignId",
          "type": "string"
        }
      ],
      "name": "getCertificatesByCampaign",
      "outputs": [
        {
          "internalType": "uint256[]",
          "name": "",
          "type": "uint256[]"
        }
      ],
      "stateMutability": "view",
      "type": "function"
    },
    {
      "inputs": [
        {
          "internalType": "address",
          "name": "owner",
          "type": "address"
        }
      ],
      "name": "getCertificatesByOwner",
      "outputs": [
        {
          "internalType": "uint256[]",
          "name": "",
          "type": "uint256[]"
        }
      ],
      "stateMutability": "view",
      "type": "function"
    },
    {
      "inputs": [],
      "name": "getCurrentTokenId",
      "outputs": [
        {
          "internalType": "uint256",
          "name": "",
          "type": "uint256"
        }
      ],
      "stateMutability": "view",
      "type": "function"
    },
    {
      "inputs": [
        {
          "internalType": "bytes32",
          "name": "role",
          "type": "bytes32"
        }
      ],
      "name": "getRoleAdmin",
      "outputs": [
        {
          "internalType": "bytes32",
          "name": "",
          "type": "bytes32"
        }
      ],
      "stateMutability": "view",
      "type": "function"
    },
    {
      "inputs": [
        {
          "internalType": "address",
          "name": "owner",
          "type": "address"
        }
      ],
      "name": "getVotingPower",
      "outputs": [
        {
          "internalType": "uint256",
          "name": "",
          "type": "uint256"
        }
      ],
      "stateMutability": "view",
      "type": "function"
    },
    {
      "inputs": [
        {
          "internalType": "bytes32",
          "name": "role",
          "type": "bytes32"
        },
        {
          "internalType": "address",
          "name": "account",
          "type": "address"
        }
      ],
      "name": "grantRole",
      "outputs": [],
      "stateMutability": "nonpayable",
      "type": "function"
    },
    {
      "inputs": [
        {
          "internalType": "bytes32",
          "name": "role",
          "type": "bytes32"
        },
        {
          "internalType": "address",
          "name": "account",
          "type": "address"
        }
      ],
      "name": "hasRole",
      "outputs": [
        {
          "internalType": "bool",
          "name": "",
          "type": "bool"
        }
      ],
      "stateMutability": "view",
      "type": "function"
    },
    {
      "inputs": [
        {
          "internalType": "address",
          "name": "owner",
          "type": "address"
        },
        {
          "internalType": "address",
          "name": "operator",
          "type": "address"
        }
      ],
      "name": "isApprovedForAll",
      "outputs": [
        {
          "internalType": "bool",
          "name": "",
          "type": "bool"
        }
      ],
      "stateMutability": "view",
      "type": "function"
    },
    {
      "inputs": [
        {
          "internalType": "address",
          "name": "to",
          "type": "address"
        },
        {
          "internalType": "string",
          "name": "campaignId",
          "type": "string"
        },
        {
          "internalType": "string",
          "name": "companyName",
          "type": "string"
        },
        {
          "internalType": "uint256",
          "name": "investmentAmount",
          "type": "uint256"
        },
        {
          "internalType": "uint256",
          "name": "shareCount",
          "type": "uint256"
        },
        {
          "internalType": "string",
          "name": "tokenURI",
          "type": "string"
        }
      ],
      "name": "issueCertificate",
      "outputs": [
        {
          "internalType": "uint256",
          "name": "",
          "type": "uint256"
        }
      ],
      "stateMutability": "nonpayable",
      "type": "function"
    },
    {
      "inputs": [],
      "name": "name",
      "outputs": [
        {
          "internalType": "string",
          "name": "",
          "type": "string"
        }
      ],
      "stateMutability": "view",
      "type": "function"
    },
    {
      "inputs": [
        {
          "internalType": "address",
          "name": "",
          "type": "address"
        },
        {
          "internalType": "uint256",
          "name": "",
          "type": "uint256"
        }
      ],
      "name": "ownerCertificates",
      "outputs": [
        {
          "internalType": "uint256",
          "name": "",
          "type": "uint256"
        }
      ],
      "stateMutability": "view",
      "type": "function"
    },
    {
      "inputs": [
        {
          "internalType": "uint256",
          "name": "tokenId",
          "type": "uint256"
        }
      ],
      "name": "ownerOf",
      "outputs": [
        {
          "internalType": "address",
          "name": "",
          "type": "address"
        }
      ],
      "stateMutability": "view",
      "type": "function"
    },
    {
      "inputs": [
        {
          "internalType": "address",
          "name": "minter",
          "type": "address"
        }
      ],
      "name": "removeAuthorizedMinter",
      "outputs": [],
      "stateMutability": "nonpayable",
      "type": "function"
    },
    {
      "inputs": [
        {
          "internalType": "bytes32",
          "name": "role",
          "type": "bytes32"
        },
        {
          "internalType": "address",
          "name": "callerConfirmation",
          "type": "address"
        }
      ],
      "name": "renounceRole",
      "outputs": [],
      "stateMutability": "nonpayable",
      "type": "function"
    },
    {
      "inputs": [
        {
          "internalType": "uint256",
          "name": "tokenId",
          "type": "uint256"
        },
        {
          "internalType": "string",
          "name": "reason",
          "type": "string"
        }
      ],
      "name": "revokeCertificate",
      "outputs": [],
      "stateMutability": "nonpayable",
      "type": "function"
    },
    {
      "inputs": [
        {
          "internalType": "bytes32",
          "name": "role",
          "type": "bytes32"
        },
        {
          "internalType": "address",
          "name": "account",
          "type": "address"
        }
      ],
      "name": "revokeRole",
      "outputs": [],
      "stateMutability": "nonpayable",
      "type": "function"
    },
    {
      "inputs": [
        {
          "internalType": "address",
          "name": "from",
          "type": "address"
        },
        {
          "internalType": "address",
          "name": "to",
          "type": "address"
        },
        {
          "internalType": "uint256",
          "name": "tokenId",
          "type": "uint256"
        }
      ],
      "name": "safeTransferFrom",
      "outputs": [],
      "stateMutability": "nonpayable",
      "type": "function"
    },
    {
      "inputs": [
        {
          "internalType": "address",
          "name": "from",
          "type": "address"
        },
        {
          "internalType": "address",
          "name": "to",
          "type": "address"
        },
        {
          "internalType": "uint256",
          "name": "tokenId",
          "type": "uint256"
        },
        {
          "internalType": "bytes",
          "name": "data",
          "type": "bytes"
        }
      ],
      "name": "safeTransferFrom",
      "outputs": [],
      "stateMutability": "nonpayable",
      "type": "function"
    },
    {
      "inputs": [
        {
          "internalType": "address",
          "name": "operator",
          "type": "address"
        },
        {
          "internalType": "bool",
          "name": "approved",
          "type": "bool"
        }
      ],
      "name": "setApprovalForAll",
      "outputs": [],
      "stateMutability": "nonpayable",
      "type": "function"
    },
    {
      "inputs": [
        {
          "internalType": "address",
          "name": "minter",
          "type": "address"
        }
      ],
      "name": "setAuthorizedMinter",
      "outputs": [],
      "stateMutability": "nonpayable",
      "type": "function"
    },
    {
      "inputs": [
        {
          "internalType": "string",
          "name": "newBaseURI",
          "type": "string"
        }
      ],
      "name": "setBaseURI",
      "outputs": [],
      "stateMutability": "nonpayable",
      "type": "function"
    },
    {
      "inputs": [
        {
          "internalType": "bytes4",
          "name": "interfaceId",
          "type": "bytes4"
        }
      ],
      "name": "supportsInterface",
      "outputs": [
        {
          "internalType": "bool",
          "name": "",
          "type": "bool"
        }
      ],
      "stateMutability": "view",
      "type": "function"
    },
    {
      "inputs": [],
      "name": "symbol",
      "outputs": [
        {
          "internalType": "string",
          "name": "",
          "type": "string"
        }
      ],
      "stateMutability": "view",
      "type": "function"
    },
    {
      "inputs": [
        {
          "internalType": "uint256",
          "name": "tokenId",
          "type": "uint256"
        }
      ],
      "name": "tokenURI",
      "outputs": [
        {
          "internalType": "string",
          "name": "",
          "type": "string"
        }
      ],
      "stateMutability": "view",
      "type": "function"
    },
    {
      "inputs": [
        {
          "internalType": "address",
          "name": "from",
          "type": "address"
        },
        {
          "internalType": "address",
          "name": "to",
          "type": "address"
        },
        {
          "internalType": "uint256",
          "name": "tokenId",
          "type": "uint256"
        }
      ],
      "name": "transferFrom",
      "outputs": [],
      "stateMutability": "nonpayable",
      "type": "function"
    }
  ],
  "bytecode": "0x608060405234620004a2576200306a803803806200001d81620004a7565b9283398101606082820312620004a25781516001600160401b039190828111620004a257816200004f918501620004cd565b9060209384810151848111620004a257826200006d918301620004cd565b916040820151858111620004a257620000879201620004cd565b8251918483116200048c576000908154936001958686811c9616801562000481575b898710146200038b578190601f968781116200042e575b508990878311600114620003ca578592620003be575b5050600019600383901b1c191690861b1782555b805190868211620003aa5785548681811c911680156200039f575b898210146200038b5790818684931162000338575b508890868311600114620002d4578492620002c8575b5050600019600383901b1c191690851b1784555b8360085562000153336200053f565b506200015f33620005c0565b506200016b3362000663565b508151948511620002b457600d548481811c91168015620002a9575b8782101462000295578381116200024c575b5085928511600114620001e3579394508492919083620001d7575b50501b916000199060031b1c191617600d555b6040516129489081620007028239f35b015192503880620001b4565b600d815285812093958591601f198316915b8883831062000231575050501062000217575b505050811b01600d55620001c7565b015160001960f88460031b161c1916905538808062000208565b858701518855909601959485019487935090810190620001f5565b600d82528682208480880160051c8201928989106200028b575b0160051c019085905b8281106200027f57505062000199565b8381550185906200026f565b9250819262000266565b634e487b7160e01b82526022600452602482fd5b90607f169062000187565b634e487b7160e01b81526041600452602490fd5b01519050388062000130565b8785528985208894509190601f198416865b8c82821062000321575050841162000307575b505050811b01845562000144565b015160001960f88460031b161c19169055388080620002f9565b8385015186558b97909501949384019301620002e6565b9091508684528884208680850160051c8201928b861062000381575b918991869594930160051c01915b828110620003725750506200011a565b86815585945089910162000362565b9250819262000354565b634e487b7160e01b84526022600452602484fd5b90607f169062000105565b634e487b7160e01b83526041600452602483fd5b015190503880620000d6565b8580528a86208994509190601f198416875b8d828210620004175750508411620003fd575b505050811b018255620000ea565b015160001960f88460031b161c19169055388080620003ef565b8385015186558c97909501949384019301620003dc565b9091508480528985208780850160051c8201928c861062000477575b918a91869594930160051c01915b82811062000468575050620000c0565b8781558594508a910162000458565b925081926200044a565b95607f1695620000a9565b634e487b7160e01b600052604160045260246000fd5b600080fd5b6040519190601f01601f191682016001600160401b038111838210176200048c57604052565b919080601f84011215620004a25782516001600160401b0381116200048c5760209062000503601f8201601f19168301620004a7565b92818452828287010111620004a25760005b8181106200052b57508260009394955001015290565b858101830151848201840152820162000515565b6001600160a01b031660008181527f6d5257204ebe7d88fd91ae87941cb2dd9d8062b64ae5a2bd2d28ec40b9fbf6df602052604081205490919060ff16620005bc5781805260076020526040822081835260205260408220600160ff1982541617905533916000805160206200304a8339815191528180a4600190565b5090565b6001600160a01b031660008181527fa70365933f78520ef41d6645ba61e509916296603327302d41466c063e8e260860205260408120549091907fa49807205ce4d355092ef5a8a18f56e8913cf4a201fbe287825b095693c217759060ff166200065e5780835260076020526040832082845260205260408320600160ff198254161790556000805160206200304a833981519152339380a4600190565b505090565b6001600160a01b031660008181527fa4bfd7afe708e2e87e7f0e2ad9b4d545417e0f795f57b5c5ab5d799c565a04f460205260408120549091907f9f2df0fed2c77648de5860a4cc508cd0818c85b8b8a1ab4ceeef8d981c8956a69060ff166200065e5780835260076020526040832082845260205260408320600160ff198254161790556000805160206200304a833981519152339380a460019056fe608080604052600436101561001357600080fd5b60003560e01c90816301ffc9a714611b385750806306fdde0314611a95578063081812fc14611a57578063095ea7b3146119705780631928b7c3146119475780631db73840146118cf57806323b872dd146118b8578063248a9ca3146118895780632f2ff15d1461184a57806336568abe1461180357806342842e0e146117d5578063475ae039146117ac57806351640fee1461166e57806355f804b31461149c578063561892361461147e5780636352211e1461144e578063663b3e22146113b057806368ad321d1461089657806370a082311461083d57806375b238fc14610802578063917bb1c1146107b857806391d148541461076b57806395d89b41146106a0578063a217fddf14610684578063a22cb465146105d6578063b1466d1d14610522578063b88d4fde146104b7578063bb4d4436146103b1578063c0c93bb31461030a578063c0da67d314610291578063c87b56dd1461025a578063d539139314610231578063d547741f146101f05763e985e9c51461019557600080fd5b346101eb5760403660031901126101eb576101ae611c1f565b6101b6611c35565b9060018060a01b03809116600052600560205260406000209116600052602052602060ff604060002054166040519015158152f35b600080fd5b346101eb5760403660031901126101eb5761022f60043561020f611c35565b9080600052600760205261022a600160406000200154611fa8565b612184565b005b346101eb5760003660031901126101eb5760206040516000805160206128f38339815191528152f35b346101eb5760203660031901126101eb5761028d610279600435612711565b604051918291602083526020830190611bfa565b0390f35b346101eb5760403660031901126101eb576004356001600160401b0381116101eb576102c1903690600401611d64565b6102dd6020602435928160405193828580945193849201611bd7565b8101600c81520301902080548210156101eb576020916102fc91611f1e565b90546040519160031b1c8152f35b346101eb576020806003193601126101eb576004356001600160401b0381116101eb578161033f610352923690600401611d64565b8160405193828580945193849201611bd7565b8101600c81520301902090604051908181845491828152019360005281600020916000905b82821061039a5761028d8561038e81890382611cf1565b60405191829182611c4b565b835486529485019460019384019390910190610377565b346101eb576020806003193601126101eb576103cb611c1f565b9060009160018060a01b0316600052600b81526040600020604051808284829454938481520190600052846000209260005b868282106104a15750505061041492500382611cf1565b60005b81518110156104975761042a81836126bc565b51600052600a80845260ff60066040600020015416610453575b5061044e90612639565b610417565b61046082849693966126bc565b5160005283526004604060002001548101809111610481579261044e610444565b634e487b7160e01b600052601160045260246000fd5b8284604051908152f35b85548452600195860195879550930192016103fd565b346101eb5760803660031901126101eb576104d0611c1f565b6104d8611c35565b90604435606435926001600160401b0384116101eb57366023850112156101eb5761051061022f943690602481600401359101611d2d565b9261051c8383836121fb565b336124eb565b346101eb5760403660031901126101eb576004356024356001600160401b0381116101eb576105d16105797f65032d3cc955c731f4c2a4178f663dbcc6c08e5163bad5a3149773f3894548d3923690600401611d64565b610581611f4c565b6000848152600260205260409020546105a4906001600160a01b03161515612670565b83600052600a602052600660406000200160ff198154169055604051918291602083526020830190611bfa565b0390a2005b346101eb5760403660031901126101eb576105ef611c1f565b60243590811515908183036101eb576001600160a01b031691821561066b5761063d9033600052600560205260406000208460005260205260406000209060ff801983541691151516179055565b6040519081527f17307eab39ab6107e8899845ad3d59bd9653f200f220920489ca2b5937696c3160203392a3005b604051630b61174360e31b815260048101849052602490fd5b346101eb5760003660031901126101eb57602060405160008152f35b346101eb5760003660031901126101eb57604051600060018054906106c482611d82565b8085529181811690811561074457506001146106eb575b61028d8461027981860382611cf1565b600081815292507fb10e2d527612073b26eecdfd717e6a320cf44b4afac2b0732d9fcbe2b7fa0cf65b82841061072c575050508101602001610279826106db565b80546020858701810191909152909301928101610714565b60ff191660208087019190915292151560051b8501909201925061027991508390506106db565b346101eb5760403660031901126101eb57610784611c35565b600435600052600760205260406000209060018060a01b0316600052602052602060ff604060002054166040519015158152f35b346101eb5760403660031901126101eb576107d1611c1f565b6001600160a01b03166000908152600b60205260409020805460243591908210156101eb576020916102fc91611f1e565b346101eb5760003660031901126101eb5760206040517fa49807205ce4d355092ef5a8a18f56e8913cf4a201fbe287825b095693c217758152f35b346101eb5760203660031901126101eb576001600160a01b0361085e611c1f565b16801561087d5760005260036020526020604060002054604051908152f35b6040516322718ad960e21b815260006004820152602490fd5b346101eb5760c03660031901126101eb576108af611c1f565b6024356001600160401b0381116101eb576108ce903690600401611d64565b906044356001600160401b0381116101eb576108ee903690600401611d64565b60a4356001600160401b0381116101eb5761090d903690600401611d64565b3360009081527fa4bfd7afe708e2e87e7f0e2ad9b4d545417e0f795f57b5c5ab5d799c565a04f460205260409020549092906000805160206128f38339815191529060ff161561139257506002600854146113805760026008556001600160a01b0381161561133b578351156112ff578151156112c25760643515611272576084351561122d5761099f600954612639565b9182600955683635c9adc5dea00000606435048015611225575b604051916109c683611cbb565b86835260208301526064356040830152608435606083015260808201524260a0820152600160c082015282600052600a60205260406000209080518051906001600160401b038211610de5578190610a1e8554611d82565b601f81116111d5575b50602090601f83116001146111695760009261115e575b50508160011b916000199060031b1c19161782555b60208101518051906001600160401b038211610de557610a766001850154611d82565b601f8111611117575b50602090601f831160011461109e57928260069360c093610afa9796600092611093575b50508160011b916000199060031b1c19161760018501555b60408101516002850155606081015160038501556080810151600485015560a081015160058501550151151591019060ff801983541691151516179055565b60018060a01b038116600052600b602052610b19826040600020612648565b610b41826040516020818851610b328183858d01611bd7565b8101600c815203019020612648565b60405192610b4e84611cd6565b6000808552838152600260205260409020546001600160a01b03168015158061108b575b610f89575b5090919283600052600260205260018060a01b0360406000205416848115159182610f52575b6001600160a01b0386166000818152600360209081526040808320805460010190558583526002909152812080546001600160a01b031916831790559091907fddf252ad1be2c89b69c2b068fc378daa952ba7f163c4a11628f55a4df523b3ef9080a4610f3957823b610dfb575b508260005260066020526040600020908051906001600160401b038211610de557610c368354611d82565b601f8111610d9d575b50916020959185938790601f8311600114610d0e579180610cd894927f0b520667c5b31a44de89890d3d4b8a91ed75baa75cab5110d43b2c7d2cd0ec6e9694600092610d03575b50508160011b916000199060031b1c19161790555b7ff8e1a15aba9398e019f0b49df1a4fde98ee17ae345cb5f6b5e2c27f5033e8ce787604051868152a1604051918291606083526060830190611bfa565b6064358289015260843560408301526001600160a01b03909516940390a36001600855604051908152f35b015190508a80610c86565b90601f1983169184600052896000209260005b818110610d8357509260019285927f0b520667c5b31a44de89890d3d4b8a91ed75baa75cab5110d43b2c7d2cd0ec6e9896610cd8989610610d6a575b505050811b019055610c9b565b015160001960f88460031b161c191690558a8080610d5d565b8284015185558a9850600190940193928b01928b01610d21565b836000526020600020601f840160051c81019160208510610ddb575b601f0160051c01905b818110610dcf5750610c3f565b60008155600101610dc2565b9091508190610db9565b634e487b7160e01b600052604160045260246000fd5b6040949392945160208180610e39630a85bd0160e11b9586835233600484015260006024840152886044840152608060648401526084830190611bfa565b038160006001600160a01b038b165af160009181610ef4575b50610eba57853d15610eb2573d90610e6982611d12565b91610e776040519384611cf1565b82523d6000602084013e5b81519182610eab57604051633250574960e11b81526001600160a01b0383166004820152602490fd5b6020915001fd5b606090610e82565b939492936001600160e01b03191603610ed35784610c0b565b604051633250574960e11b81526001600160a01b0383166004820152602490fd5b9091506020813d602011610f31575b81610f1060209383611cf1565b810103126101eb57516001600160e01b0319811681036101eb579087610e52565b3d9150610f03565b6040516339e3563760e11b815260006004820152602490fd5b600082815260046020526040902080546001600160a01b031916905580600052600360205260406000206000198154019055610b9d565b600052600b60205260406000209360005b85548082101561107f5785610faf8389611f1e565b90549060031b1c14610fca5750610fc590612639565b610f9a565b90600096929394959619820191821161048157610ffb610fed6110149385611f1e565b90549060031b1c9184611f1e565b90919082549060031b91821b91600019901b1916179055565b8054801561106957600019019061103f61102e8383611f1e565b8154906000199060031b1b19169055565b555b60018060a01b038316600052600b602052611060846040600020612648565b92919085610b77565b634e487b7160e01b600052603160045260246000fd5b50509091929350611041565b506001610b72565b015190508b80610aa3565b906001850160005260206000209160005b601f19851681106110ff57508360c093610afa979693600193600697601f198116106110e6575b505050811b016001850155610abb565b015160001960f88460031b161c191690558b80806110d6565b919260206001819286850151815501940192016110af565b600185016000526020600020601f840160051c810160208510611157575b601f830160051c8201811061114b575050610a7f565b60008155600101611135565b5080611135565b015190508880610a3e565b9250846000526020600020906000935b601f19841685106111ba576001945083601f198116106111a1575b505050811b018255610a53565b015160001960f88460031b161c19169055888080611194565b81810151835560209485019460019093019290910190611179565b909150846000526020600020601f840160051c81016020851061121e575b90849392915b601f830160051c8201811061120f575050610a27565b600081558594506001016111f9565b50806111f3565b5060016109b9565b60405162461bcd60e51b815260206004820152601c60248201527f536861726520636f756e74206d75737420626520706f736974697665000000006044820152606490fd5b60405162461bcd60e51b815260206004820152602260248201527f496e766573746d656e7420616d6f756e74206d75737420626520706f73697469604482015261766560f01b6064820152608490fd5b60405162461bcd60e51b815260206004820152601560248201527410dbdb5c185b9e481b985b59481c995c5d5a5c9959605a1b6044820152606490fd5b60405162461bcd60e51b815260206004820152601460248201527310d85b5c185a59db881251081c995c5d5a5c995960621b6044820152606490fd5b60405162461bcd60e51b815260206004820152601b60248201527f43616e6e6f74206d696e7420746f207a65726f206164647265737300000000006044820152606490fd5b604051633ee5aeb560e01b8152600490fd5b6044906040519063e2517d3f60e01b82523360048301526024820152fd5b346101eb5760203660031901126101eb57600435600052600a60205261142060406000206113dd81611e7a565b906113ea60018201611e7a565b600282015491600381015460048201549061142e60ff60066005860154950154169460405198899860e08a5260e08a0190611bfa565b9088820360208a0152611bfa565b9460408701526060860152608085015260a0840152151560c08301520390f35b346101eb5760203660031901126101eb57602061146c6004356124b0565b6040516001600160a01b039091168152f35b346101eb5760003660031901126101eb576020600954604051908152f35b346101eb576020806003193601126101eb576001600160401b03906004358281116101eb576114cf903690600401611d64565b906114d8611f4c565b8151928311610de5576114ec600d54611d82565b601f811161160a575b508092601f811160011461156757807f6741b2fc379fad678116fe3d4d4b9a1a184ab53ba36b86ad0fa66340b1ab41ad9460009161155c575b508160011b916000199060031b1c191617600d555b611557604051928284938452830190611bfa565b0390a1005b90508301518561152e565b601f19811693600d6000527fd7b6990105719101dabeb77144f2a3385c8033acd3af97e9423a695e81ad1eb59460005b8181106115f357509482916001937f6741b2fc379fad678116fe3d4d4b9a1a184ab53ba36b86ad0fa66340b1ab41ad97106115da575b5050811b01600d55611543565b85015160001960f88460031b161c1916905585806115cd565b858301518755600190960195918401918401611597565b600d6000527fd7b6990105719101dabeb77144f2a3385c8033acd3af97e9423a695e81ad1eb5601f850160051c810191838610611664575b601f0160051c01905b81811061165857506114f5565b6000815560010161164b565b9091508190611642565b346101eb576020806003193601126101eb5760e090600435600060c060405161169681611cbb565b606081526060858201528260408201528260608201528260808201528260a0820152015280600052600282526116da60018060a01b03604060002054161515612670565b600052600a81526040600020604051916116f383611cbb565b6116fc82611e7a565b835261170a60018301611e7a565b91818401928352600281015492604085019384526003820154606086019081526117876004840154926080880193845261177460ff600660058801549760a08c019889520154169660c08a0197151588526040519a8b9a828c5251918b01526101008a0190611bfa565b9051888203601f190160408a0152611bfa565b945160608701525160808601525160a08501525160c084015251151560e08301520390f35b346101eb5760203660031901126101eb5761022f6117c8611c1f565b6117d0611f4c565b6120ea565b346101eb5761022f6117e636611c86565b90604051926117f484611cd6565b6000845261051c8383836121fb565b346101eb5760403660031901126101eb5761181c611c35565b336001600160a01b038216036118385761022f90600435612184565b60405163334bd91960e11b8152600490fd5b346101eb5760403660031901126101eb5761022f600435611869611c35565b90806000526007602052611884600160406000200154611fa8565b61206f565b346101eb5760203660031901126101eb5760043560005260076020526020600160406000200154604051908152f35b346101eb5761022f6118c936611c86565b916121fb565b346101eb576020806003193601126101eb576001600160a01b036118f1611c1f565b16600052600b8152604060002090604051908181845491828152019360005281600020916000905b8282106119305761028d8561038e81890382611cf1565b835486529485019460019384019390910190611919565b346101eb5760203660031901126101eb5761022f611963611c1f565b61196b611f4c565b611fce565b346101eb5760403660031901126101eb57611989611c1f565b602435611995816124b0565b33151580611a44575b80611a17575b6119ff576001600160a01b039283169282918491167f8c5be1e5ebec7d5bd14f71427d1e84f3dd0314c0f7b2291e5b200ac8c7c3b925600080a4600090815260046020526040902080546001600160a01b0319169091179055005b60405163a9fbf51f60e01b8152336004820152602490fd5b5060018060a01b038116600052600560205260406000203360005260205260ff60406000205416156119a4565b506001600160a01b03811633141561199e565b346101eb5760203660031901126101eb57600435611a74816124b0565b506000526004602052602060018060a01b0360406000205416604051908152f35b346101eb5760003660031901126101eb5760405160008054611ab681611d82565b808452906001908181169081156107445750600114611adf5761028d8461027981860382611cf1565b600080805292507f290decd9548b62a8d60345a988386fc84ba6bc95484008f6362f93160ef3e5635b828410611b20575050508101602001610279826106db565b80546020858701810191909152909301928101611b08565b346101eb5760203660031901126101eb576004359063ffffffff60e01b82168092036101eb57602091637965db0b60e01b8114908115611b7a575b5015158152f35b632483248360e11b811491508115611b94575b5083611b73565b6380ac58cd60e01b811491508115611bc6575b8115611bb5575b5083611b8d565b6301ffc9a760e01b14905083611bae565b635b5e139f60e01b81149150611ba7565b60005b838110611bea5750506000910152565b8181015183820152602001611bda565b90602091611c1381518092818552858086019101611bd7565b601f01601f1916010190565b600435906001600160a01b03821682036101eb57565b602435906001600160a01b03821682036101eb57565b6020908160408183019282815285518094520193019160005b828110611c72575050505090565b835185529381019392810192600101611c64565b60609060031901126101eb576001600160a01b039060043582811681036101eb579160243590811681036101eb579060443590565b60e081019081106001600160401b03821117610de557604052565b602081019081106001600160401b03821117610de557604052565b90601f801991011681019081106001600160401b03821117610de557604052565b6001600160401b038111610de557601f01601f191660200190565b929192611d3982611d12565b91611d476040519384611cf1565b8294818452818301116101eb578281602093846000960137010152565b9080601f830112156101eb57816020611d7f93359101611d2d565b90565b90600182811c92168015611db2575b6020831014611d9c57565b634e487b7160e01b600052602260045260246000fd5b91607f1691611d91565b60405190600082600d5491611dd083611d82565b80835292600190818116908115611e585750600114611df9575b50611df792500383611cf1565b565b600d600090815291507fd7b6990105719101dabeb77144f2a3385c8033acd3af97e9423a695e81ad1eb55b848310611e3d5750611df7935050810160200138611dea565b81935090816020925483858a01015201910190918592611e24565b905060209250611df794915060ff191682840152151560051b82010138611dea565b9060405191826000825492611e8e84611d82565b908184526001948581169081600014611efb5750600114611eb8575b5050611df792500383611cf1565b9093915060005260209081600020936000915b818310611ee3575050611df793508201013880611eaa565b85548884018501529485019487945091830191611ecb565b915050611df794506020925060ff191682840152151560051b8201013880611eaa565b8054821015611f365760005260206000200190600090565b634e487b7160e01b600052603260045260246000fd5b3360009081527fa70365933f78520ef41d6645ba61e509916296603327302d41466c063e8e260860205260409020547fa49807205ce4d355092ef5a8a18f56e8913cf4a201fbe287825b095693c217759060ff16156113925750565b80600052600760205260406000203360005260205260ff60406000205416156113925750565b6001600160a01b031660008181527fa4bfd7afe708e2e87e7f0e2ad9b4d545417e0f795f57b5c5ab5d799c565a04f460205260408120549091906000805160206128f38339815191529060ff1661206a5780835260076020526040832082845260205260408320600160ff198254161790557f2f8788117e7eff1d82e926ec794901d17c78024a50270940304540a733656f0d339380a4600190565b505090565b906000918083526007602052604083209160018060a01b03169182845260205260ff6040842054161560001461206a5780835260076020526040832082845260205260408320600160ff198254161790557f2f8788117e7eff1d82e926ec794901d17c78024a50270940304540a733656f0d339380a4600190565b6001600160a01b031660008181527fa4bfd7afe708e2e87e7f0e2ad9b4d545417e0f795f57b5c5ab5d799c565a04f460205260408120549091906000805160206128f38339815191529060ff161561206a578083526007602052604083208284526020526040832060ff1981541690557ff6391f5c32d9c69d2a47ea670b442974b53935d1edc7fd64eb21e047a839171b339380a4600190565b906000918083526007602052604083209160018060a01b03169182845260205260ff60408420541660001461206a578083526007602052604083208284526020526040832060ff1981541690557ff6391f5c32d9c69d2a47ea670b442974b53935d1edc7fd64eb21e047a839171b339380a4600190565b916001600160a01b039182169190821561249757600091818352602094600286526040948286862054168015158061248f575b6123a4575b508495968480969593949552600281528488882054169687913315158061230e575b509060027fddf252ad1be2c89b69c2b068fc378daa952ba7f163c4a11628f55a4df523b3ef92846122db575b858352600381528b8320805460010190558683525289812080546001600160a01b0319168517905580a416928383036122ba5750505050565b6064945051926364283d7b60e01b8452600484015260248301526044820152fd5b600087815260046020526040902080546001600160a01b0319169055848352600381528b83208054600019019055612281565b91939450915080612363575b1561232a57859291879138612255565b878688612347576024915190637e27328960e01b82526004820152fd5b604491519063177e802f60e01b82523360048301526024820152fd5b503387148015612388575b8061231a575085825260048152338589842054161461231a565b5086825260058152878220338352815260ff888320541661236e565b8552600b875285852096855b88548082101561247f57866123c5838c611f1e565b919054600392831b1c146123e35750506123de90612639565b6123b0565b60009a939495969798999a929192199283810190811161246b5761241b929161240f610ffb9287611f1e565b9054911b1c9185611f1e565b81548015612457578794939291019061243761102e8383611f1e565b555b818752600b815261244c83898920612648565b969594939291612233565b634e487b7160e01b89526031600452602489fd5b634e487b7160e01b8b52601160045260248bfd5b5050849596975093919293612439565b50600161222e565b604051633250574960e11b815260006004820152602490fd5b6000818152600260205260409020546001600160a01b03169081156124d3575090565b60249060405190637e27328960e01b82526004820152fd5b90939192833b6124fd575b5050505050565b604051630a85bd0160e11b8082526001600160a01b03938416600483015295831660248201526044810191909152608060648201529492169260209291859061254a906084830190611bfa565b039483816000978189895af18691816125f5575b506125bf575050503d6000146125b6573d61257881611d12565b906125866040519283611cf1565b81528093823d92013e5b825192836125b157604051633250574960e11b815260048101849052602490fd5b019050fd5b60609250612590565b919450915063ffffffff60e01b16036125dd575038808080806124f6565b60249060405190633250574960e11b82526004820152fd5b9091508481813d8311612632575b61260d8183611cf1565b8101031261262e57516001600160e01b03198116810361262e57903861255e565b8680fd5b503d612603565b60001981146104815760010190565b9081549168010000000000000000831015610de55782610ffb916001611df795018155611f1e565b1561267757565b60405162461bcd60e51b815260206004820152601a60248201527f436572746966696361746520646f6573206e6f742065786973740000000000006044820152606490fd5b8051821015611f365760209160051b010190565b6020611df79193929360405194816126f18793518092868087019101611bd7565b820161270582518093868085019101611bd7565b01038085520183611cf1565b61271a816124b0565b506000818152600660205261273160408220611e7a565b612739611dbc565b8051156128eb5781516128de575050612751826124b0565b5061275a611dbc565b8051909290156128ca5780827a184f03e93ff9f4daa797ed6e38ed64bf6a1f01000000000000000082818110156128bc575b50506d04ee2d6d415b85acef8100000000808410156128af575b50662386f26fc10000808410156128a2575b506305f5e10080841015612895575b5061271080841015612888575b50606483101561287a575b600a80931015612872575b9060219160019281848093019661280088611d12565b9761280e604051998a611cf1565b80895261281d601f1991611d12565b013660208a013750860101905b61283c575b50505050611d7f916126d0565b600019019083906f181899199a1a9b1b9c1cb0b131b232b360811b8282061a83530491821561286d5791908261282a565b61282f565b6001016127ea565b9160646002910492016127df565b60049193049201386127d4565b60089193049201386127c7565b60109193049201386127b8565b60209193049201386127a6565b04925060409050388061278c565b5060405191506128d982611cd6565b815290565b909150611d7f92506126d0565b509150509056fe9f2df0fed2c77648de5860a4cc508cd0818c85b8b8a1ab4ceeef8d981c8956a6a264697066735822122074e86d3187e112cff0f94be5b83c8b384ebde5b00d02de9e668b025959019a9c64736f6c634300081400332f8788117e7eff1d82e926ec794901d17c78024a50270940304540a733656f0d",
  "linkReferences": {},
  "deployedLinkReferences": {}
}