{
  "_format": "hh-sol-artifact-1",
  "contractName": "ESXNFTShareCertificate",
  "sourceName": "smart-contracts/contracts/enhanced/ESXNFTShareCertificate.sol",
  "abi": [
    {
      "inputs": [
        {
          "internalType": "string",
          "name": "name",
          "type": "string"
        },
        {
          "internalType": "string",
          "name": "symbol",
          "type": "string"
        },
        {
          "internalType": "address",
          "name": "_esxRegulator",
          "type": "address"
        }
      ],
      "stateMutability": "nonpayable",
      "type": "constructor"
    },
    {
      "inputs": [],
      "name": "AccessControlBadConfirmation",
      "type": "error"
    },
    {
      "inputs": [
        {
          "internalType": "address",
          "name": "account",
          "type": "address"
        },
        {
          "internalType": "bytes32",
          "name": "neededRole",
          "type": "bytes32"
        }
      ],
      "name": "AccessControlUnauthorizedAccount",
      "type": "error"
    },
    {
      "inputs": [],
      "name": "CertificateAlreadyRevoked",
      "type": "error"
    },
    {
      "inputs": [],
      "name": "CertificateNotFound",
      "type": "error"
    },
    {
      "inputs": [
        {
          "internalType": "address",
          "name": "sender",
          "type": "address"
        },
        {
          "internalType": "uint256",
          "name": "tokenId",
          "type": "uint256"
        },
        {
          "internalType": "address",
          "name": "owner",
          "type": "address"
        }
      ],
      "name": "ERC721IncorrectOwner",
      "type": "error"
    },
    {
      "inputs": [
        {
          "internalType": "address",
          "name": "operator",
          "type": "address"
        },
        {
          "internalType": "uint256",
          "name": "tokenId",
          "type": "uint256"
        }
      ],
      "name": "ERC721InsufficientApproval",
      "type": "error"
    },
    {
      "inputs": [
        {
          "internalType": "address",
          "name": "approver",
          "type": "address"
        }
      ],
      "name": "ERC721InvalidApprover",
      "type": "error"
    },
    {
      "inputs": [
        {
          "internalType": "address",
          "name": "operator",
          "type": "address"
        }
      ],
      "name": "ERC721InvalidOperator",
      "type": "error"
    },
    {
      "inputs": [
        {
          "internalType": "address",
          "name": "owner",
          "type": "address"
        }
      ],
      "name": "ERC721InvalidOwner",
      "type": "error"
    },
    {
      "inputs": [
        {
          "internalType": "address",
          "name": "receiver",
          "type": "address"
        }
      ],
      "name": "ERC721InvalidReceiver",
      "type": "error"
    },
    {
      "inputs": [
        {
          "internalType": "address",
          "name": "sender",
          "type": "address"
        }
      ],
      "name": "ERC721InvalidSender",
      "type": "error"
    },
    {
      "inputs": [
        {
          "internalType": "uint256",
          "name": "tokenId",
          "type": "uint256"
        }
      ],
      "name": "ERC721NonexistentToken",
      "type": "error"
    },
    {
      "inputs": [],
      "name": "EmptyCampaignId",
      "type": "error"
    },
    {
      "inputs": [],
      "name": "EmptyCompanyName",
      "type": "error"
    },
    {
      "inputs": [],
      "name": "InvalidAddress",
      "type": "error"
    },
    {
      "inputs": [],
      "name": "InvalidInvestmentAmount",
      "type": "error"
    },
    {
      "inputs": [],
      "name": "InvalidShareCount",
      "type": "error"
    },
    {
      "inputs": [],
      "name": "ReentrancyGuardReentrantCall",
      "type": "error"
    },
    {
      "inputs": [],
      "name": "Unauthorized",
      "type": "error"
    },
    {
      "anonymous": false,
      "inputs": [
        {
          "indexed": true,
          "internalType": "address",
          "name": "owner",
          "type": "address"
        },
        {
          "indexed": true,
          "internalType": "address",
          "name": "approved",
          "type": "address"
        },
        {
          "indexed": true,
          "internalType": "uint256",
          "name": "tokenId",
          "type": "uint256"
        }
      ],
      "name": "Approval",
      "type": "event"
    },
    {
      "anonymous": false,
      "inputs": [
        {
          "indexed": true,
          "internalType": "address",
          "name": "owner",
          "type": "address"
        },
        {
          "indexed": true,
          "internalType": "address",
          "name": "operator",
          "type": "address"
        },
        {
          "indexed": false,
          "internalType": "bool",
          "name": "approved",
          "type": "bool"
        }
      ],
      "name": "ApprovalForAll",
      "type": "event"
    },
    {
      "anonymous": false,
      "inputs": [
        {
          "indexed": false,
          "internalType": "uint256",
          "name": "_fromTokenId",
          "type": "uint256"
        },
        {
          "indexed": false,
          "internalType": "uint256",
          "name": "_toTokenId",
          "type": "uint256"
        }
      ],
      "name": "BatchMetadataUpdate",
      "type": "event"
    },
    {
      "anonymous": false,
      "inputs": [
        {
          "indexed": true,
          "internalType": "uint256",
          "name": "tokenId",
          "type": "uint256"
        },
        {
          "indexed": false,
          "internalType": "string",
          "name": "reason",
          "type": "string"
        },
        {
          "indexed": false,
          "internalType": "uint256",
          "name": "timestamp",
          "type": "uint256"
        }
      ],
      "name": "CertificateRevoked",
      "type": "event"
    },
    {
      "anonymous": false,
      "inputs": [
        {
          "indexed": true,
          "internalType": "uint256",
          "name": "tokenId",
          "type": "uint256"
        },
        {
          "indexed": true,
          "internalType": "address",
          "name": "owner",
          "type": "address"
        },
        {
          "indexed": true,
          "internalType": "string",
          "name": "campaignId",
          "type": "string"
        },
        {
          "indexed": false,
          "internalType": "string",
          "name": "issuerName",
          "type": "string"
        },
        {
          "indexed": false,
          "internalType": "uint256",
          "name": "equityPercentage",
          "type": "uint256"
        },
        {
          "indexed": false,
          "internalType": "uint256",
          "name": "investmentAmount",
          "type": "uint256"
        },
        {
          "indexed": false,
          "internalType": "uint256",
          "name": "votingWeight",
          "type": "uint256"
        }
      ],
      "name": "ESXCertificateIssued",
      "type": "event"
    },
    {
      "anonymous": false,
      "inputs": [
        {
          "indexed": true,
          "internalType": "uint256",
          "name": "tokenId",
          "type": "uint256"
        },
        {
          "indexed": true,
          "internalType": "address",
          "name": "from",
          "type": "address"
        },
        {
          "indexed": true,
          "internalType": "address",
          "name": "to",
          "type": "address"
        },
        {
          "indexed": false,
          "internalType": "uint256",
          "name": "timestamp",
          "type": "uint256"
        }
      ],
      "name": "ESXTransferApproved",
      "type": "event"
    },
    {
      "anonymous": false,
      "inputs": [
        {
          "indexed": false,
          "internalType": "uint256",
          "name": "_tokenId",
          "type": "uint256"
        }
      ],
      "name": "MetadataUpdate",
      "type": "event"
    },
    {
      "anonymous": false,
      "inputs": [
        {
          "indexed": true,
          "internalType": "bytes32",
          "name": "role",
          "type": "bytes32"
        },
        {
          "indexed": true,
          "internalType": "bytes32",
          "name": "previousAdminRole",
          "type": "bytes32"
        },
        {
          "indexed": true,
          "internalType": "bytes32",
          "name": "newAdminRole",
          "type": "bytes32"
        }
      ],
      "name": "RoleAdminChanged",
      "type": "event"
    },
    {
      "anonymous": false,
      "inputs": [
        {
          "indexed": true,
          "internalType": "bytes32",
          "name": "role",
          "type": "bytes32"
        },
        {
          "indexed": true,
          "internalType": "address",
          "name": "account",
          "type": "address"
        },
        {
          "indexed": true,
          "internalType": "address",
          "name": "sender",
          "type": "address"
        }
      ],
      "name": "RoleGranted",
      "type": "event"
    },
    {
      "anonymous": false,
      "inputs": [
        {
          "indexed": true,
          "internalType": "bytes32",
          "name": "role",
          "type": "bytes32"
        },
        {
          "indexed": true,
          "internalType": "address",
          "name": "account",
          "type": "address"
        },
        {
          "indexed": true,
          "internalType": "address",
          "name": "sender",
          "type": "address"
        }
      ],
      "name": "RoleRevoked",
      "type": "event"
    },
    {
      "anonymous": false,
      "inputs": [
        {
          "indexed": true,
          "internalType": "address",
          "name": "from",
          "type": "address"
        },
        {
          "indexed": true,
          "internalType": "address",
          "name": "to",
          "type": "address"
        },
        {
          "indexed": true,
          "internalType": "uint256",
          "name": "tokenId",
          "type": "uint256"
        }
      ],
      "name": "Transfer",
      "type": "event"
    },
    {
      "anonymous": false,
      "inputs": [
        {
          "indexed": false,
          "internalType": "bool",
          "name": "transfersEnabled",
          "type": "bool"
        }
      ],
      "name": "TransferStatusChanged",
      "type": "event"
    },
    {
      "inputs": [],
      "name": "DEFAULT_ADMIN_ROLE",
      "outputs": [
        {
          "internalType": "bytes32",
          "name": "",
          "type": "bytes32"
        }
      ],
      "stateMutability": "view",
      "type": "function"
    },
    {
      "inputs": [],
      "name": "ESX_ADMIN_ROLE",
      "outputs": [
        {
          "internalType": "bytes32",
          "name": "",
          "type": "bytes32"
        }
      ],
      "stateMutability": "view",
      "type": "function"
    },
    {
      "inputs": [],
      "name": "MINTER_ROLE",
      "outputs": [
        {
          "internalType": "bytes32",
          "name": "",
          "type": "bytes32"
        }
      ],
      "stateMutability": "view",
      "type": "function"
    },
    {
      "inputs": [],
      "name": "VOTING_POWER_DIVISOR",
      "outputs": [
        {
          "internalType": "uint256",
          "name": "",
          "type": "uint256"
        }
      ],
      "stateMutability": "view",
      "type": "function"
    },
    {
      "inputs": [
        {
          "internalType": "address",
          "name": "to",
          "type": "address"
        },
        {
          "internalType": "uint256",
          "name": "tokenId",
          "type": "uint256"
        }
      ],
      "name": "approve",
      "outputs": [],
      "stateMutability": "nonpayable",
      "type": "function"
    },
    {
      "inputs": [
        {
          "internalType": "uint256",
          "name": "tokenId",
          "type": "uint256"
        },
        {
          "internalType": "address",
          "name": "from",
          "type": "address"
        },
        {
          "internalType": "address",
          "name": "to",
          "type": "address"
        }
      ],
      "name": "approveESXTransfer",
      "outputs": [],
      "stateMutability": "nonpayable",
      "type": "function"
    },
    {
      "inputs": [
        {
          "internalType": "address",
          "name": "owner",
          "type": "address"
        }
      ],
      "name": "balanceOf",
      "outputs": [
        {
          "internalType": "uint256",
          "name": "",
          "type": "uint256"
        }
      ],
      "stateMutability": "view",
      "type": "function"
    },
    {
      "inputs": [
        {
          "internalType": "string",
          "name": "",
          "type": "string"
        },
        {
          "internalType": "uint256",
          "name": "",
          "type": "uint256"
        }
      ],
      "name": "campaignCertificates",
      "outputs": [
        {
          "internalType": "uint256",
          "name": "",
          "type": "uint256"
        }
      ],
      "stateMutability": "view",
      "type": "function"
    },
    {
      "inputs": [
        {
          "internalType": "uint256",
          "name": "",
          "type": "uint256"
        }
      ],
      "name": "certificates",
      "outputs": [
        {
          "internalType": "string",
          "name": "issuerName",
          "type": "string"
        },
        {
          "internalType": "string",
          "name": "campaignId",
          "type": "string"
        },
        {
          "internalType": "uint256",
          "name": "equityPercentage",
          "type": "uint256"
        },
        {
          "internalType": "uint256",
          "name": "investmentAmount",
          "type": "uint256"
        },
        {
          "internalType": "uint256",
          "name": "shareCount",
          "type": "uint256"
        },
        {
          "internalType": "uint256",
          "name": "votingWeight",
          "type": "uint256"
        },
        {
          "internalType": "uint256",
          "name": "issuedAt",
          "type": "uint256"
        },
        {
          "internalType": "bool",
          "name": "isActive",
          "type": "bool"
        },
        {
          "internalType": "bool",
          "name": "isESXBound",
          "type": "bool"
        }
      ],
      "stateMutability": "view",
      "type": "function"
    },
    {
      "inputs": [
        {
          "internalType": "uint256",
          "name": "",
          "type": "uint256"
        }
      ],
      "name": "esxApprovedTransfers",
      "outputs": [
        {
          "internalType": "bool",
          "name": "",
          "type": "bool"
        }
      ],
      "stateMutability": "view",
      "type": "function"
    },
    {
      "inputs": [],
      "name": "esxRegulator",
      "outputs": [
        {
          "internalType": "address",
          "name": "",
          "type": "address"
        }
      ],
      "stateMutability": "view",
      "type": "function"
    },
    {
      "inputs": [
        {
          "internalType": "uint256",
          "name": "tokenId",
          "type": "uint256"
        }
      ],
      "name": "getApproved",
      "outputs": [
        {
          "internalType": "address",
          "name": "",
          "type": "address"
        }
      ],
      "stateMutability": "view",
      "type": "function"
    },
    {
      "inputs": [
        {
          "internalType": "uint256",
          "name": "tokenId",
          "type": "uint256"
        }
      ],
      "name": "getCertificateMetadata",
      "outputs": [
        {
          "components": [
            {
              "internalType": "string",
              "name": "issuerName",
              "type": "string"
            },
            {
              "internalType": "string",
              "name": "campaignId",
              "type": "string"
            },
            {
              "internalType": "uint256",
              "name": "equityPercentage",
              "type": "uint256"
            },
            {
              "internalType": "uint256",
              "name": "investmentAmount",
              "type": "uint256"
            },
            {
              "internalType": "uint256",
              "name": "shareCount",
              "type": "uint256"
            },
            {
              "internalType": "uint256",
              "name": "votingWeight",
              "type": "uint256"
            },
            {
              "internalType": "uint256",
              "name": "issuedAt",
              "type": "uint256"
            },
            {
              "internalType": "bool",
              "name": "isActive",
              "type": "bool"
            },
            {
              "internalType": "bool",
              "name": "isESXBound",
              "type": "bool"
            }
          ],
          "internalType": "struct ESXNFTShareCertificate.ShareCertificateMetadata",
          "name": "metadata",
          "type": "tuple"
        }
      ],
      "stateMutability": "view",
      "type": "function"
    },
    {
      "inputs": [
        {
          "internalType": "string",
          "name": "campaignId",
          "type": "string"
        }
      ],
      "name": "getCertificatesByCampaign",
      "outputs": [
        {
          "internalType": "uint256[]",
          "name": "tokenIds",
          "type": "uint256[]"
        }
      ],
      "stateMutability": "view",
      "type": "function"
    },
    {
      "inputs": [
        {
          "internalType": "string",
          "name": "issuerName",
          "type": "string"
        }
      ],
      "name": "getCertificatesByIssuer",
      "outputs": [
        {
          "internalType": "uint256[]",
          "name": "tokenIds",
          "type": "uint256[]"
        }
      ],
      "stateMutability": "view",
      "type": "function"
    },
    {
      "inputs": [
        {
          "internalType": "address",
          "name": "owner",
          "type": "address"
        }
      ],
      "name": "getCertificatesByOwner",
      "outputs": [
        {
          "internalType": "uint256[]",
          "name": "tokenIds",
          "type": "uint256[]"
        }
      ],
      "stateMutability": "view",
      "type": "function"
    },
    {
      "inputs": [
        {
          "internalType": "bytes32",
          "name": "role",
          "type": "bytes32"
        }
      ],
      "name": "getRoleAdmin",
      "outputs": [
        {
          "internalType": "bytes32",
          "name": "",
          "type": "bytes32"
        }
      ],
      "stateMutability": "view",
      "type": "function"
    },
    {
      "inputs": [],
      "name": "getTotalCertificates",
      "outputs": [
        {
          "internalType": "uint256",
          "name": "totalCertificates",
          "type": "uint256"
        }
      ],
      "stateMutability": "view",
      "type": "function"
    },
    {
      "inputs": [
        {
          "internalType": "address",
          "name": "owner",
          "type": "address"
        }
      ],
      "name": "getVotingPower",
      "outputs": [
        {
          "internalType": "uint256",
          "name": "totalVotingPower",
          "type": "uint256"
        }
      ],
      "stateMutability": "view",
      "type": "function"
    },
    {
      "inputs": [
        {
          "internalType": "bytes32",
          "name": "role",
          "type": "bytes32"
        },
        {
          "internalType": "address",
          "name": "account",
          "type": "address"
        }
      ],
      "name": "grantRole",
      "outputs": [],
      "stateMutability": "nonpayable",
      "type": "function"
    },
    {
      "inputs": [
        {
          "internalType": "bytes32",
          "name": "role",
          "type": "bytes32"
        },
        {
          "internalType": "address",
          "name": "account",
          "type": "address"
        }
      ],
      "name": "hasRole",
      "outputs": [
        {
          "internalType": "bool",
          "name": "",
          "type": "bool"
        }
      ],
      "stateMutability": "view",
      "type": "function"
    },
    {
      "inputs": [
        {
          "internalType": "address",
          "name": "owner",
          "type": "address"
        },
        {
          "internalType": "address",
          "name": "operator",
          "type": "address"
        }
      ],
      "name": "isApprovedForAll",
      "outputs": [
        {
          "internalType": "bool",
          "name": "",
          "type": "bool"
        }
      ],
      "stateMutability": "view",
      "type": "function"
    },
    {
      "inputs": [
        {
          "internalType": "uint256",
          "name": "tokenId",
          "type": "uint256"
        }
      ],
      "name": "isESXBound",
      "outputs": [
        {
          "internalType": "bool",
          "name": "",
          "type": "bool"
        }
      ],
      "stateMutability": "view",
      "type": "function"
    },
    {
      "inputs": [
        {
          "internalType": "address",
          "name": "to",
          "type": "address"
        },
        {
          "internalType": "string",
          "name": "issuerName",
          "type": "string"
        },
        {
          "internalType": "string",
          "name": "campaignId",
          "type": "string"
        },
        {
          "internalType": "uint256",
          "name": "equityPercentage",
          "type": "uint256"
        },
        {
          "internalType": "uint256",
          "name": "investmentAmount",
          "type": "uint256"
        },
        {
          "internalType": "uint256",
          "name": "shareCount",
          "type": "uint256"
        },
        {
          "internalType": "string",
          "name": "tokenURI",
          "type": "string"
        }
      ],
      "name": "issueESXCertificate",
      "outputs": [
        {
          "internalType": "uint256",
          "name": "",
          "type": "uint256"
        }
      ],
      "stateMutability": "nonpayable",
      "type": "function"
    },
    {
      "inputs": [
        {
          "internalType": "string",
          "name": "",
          "type": "string"
        },
        {
          "internalType": "uint256",
          "name": "",
          "type": "uint256"
        }
      ],
      "name": "issuerCertificates",
      "outputs": [
        {
          "internalType": "uint256",
          "name": "",
          "type": "uint256"
        }
      ],
      "stateMutability": "view",
      "type": "function"
    },
    {
      "inputs": [],
      "name": "name",
      "outputs": [
        {
          "internalType": "string",
          "name": "",
          "type": "string"
        }
      ],
      "stateMutability": "view",
      "type": "function"
    },
    {
      "inputs": [
        {
          "internalType": "address",
          "name": "",
          "type": "address"
        },
        {
          "internalType": "uint256",
          "name": "",
          "type": "uint256"
        }
      ],
      "name": "ownerCertificates",
      "outputs": [
        {
          "internalType": "uint256",
          "name": "",
          "type": "uint256"
        }
      ],
      "stateMutability": "view",
      "type": "function"
    },
    {
      "inputs": [
        {
          "internalType": "uint256",
          "name": "tokenId",
          "type": "uint256"
        }
      ],
      "name": "ownerOf",
      "outputs": [
        {
          "internalType": "address",
          "name": "",
          "type": "address"
        }
      ],
      "stateMutability": "view",
      "type": "function"
    },
    {
      "inputs": [
        {
          "internalType": "bytes32",
          "name": "role",
          "type": "bytes32"
        },
        {
          "internalType": "address",
          "name": "callerConfirmation",
          "type": "address"
        }
      ],
      "name": "renounceRole",
      "outputs": [],
      "stateMutability": "nonpayable",
      "type": "function"
    },
    {
      "inputs": [
        {
          "internalType": "uint256",
          "name": "tokenId",
          "type": "uint256"
        },
        {
          "internalType": "string",
          "name": "reason",
          "type": "string"
        }
      ],
      "name": "revokeCertificate",
      "outputs": [],
      "stateMutability": "nonpayable",
      "type": "function"
    },
    {
      "inputs": [
        {
          "internalType": "bytes32",
          "name": "role",
          "type": "bytes32"
        },
        {
          "internalType": "address",
          "name": "account",
          "type": "address"
        }
      ],
      "name": "revokeRole",
      "outputs": [],
      "stateMutability": "nonpayable",
      "type": "function"
    },
    {
      "inputs": [
        {
          "internalType": "address",
          "name": "from",
          "type": "address"
        },
        {
          "internalType": "address",
          "name": "to",
          "type": "address"
        },
        {
          "internalType": "uint256",
          "name": "tokenId",
          "type": "uint256"
        }
      ],
      "name": "safeTransferFrom",
      "outputs": [],
      "stateMutability": "nonpayable",
      "type": "function"
    },
    {
      "inputs": [
        {
          "internalType": "address",
          "name": "from",
          "type": "address"
        },
        {
          "internalType": "address",
          "name": "to",
          "type": "address"
        },
        {
          "internalType": "uint256",
          "name": "tokenId",
          "type": "uint256"
        },
        {
          "internalType": "bytes",
          "name": "data",
          "type": "bytes"
        }
      ],
      "name": "safeTransferFrom",
      "outputs": [],
      "stateMutability": "nonpayable",
      "type": "function"
    },
    {
      "inputs": [
        {
          "internalType": "address",
          "name": "operator",
          "type": "address"
        },
        {
          "internalType": "bool",
          "name": "approved",
          "type": "bool"
        }
      ],
      "name": "setApprovalForAll",
      "outputs": [],
      "stateMutability": "nonpayable",
      "type": "function"
    },
    {
      "inputs": [
        {
          "internalType": "address",
          "name": "newRegulator",
          "type": "address"
        }
      ],
      "name": "setESXRegulator",
      "outputs": [],
      "stateMutability": "nonpayable",
      "type": "function"
    },
    {
      "inputs": [
        {
          "internalType": "bool",
          "name": "enabled",
          "type": "bool"
        }
      ],
      "name": "setTransfersEnabled",
      "outputs": [],
      "stateMutability": "nonpayable",
      "type": "function"
    },
    {
      "inputs": [
        {
          "internalType": "bytes4",
          "name": "interfaceId",
          "type": "bytes4"
        }
      ],
      "name": "supportsInterface",
      "outputs": [
        {
          "internalType": "bool",
          "name": "",
          "type": "bool"
        }
      ],
      "stateMutability": "view",
      "type": "function"
    },
    {
      "inputs": [],
      "name": "symbol",
      "outputs": [
        {
          "internalType": "string",
          "name": "",
          "type": "string"
        }
      ],
      "stateMutability": "view",
      "type": "function"
    },
    {
      "inputs": [
        {
          "internalType": "uint256",
          "name": "tokenId",
          "type": "uint256"
        }
      ],
      "name": "tokenURI",
      "outputs": [
        {
          "internalType": "string",
          "name": "",
          "type": "string"
        }
      ],
      "stateMutability": "view",
      "type": "function"
    },
    {
      "inputs": [
        {
          "internalType": "address",
          "name": "from",
          "type": "address"
        },
        {
          "internalType": "address",
          "name": "to",
          "type": "address"
        },
        {
          "internalType": "uint256",
          "name": "tokenId",
          "type": "uint256"
        }
      ],
      "name": "transferFrom",
      "outputs": [],
      "stateMutability": "nonpayable",
      "type": "function"
    },
    {
      "inputs": [],
      "name": "transfersEnabled",
      "outputs": [
        {
          "internalType": "bool",
          "name": "",
          "type": "bool"
        }
      ],
      "stateMutability": "view",
      "type": "function"
    }
  ],
  "bytecode": "0x6080604052346200037b5762002ee8803803806200001d8162000380565b9283398101906060818303126200037b5780516001600160401b03908181116200037b57836200004f918401620003a6565b90602093848401518281116200037b576040916200006f918601620003a6565b9301516001600160a01b03811693908490036200037b57825190828211620003655760008054926001958685811c951680156200035a575b8986101462000346578190601f95868111620002f3575b5089908683116001146200028f57849262000283575b5050600019600383901b1c191690861b1781555b81519384116200026f5784548581811c9116801562000264575b88821014620002505783811162000208575b5086928411600114620001a25783949596509262000196575b5050600019600383901b1c191690821b1781555b6008556200014f3362000418565b506200015b3362000499565b5062000167336200053c565b50601080546001600160a01b031916919091179055600e805460ff191690556040516128ed9081620005db8239f35b0151905038806200012d565b9190601f1984169685845280842093905b888210620001f05750508385969710620001d6575b505050811b01815562000141565b015160001960f88460031b161c19169055388080620001c8565b808785968294968601518155019501930190620001b3565b8582528782208480870160051c8201928a881062000246575b0160051c019086905b8281106200023a57505062000114565b8381550186906200022a565b9250819262000221565b634e487b7160e01b82526022600452602482fd5b90607f169062000102565b634e487b7160e01b81526041600452602490fd5b015190503880620000d4565b8480528a85208994509190601f198416865b8d828210620002dc5750508411620002c2575b505050811b018155620000e8565b015160001960f88460031b161c19169055388080620002b4565b8385015186558c97909501949384019301620002a1565b9091508380528984208680850160051c8201928c86106200033c575b918a91869594930160051c01915b8281106200032d575050620000be565b8681558594508a91016200031d565b925081926200030f565b634e487b7160e01b83526022600452602483fd5b94607f1694620000a7565b634e487b7160e01b600052604160045260246000fd5b600080fd5b6040519190601f01601f191682016001600160401b038111838210176200036557604052565b919080601f840112156200037b5782516001600160401b0381116200036557602090620003dc601f8201601f1916830162000380565b928184528282870101116200037b5760005b8181106200040457508260009394955001015290565b8581018301518482018401528201620003ee565b6001600160a01b031660008181527f6d5257204ebe7d88fd91ae87941cb2dd9d8062b64ae5a2bd2d28ec40b9fbf6df602052604081205490919060ff16620004955781805260076020526040822081835260205260408220600160ff19825416179055339160008051602062002ec88339815191528180a4600190565b5090565b6001600160a01b031660008181527fa4bfd7afe708e2e87e7f0e2ad9b4d545417e0f795f57b5c5ab5d799c565a04f460205260408120549091907f9f2df0fed2c77648de5860a4cc508cd0818c85b8b8a1ab4ceeef8d981c8956a69060ff16620005375780835260076020526040832082845260205260408320600160ff1982541617905560008051602062002ec8833981519152339380a4600190565b505090565b6001600160a01b031660008181527fd2cf9e285cd9da8d60462694cfec36f8d8d676da07bd23fe8c19c9943addaf5760205260408120549091907f1d5fd53656d86679196ea3b9c1c85aeac770600d8ac05daa111fd08aa2fed21d9060ff16620005375780835260076020526040832082845260205260408320600160ff1982541617905560008051602062002ec8833981519152339380a460019056fe608080604052600436101561001357600080fd5b60003560e01c90816301ffc9a714611e1b5750806306fdde0314611d78578063081812fc14611d3a578063095ea7b314611c535780631db7384014611bdb57806323b872dd14611bc4578063248a9ca314611b9557806326b9ce1314611b335780632f2ff15d14611af457806336568abe14611aad57806342842e0e14611a7f5780634c5f0b0214611a625780635975f490146119af5780636352211e1461197f578063663b3e22146118c9578063689dd1e414610da35780636dadd6d114610d1b57806370a0823114610cc25780637843bb7914610ca45780637d8ccc2e14610c50578063917bb1c114610c0657806391d1485414610bb957806395d89b4114610ada57806396b0faf514610aa857806397cd8c1c1461092d578063a217fddf14610911578063a22cb46514610863578063a271972e14610832578063a36529f414610809578063b1466d1d14610716578063b88d4fde146106ab578063bb4d443614610523578063bd437fba146104e8578063bef97c87146104c5578063bfdd740f14610412578063c0c93bb31461036b578063c0da67d314610316578063c87b56dd146102b9578063d53913931461027e578063d547741f1461023d5763e985e9c5146101e257600080fd5b34610238576040366003190112610238576101fb611f02565b610203611f18565b9060018060a01b03809116600052600560205260406000209116600052602052602060ff604060002054166040519015158152f35b600080fd5b346102385760403660031901126102385761027c60043561025c611f18565b90806000526007602052610277600160406000200154612201565b612355565b005b346102385760003660031901126102385760206040517f9f2df0fed2c77648de5860a4cc508cd0818c85b8b8a1ab4ceeef8d981c8956a68152f35b34610238576020366003190112610238576004356102d6816126e3565b5060005260066020526103126102ef6040600020612030565b60006040516102fd81611ff4565b52604051918291602083526020830190611edd565b0390f35b3461023857602061033e61032936612174565b92908160405193828580945193849201611eba565b8101600c81520301902080548210156102385760209161035d91612146565b90546040519160031b1c8152f35b3461023857602080600319360112610238576004356001600160401b03811161023857816103a06103b3923690600401612128565b8160405193828580945193849201611eba565b8101600c81520301902090604051908181845491828152019360005281600020916000905b8282106103fb57610312856103ef8189038261200f565b60405191829182611f2e565b8354865294850194600193840193909101906103d8565b346102385760203660031901126102385761042b611f02565b3360009081527f6d5257204ebe7d88fd91ae87941cb2dd9d8062b64ae5a2bd2d28ec40b9fbf6df602052604090205460ff16156104a6576001600160a01b0381169081156104945761027c916bffffffffffffffffffffffff60a01b6010541617601055612227565b60405163e6c4247b60e01b8152600490fd5b60405163e2517d3f60e01b815233600482015260006024820152604490fd5b3461023857600036600319011261023857602060ff600e54166040519015158152f35b346102385760003660031901126102385760206040517f1d5fd53656d86679196ea3b9c1c85aeac770600d8ac05daa111fd08aa2fed21d8152f35b34610238576020806003193601126102385761053d611f02565b60009160018060a01b038092169081600052600b8152604060002091604051808484829654938481520190600052846000209260005b868282106106955750505061058a9250038461200f565b60005b835181101561068b576105a081856128a3565b51600052600a835260406000206040516105b981611fd8565b6105c282612030565b81526105d060018301612030565b85820152600282015460408201526003820154606082015260048201546080820152600760058301549260a08301938452600681015460c084015201549061010060ff8084161515938460e085015260081c1615159101528061066e575b610642575b5061063d9061286c565b61058d565b959095518101809111610658579461063d610633565b634e487b7160e01b600052601160045260246000fd5b50828661068461067e85896128a3565b516126e3565b161461062e565b8286604051908152f35b8554845260019586019589955093019201610573565b34610238576080366003190112610238576106c4611f02565b6106cc611f18565b90604435606435926001600160401b03841161023857366023850112156102385761070461027c9436906024816004013591016120f1565b926107108383836123cc565b3361271e565b34610238576040366003190112610238576004356024356001600160401b03811161023857610749903690600401612128565b6107516121a5565b6000828152600260205260409020546001600160a01b0316156107f75781600052600a60205260ff60076040600020015416156107e5576107da7f9f1859cbcd7e1f2bbe8e8bfefbd222bcf1084268443bb375cfaefc48540b96c19183600052600a602052600760406000200160ff198154169055604051918291604083526040830190611edd565b4260208301520390a2005b604051631ba03cdd60e31b8152600490fd5b60405163761e55e760e01b8152600490fd5b34610238576000366003190112610238576010546040516001600160a01b039091168152602090f35b3461023857602036600319011261023857600435600052600f602052602060ff604060002054166040519015158152f35b346102385760403660031901126102385761087c611f02565b6024359081151590818303610238576001600160a01b03169182156108f8576108ca9033600052600560205260406000208460005260205260406000209060ff801983541691151516179055565b6040519081527f17307eab39ab6107e8899845ad3d59bd9653f200f220920489ca2b5937696c3160203392a3005b604051630b61174360e31b815260048101849052602490fd5b3461023857600036600319011261023857602060405160008152f35b3461023857602080600319360112610238576004359060405161094f81611fd8565b60608152606082820152600060408201526000606082015260006080820152600060a0820152600060c0820152600060e0820152600061010080920152826000526002825260018060a01b0360406000205416156107f75761014092600052600a8252604060002091604051926109c584611fd8565b6109ce81612030565b84526109dc60018201612030565b92828501938452600282015493604086019485526003830154926060870193845260048101546080880190815260058201549060a08901918252600760068401549360c08b01948552015495610a7760e08b019560ff89161515875260ff888d019960081c1615158952610a64604051809e819e8d83525191610120809e8201520190611edd565b90518c8203601f190160408e0152611edd565b985160608b01525160808a01525160a08901525160c08801525160e087015251151590850152511515908301520390f35b34610238576020610abb61032936612174565b8101600d81520301902080548210156102385760209161035d91612146565b346102385760003660031901126102385760405160006001805490610afe82611f9e565b80855291818116908115610b925750600114610b39575b61031284610b258186038261200f565b604051918291602083526020830190611edd565b600081815292507fb10e2d527612073b26eecdfd717e6a320cf44b4afac2b0732d9fcbe2b7fa0cf65b828410610b7a575050508101602001610b2582610b15565b80546020858701810191909152909301928101610b62565b60ff191660208087019190915292151560051b85019092019250610b259150839050610b15565b3461023857604036600319011261023857610bd2611f18565b600435600052600760205260406000209060018060a01b0316600052602052602060ff604060002054166040519015158152f35b3461023857604036600319011261023857610c1f611f02565b6001600160a01b03166000908152600b60205260409020805460243591908210156102385760209161035d91612146565b34610238576020366003190112610238576004356000818152600260205260409020546001600160a01b0316156107f757600052600a602052602060ff60076040600020015460081c166040519015158152f35b34610238576000366003190112610238576020600954604051908152f35b34610238576020366003190112610238576001600160a01b03610ce3611f02565b168015610d025760005260036020526020604060002054604051908152f35b6040516322718ad960e21b815260006004820152602490fd5b3461023857602080600319360112610238576004356001600160401b03811161023857816103a0610d50923690600401612128565b8101600d81520301902090604051908181845491828152019360005281600020916000905b828210610d8c57610312856103ef8189038261200f565b835486529485019460019384019390910190610d75565b346102385760e036600319011261023857610dbc611f02565b6024356001600160401b03811161023857610ddb903690600401612128565b906044356001600160401b03811161023857610dfb903690600401612128565b60c4356001600160401b03811161023857610e1a903690600401612128565b3360009081527fa4bfd7afe708e2e87e7f0e2ad9b4d545417e0f795f57b5c5ab5d799c565a04f460205260409020549092907f9f2df0fed2c77648de5860a4cc508cd0818c85b8b8a1ab4ceeef8d981c8956a69060ff16156118ab57506002600854146118995760026008556001600160a01b03811615610494578351156118875781511561187557608435156118635760a4351561185157610ebe60095461286c565b9182600955683635c9adc5dea0000060843504801560001461184b57506001905b604051610eeb81611fd8565b8681528160208201526064356040820152608435606082015260a43560808201528260a08201524260c0820152600160e0820152600161010082015284600052600a602052604060002081518051906001600160401b03821161139b578190610f548454611f9e565b601f81116117fb575b50602090601f831160011461178f57600092611784575b50508160011b916000199060031b1c19161781555b60208201518051906001600160401b03821161139b57610fac6001840154611f9e565b601f811161173d575b50602090601f83116001146116c757918061010094926007946000926116bc575b50508160011b916000199060031b1c19161760018201555b60408401516002820155606084015160038201556080840151600482015560a0840151600582015560c08401516006820155019161103e60e08201511515849060ff801983541691151516179055565b0151815461ff00191690151560081b61ff00161790556001600160a01b0383166000908152600b6020526040902061107790859061287b565b61109f8460405160208185516110908183858a01611eba565b8101600c81520301902061287b565b6110c984604051602081816110ba8c83815193849201611eba565b8101600d81520301902061287b565b604051946110d686611ff4565b6000808752858152600260205260409020546001600160a01b031680611658575b80151581611650575b611548575b50909192939485600052600260205260018060a01b0360406000205416868115159182611511575b6001600160a01b0388166000818152600360209081526040808320805460010190558583526002909152812080546001600160a01b031916831790559091907fddf252ad1be2c89b69c2b068fc378daa952ba7f163c4a11628f55a4df523b3ef9080a46114f857843b6113b1575b508460005260066020526040600020908051906001600160401b03821161139b576111c68354611f9e565b601f8111611357575b5091869391602098938990601f83116001146112c257928261126c9361128696937f47e202c72de6704174e1f8ff7b8fafe0e85809ecc0c7bed22e015e2099a6752b98966000926112b7575b50508160011b916000199060031b1c19161790555b7ff8e1a15aba9398e019f0b49df1a4fde98ee17ae345cb5f6b5e2c27f5033e8ce78a604051888152a18960405192828480945193849201611eba565b810103902095604051928392608084526080840190611edd565b606435838b0152608435604084015260608301969096526001600160a01b0316940390a46001600855604051908152f35b015190508d8061121b565b90836000528a6000209160005b601f198516811061133d57508361128696937f47e202c72de6704174e1f8ff7b8fafe0e85809ecc0c7bed22e015e2099a6752b98969360019361126c97601f19811610611324575b505050811b019055611230565b015160001960f88460031b161c191690558d8080611317565b8183015184558b9850600190930192918c01918c016112cf565b836000526020600020601f840160051c810160208510611394575b601f830160051c820181106113885750506111cf565b60008155600101611372565b5080611372565b634e487b7160e01b600052604160045260246000fd5b60206113f0916040989796985180938192630a85bd0160e11b835233600484015260006024840152896044840152608060648401526084830190611edd565b038160006001600160a01b038c165af1600091816114b3575b5061147157863d15611469573d90611420826120d6565b9161142e604051938461200f565b82523d6000602084013e5b8151918261146257604051633250574960e11b81526001600160a01b0383166004820152602490fd5b6020915001fd5b606090611439565b949593946001600160e01b03191663757a42ff60e11b01611492578661119b565b604051633250574960e11b81526001600160a01b0385166004820152602490fd5b9091506020813d6020116114f0575b816114cf6020938361200f565b8101031261023857516001600160e01b031981168103610238579088611409565b3d91506114c2565b6040516339e3563760e11b815260006004820152602490fd5b600082815260046020526040902080546001600160a01b03191690558060005260036020526040600020600019815401905561112d565b600052600b60205260406000209560005b875480821015611642578761156e838b612146565b90549060031b1c1461158957506115849061286c565b611559565b9060009892939495969798198201918211610658576115bc6115ae6115d59385612146565b90549060031b1c9184612146565b90919082549060031b91821b91600019901b1916179055565b8054801561162c5760001901906116006115ef8383612146565b8154906000199060031b1b19169055565b555b60018060a01b038516600052600b60205261162186604060002061287b565b949392919087611105565b634e487b7160e01b600052603160045260246000fd5b505090919293949550611602565b506001611100565b60ff600e541615806116a7575b6116965785600052600f6020526040600020805460ff8116611689575b50506110f7565b60ff191690558880611682565b6040516282b42960e81b8152600490fd5b50600f60205260ff6040600020541615611665565b015190508c80610fd6565b906001840160005260206000209160005b601f1985168110611725575092610100949260019260079583601f1981161061170c575b505050811b016001820155610fee565b015160001960f88460031b161c191690558c80806116fc565b919260206001819286850151815501940192016116d8565b600184016000526020600020601f840160051c81016020851061177d575b601f830160051c82018110611771575050610fb5565b6000815560010161175b565b508061175b565b015190508a80610f74565b9250836000526020600020906000935b601f19841685106117e0576001945083601f198116106117c7575b505050811b018155610f89565b015160001960f88460031b161c191690558a80806117ba565b8181015183556020948501946001909301929091019061179f565b909150836000526020600020601f840160051c810160208510611844575b90849392915b601f830160051c82018110611835575050610f5d565b6000815585945060010161181f565b5080611819565b90610edf565b604051630a4960f960e31b8152600490fd5b604051631bf1f55760e11b8152600490fd5b604051633925755160e11b8152600490fd5b60405163fde8dd8d60e01b8152600490fd5b604051633ee5aeb560e01b8152600490fd5b6044906040519063e2517d3f60e01b82523360048301526024820152fd5b3461023857602036600319011261023857600435600052600a60205261193d60406000206118f681612030565b9060ff61190560018301612030565b6002830154926003810154600482015460058301549161194b60076006860154950154956040519a8b9a610120808d528c0190611edd565b908a820360208c0152611edd565b9660408901526060880152608087015260a086015260c0850152818116151560e085015260081c1615156101008301520390f35b3461023857602036600319011261023857602061199d6004356126e3565b6040516001600160a01b039091168152f35b34610238576060366003190112610238576004356119cb611f18565b6001600160a01b0360443581811693919290849003610238576119ec6121a5565b8160005260026020528260406000205416156107f75782611a0c836126e3565b911692839116036116965782156104945780600052600f6020526040600020600160ff198254161790557f71157e1b5724a877dda78781e0a67ec76cfca4916573df62fa4c96d4a147d6586020604051428152a4005b346102385760003660031901126102385760206040516103e88152f35b346102385761027c611a9036611f69565b9060405192611a9e84611ff4565b600084526107108383836123cc565b3461023857604036600319011261023857611ac6611f18565b336001600160a01b03821603611ae25761027c90600435612355565b60405163334bd91960e11b8152600490fd5b346102385760403660031901126102385761027c600435611b13611f18565b90806000526007602052611b2e600160406000200154612201565b6122da565b34610238576020366003190112610238576004358015158091036102385760207f6e8a3438115f9c2a0de5c0cdd103bc8f8921b47ca6cd834b21b65b84d9589f9a91611b7d6121a5565b60ff19600e541660ff821617600e55604051908152a1005b346102385760203660031901126102385760043560005260076020526020600160406000200154604051908152f35b346102385761027c611bd536611f69565b916123cc565b3461023857602080600319360112610238576001600160a01b03611bfd611f02565b16600052600b8152604060002090604051908181845491828152019360005281600020916000905b828210611c3c57610312856103ef8189038261200f565b835486529485019460019384019390910190611c25565b3461023857604036600319011261023857611c6c611f02565b602435611c78816126e3565b33151580611d27575b80611cfa575b611ce2576001600160a01b039283169282918491167f8c5be1e5ebec7d5bd14f71427d1e84f3dd0314c0f7b2291e5b200ac8c7c3b925600080a4600090815260046020526040902080546001600160a01b0319169091179055005b60405163a9fbf51f60e01b8152336004820152602490fd5b5060018060a01b038116600052600560205260406000203360005260205260ff6040600020541615611c87565b506001600160a01b038116331415611c81565b3461023857602036600319011261023857600435611d57816126e3565b506000526004602052602060018060a01b0360406000205416604051908152f35b346102385760003660031901126102385760405160008054611d9981611f9e565b80845290600190818116908115610b925750600114611dc25761031284610b258186038261200f565b600080805292507f290decd9548b62a8d60345a988386fc84ba6bc95484008f6362f93160ef3e5635b828410611e03575050508101602001610b2582610b15565b80546020858701810191909152909301928101611deb565b34610238576020366003190112610238576004359063ffffffff60e01b821680920361023857602091637965db0b60e01b8114908115611e5d575b5015158152f35b632483248360e11b811491508115611e77575b5083611e56565b6380ac58cd60e01b811491508115611ea9575b8115611e98575b5083611e70565b6301ffc9a760e01b14905083611e91565b635b5e139f60e01b81149150611e8a565b60005b838110611ecd5750506000910152565b8181015183820152602001611ebd565b90602091611ef681518092818552858086019101611eba565b601f01601f1916010190565b600435906001600160a01b038216820361023857565b602435906001600160a01b038216820361023857565b6020908160408183019282815285518094520193019160005b828110611f55575050505090565b835185529381019392810192600101611f47565b6060906003190112610238576001600160a01b0390600435828116810361023857916024359081168103610238579060443590565b90600182811c92168015611fce575b6020831014611fb857565b634e487b7160e01b600052602260045260246000fd5b91607f1691611fad565b61012081019081106001600160401b0382111761139b57604052565b602081019081106001600160401b0382111761139b57604052565b90601f801991011681019081106001600160401b0382111761139b57604052565b906040519182600082549261204484611f9e565b9081845260019485811690816000146120b35750600114612070575b505061206e9250038361200f565b565b9093915060005260209081600020936000915b81831061209b57505061206e93508201013880612060565b85548884018501529485019487945091830191612083565b91505061206e94506020925060ff191682840152151560051b8201013880612060565b6001600160401b03811161139b57601f01601f191660200190565b9291926120fd826120d6565b9161210b604051938461200f565b829481845281830111610238578281602093846000960137010152565b9080601f8301121561023857816020612143933591016120f1565b90565b805482101561215e5760005260206000200190600090565b634e487b7160e01b600052603260045260246000fd5b604060031982011261023857600435906001600160401b0382116102385761219e91600401612128565b9060243590565b3360009081527fd2cf9e285cd9da8d60462694cfec36f8d8d676da07bd23fe8c19c9943addaf5760205260409020547f1d5fd53656d86679196ea3b9c1c85aeac770600d8ac05daa111fd08aa2fed21d9060ff16156118ab5750565b80600052600760205260406000203360005260205260ff60406000205416156118ab5750565b6001600160a01b031660008181527fd2cf9e285cd9da8d60462694cfec36f8d8d676da07bd23fe8c19c9943addaf5760205260408120549091907f1d5fd53656d86679196ea3b9c1c85aeac770600d8ac05daa111fd08aa2fed21d9060ff166122d55780835260076020526040832082845260205260408320600160ff198254161790557f2f8788117e7eff1d82e926ec794901d17c78024a50270940304540a733656f0d339380a4600190565b505090565b906000918083526007602052604083209160018060a01b03169182845260205260ff604084205416156000146122d55780835260076020526040832082845260205260408320600160ff198254161790557f2f8788117e7eff1d82e926ec794901d17c78024a50270940304540a733656f0d339380a4600190565b906000918083526007602052604083209160018060a01b03169182845260205260ff6040842054166000146122d5578083526007602052604083208284526020526040832060ff1981541690557ff6391f5c32d9c69d2a47ea670b442974b53935d1edc7fd64eb21e047a839171b339380a4600190565b916001600160a01b03918216919082156126ca57600091818352602094600286526040948286862054168015158061266e575b80612666575b61257b575b50849596848096959394955260028152848888205416968791331515806124e5575b509060027fddf252ad1be2c89b69c2b068fc378daa952ba7f163c4a11628f55a4df523b3ef92846124b2575b858352600381528b8320805460010190558683525289812080546001600160a01b0319168517905580a416928383036124915750505050565b6064945051926364283d7b60e01b8452600484015260248301526044820152fd5b600087815260046020526040902080546001600160a01b0319169055848352600381528b83208054600019019055612458565b9193945091508061253a575b156125015785929187913861242c565b87868861251e576024915190637e27328960e01b82526004820152fd5b604491519063177e802f60e01b82523360048301526024820152fd5b50338714801561255f575b806124f157508582526004815233858984205416146124f1565b5086825260058152878220338352815260ff8883205416612545565b8552600b875285852096855b885480821015612656578661259c838c612146565b919054600392831b1c146125ba5750506125b59061286c565b612587565b60009a939495969798999a9291921992838101908111612642576125f292916125e66115bc9287612146565b9054911b1c9185612146565b8154801561262e578794939291019061260e6115ef8383612146565b555b818752600b81526126238389892061287b565b96959493929161240a565b634e487b7160e01b89526031600452602489fd5b634e487b7160e01b8b52601160045260248bfd5b5050849596975093919293612610565b506001612405565b60ff600e541615806126b8575b6126a857858752600f8952878720805460ff811661269b575b50506123ff565b60ff191690553880612694565b87516282b42960e81b8152600490fd5b50600f895260ff88882054161561267b565b604051633250574960e11b815260006004820152602490fd5b6000818152600260205260409020546001600160a01b0316908115612706575090565b60249060405190637e27328960e01b82526004820152fd5b90939192833b612730575b5050505050565b604051630a85bd0160e11b8082526001600160a01b03938416600483015295831660248201526044810191909152608060648201529492169260209291859061277d906084830190611edd565b039483816000978189895af1869181612828575b506127f2575050503d6000146127e9573d6127ab816120d6565b906127b9604051928361200f565b81528093823d92013e5b825192836127e457604051633250574960e11b815260048101849052602490fd5b019050fd5b606092506127c3565b919450915063ffffffff60e01b160361281057503880808080612729565b60249060405190633250574960e11b82526004820152fd5b9091508481813d8311612865575b612840818361200f565b8101031261286157516001600160e01b031981168103612861579038612791565b8680fd5b503d612836565b60001981146106585760010190565b908154916801000000000000000083101561139b57826115bc91600161206e95018155612146565b805182101561215e5760209160051b01019056fea2646970667358221220ca47565fb2bc111303d64e745e58bc5bda2788cfa293bb455cef5ed76f332f9164736f6c634300081400332f8788117e7eff1d82e926ec794901d17c78024a50270940304540a733656f0d",
  "linkReferences": {},
  "deployedLinkReferences": {}
}