{
  "_format": "hh-sol-artifact-1",
  "contractName": "FundEscrow",
  "sourceName": "smart-contracts/contracts/FundEscrow.sol",
  "abi": [
    {
      "inputs": [
        {
          "internalType": "address",
          "name": "_platformWallet",
          "type": "address"
        },
        {
          "internalType": "address payable",
          "name": "_yieldPool",
          "type": "address"
        }
      ],
      "stateMutability": "nonpayable",
      "type": "constructor"
    },
    {
      "inputs": [],
      "name": "AccessControlBadConfirmation",
      "type": "error"
    },
    {
      "inputs": [
        {
          "internalType": "address",
          "name": "account",
          "type": "address"
        },
        {
          "internalType": "bytes32",
          "name": "neededRole",
          "type": "bytes32"
        }
      ],
      "name": "AccessControlUnauthorizedAccount",
      "type": "error"
    },
    {
      "inputs": [],
      "name": "CampaignCompleted",
      "type": "error"
    },
    {
      "inputs": [],
      "name": "CampaignIdExists",
      "type": "error"
    },
    {
      "inputs": [],
      "name": "CampaignWasSuccessful",
      "type": "error"
    },
    {
      "inputs": [],
      "name": "EmptyCampaignId",
      "type": "error"
    },
    {
      "inputs": [],
      "name": "EnforcedPause",
      "type": "error"
    },
    {
      "inputs": [],
      "name": "ExpectedPause",
      "type": "error"
    },
    {
      "inputs": [],
      "name": "FundsAlreadyReleased",
      "type": "error"
    },
    {
      "inputs": [],
      "name": "InsufficientContractBalance",
      "type": "error"
    },
    {
      "inputs": [],
      "name": "InvalidAddress",
      "type": "error"
    },
    {
      "inputs": [],
      "name": "InvalidAmount",
      "type": "error"
    },
    {
      "inputs": [],
      "name": "InvalidCampaignId",
      "type": "error"
    },
    {
      "inputs": [],
      "name": "ReentrancyGuardReentrantCall",
      "type": "error"
    },
    {
      "inputs": [],
      "name": "TransferFailed",
      "type": "error"
    },
    {
      "anonymous": false,
      "inputs": [
        {
          "indexed": true,
          "internalType": "string",
          "name": "campaignId",
          "type": "string"
        },
        {
          "indexed": true,
          "internalType": "address",
          "name": "investor",
          "type": "address"
        },
        {
          "indexed": false,
          "internalType": "uint256",
          "name": "amount",
          "type": "uint256"
        },
        {
          "indexed": false,
          "internalType": "uint256",
          "name": "totalEscrow",
          "type": "uint256"
        }
      ],
      "name": "FundsDeposited",
      "type": "event"
    },
    {
      "anonymous": false,
      "inputs": [
        {
          "indexed": true,
          "internalType": "string",
          "name": "campaignId",
          "type": "string"
        },
        {
          "indexed": true,
          "internalType": "address",
          "name": "issuer",
          "type": "address"
        },
        {
          "indexed": false,
          "internalType": "uint256",
          "name": "principalAmount",
          "type": "uint256"
        },
        {
          "indexed": false,
          "internalType": "uint256",
          "name": "yieldAmount",
          "type": "uint256"
        }
      ],
      "name": "FundsReleased",
      "type": "event"
    },
    {
      "anonymous": false,
      "inputs": [
        {
          "indexed": false,
          "internalType": "address",
          "name": "account",
          "type": "address"
        }
      ],
      "name": "Paused",
      "type": "event"
    },
    {
      "anonymous": false,
      "inputs": [
        {
          "indexed": true,
          "internalType": "string",
          "name": "campaignId",
          "type": "string"
        },
        {
          "indexed": true,
          "internalType": "address",
          "name": "investor",
          "type": "address"
        },
        {
          "indexed": false,
          "internalType": "uint256",
          "name": "principalAmount",
          "type": "uint256"
        },
        {
          "indexed": false,
          "internalType": "uint256",
          "name": "yieldAmount",
          "type": "uint256"
        }
      ],
      "name": "RefundProcessed",
      "type": "event"
    },
    {
      "anonymous": false,
      "inputs": [
        {
          "indexed": true,
          "internalType": "bytes32",
          "name": "role",
          "type": "bytes32"
        },
        {
          "indexed": true,
          "internalType": "bytes32",
          "name": "previousAdminRole",
          "type": "bytes32"
        },
        {
          "indexed": true,
          "internalType": "bytes32",
          "name": "newAdminRole",
          "type": "bytes32"
        }
      ],
      "name": "RoleAdminChanged",
      "type": "event"
    },
    {
      "anonymous": false,
      "inputs": [
        {
          "indexed": true,
          "internalType": "bytes32",
          "name": "role",
          "type": "bytes32"
        },
        {
          "indexed": true,
          "internalType": "address",
          "name": "account",
          "type": "address"
        },
        {
          "indexed": true,
          "internalType": "address",
          "name": "sender",
          "type": "address"
        }
      ],
      "name": "RoleGranted",
      "type": "event"
    },
    {
      "anonymous": false,
      "inputs": [
        {
          "indexed": true,
          "internalType": "bytes32",
          "name": "role",
          "type": "bytes32"
        },
        {
          "indexed": true,
          "internalType": "address",
          "name": "account",
          "type": "address"
        },
        {
          "indexed": true,
          "internalType": "address",
          "name": "sender",
          "type": "address"
        }
      ],
      "name": "RoleRevoked",
      "type": "event"
    },
    {
      "anonymous": false,
      "inputs": [
        {
          "indexed": false,
          "internalType": "address",
          "name": "account",
          "type": "address"
        }
      ],
      "name": "Unpaused",
      "type": "event"
    },
    {
      "anonymous": false,
      "inputs": [
        {
          "indexed": false,
          "internalType": "bool",
          "name": "enabled",
          "type": "bool"
        }
      ],
      "name": "YieldFarmingToggled",
      "type": "event"
    },
    {
      "anonymous": false,
      "inputs": [
        {
          "indexed": true,
          "internalType": "string",
          "name": "campaignId",
          "type": "string"
        },
        {
          "indexed": false,
          "internalType": "uint256",
          "name": "totalYield",
          "type": "uint256"
        },
        {
          "indexed": false,
          "internalType": "uint256",
          "name": "investorShare",
          "type": "uint256"
        },
        {
          "indexed": false,
          "internalType": "uint256",
          "name": "issuerShare",
          "type": "uint256"
        },
        {
          "indexed": false,
          "internalType": "uint256",
          "name": "platformShare",
          "type": "uint256"
        }
      ],
      "name": "YieldGenerated",
      "type": "event"
    },
    {
      "inputs": [],
      "name": "CAMPAIGN_ROLE",
      "outputs": [
        {
          "internalType": "bytes32",
          "name": "",
          "type": "bytes32"
        }
      ],
      "stateMutability": "view",
      "type": "function"
    },
    {
      "inputs": [],
      "name": "DEFAULT_ADMIN_ROLE",
      "outputs": [
        {
          "internalType": "bytes32",
          "name": "",
          "type": "bytes32"
        }
      ],
      "stateMutability": "view",
      "type": "function"
    },
    {
      "inputs": [],
      "name": "INVESTOR_YIELD_SHARE",
      "outputs": [
        {
          "internalType": "uint256",
          "name": "",
          "type": "uint256"
        }
      ],
      "stateMutability": "view",
      "type": "function"
    },
    {
      "inputs": [],
      "name": "ISSUER_YIELD_SHARE",
      "outputs": [
        {
          "internalType": "uint256",
          "name": "",
          "type": "uint256"
        }
      ],
      "stateMutability": "view",
      "type": "function"
    },
    {
      "inputs": [],
      "name": "PLATFORM_YIELD_SHARE",
      "outputs": [
        {
          "internalType": "uint256",
          "name": "",
          "type": "uint256"
        }
      ],
      "stateMutability": "view",
      "type": "function"
    },
    {
      "inputs": [],
      "name": "YIELD_MANAGER_ROLE",
      "outputs": [
        {
          "internalType": "bytes32",
          "name": "",
          "type": "bytes32"
        }
      ],
      "stateMutability": "view",
      "type": "function"
    },
    {
      "inputs": [
        {
          "internalType": "string",
          "name": "",
          "type": "string"
        },
        {
          "internalType": "uint256",
          "name": "",
          "type": "uint256"
        }
      ],
      "name": "campaignInvestments",
      "outputs": [
        {
          "internalType": "address",
          "name": "investor",
          "type": "address"
        },
        {
          "internalType": "uint256",
          "name": "amount",
          "type": "uint256"
        },
        {
          "internalType": "uint256",
          "name": "timestamp",
          "type": "uint256"
        },
        {
          "internalType": "bool",
          "name": "refunded",
          "type": "bool"
        }
      ],
      "stateMutability": "view",
      "type": "function"
    },
    {
      "inputs": [
        {
          "internalType": "string",
          "name": "",
          "type": "string"
        }
      ],
      "name": "campaignYieldBalance",
      "outputs": [
        {
          "internalType": "uint256",
          "name": "",
          "type": "uint256"
        }
      ],
      "stateMutability": "view",
      "type": "function"
    },
    {
      "inputs": [
        {
          "internalType": "string",
          "name": "campaignId",
          "type": "string"
        },
        {
          "internalType": "address",
          "name": "issuer",
          "type": "address"
        }
      ],
      "name": "createEscrowAccount",
      "outputs": [],
      "stateMutability": "nonpayable",
      "type": "function"
    },
    {
      "inputs": [
        {
          "internalType": "string",
          "name": "campaignId",
          "type": "string"
        },
        {
          "internalType": "address",
          "name": "investor",
          "type": "address"
        }
      ],
      "name": "depositFunds",
      "outputs": [],
      "stateMutability": "payable",
      "type": "function"
    },
    {
      "inputs": [
        {
          "internalType": "uint256",
          "name": "amount",
          "type": "uint256"
        },
        {
          "internalType": "address",
          "name": "recipient",
          "type": "address"
        }
      ],
      "name": "emergencyWithdraw",
      "outputs": [],
      "stateMutability": "nonpayable",
      "type": "function"
    },
    {
      "inputs": [
        {
          "internalType": "string",
          "name": "",
          "type": "string"
        }
      ],
      "name": "escrowAccounts",
      "outputs": [
        {
          "internalType": "string",
          "name": "campaignId",
          "type": "string"
        },
        {
          "internalType": "address",
          "name": "issuer",
          "type": "address"
        },
        {
          "internalType": "uint256",
          "name": "totalFunds",
          "type": "uint256"
        },
        {
          "internalType": "uint256",
          "name": "yieldGenerated",
          "type": "uint256"
        },
        {
          "internalType": "bool",
          "name": "fundsReleased",
          "type": "bool"
        },
        {
          "internalType": "bool",
          "name": "refundInitiated",
          "type": "bool"
        },
        {
          "internalType": "uint256",
          "name": "createdAt",
          "type": "uint256"
        },
        {
          "internalType": "uint256",
          "name": "releasedAt",
          "type": "uint256"
        }
      ],
      "stateMutability": "view",
      "type": "function"
    },
    {
      "inputs": [
        {
          "internalType": "string",
          "name": "campaignId",
          "type": "string"
        }
      ],
      "name": "getCampaignInvestments",
      "outputs": [
        {
          "components": [
            {
              "internalType": "address",
              "name": "investor",
              "type": "address"
            },
            {
              "internalType": "uint256",
              "name": "amount",
              "type": "uint256"
            },
            {
              "internalType": "uint256",
              "name": "timestamp",
              "type": "uint256"
            },
            {
              "internalType": "bool",
              "name": "refunded",
              "type": "bool"
            }
          ],
          "internalType": "struct FundEscrow.Investment[]",
          "name": "investments",
          "type": "tuple[]"
        }
      ],
      "stateMutability": "view",
      "type": "function"
    },
    {
      "inputs": [
        {
          "internalType": "string",
          "name": "campaignId",
          "type": "string"
        }
      ],
      "name": "getEscrowAccount",
      "outputs": [
        {
          "components": [
            {
              "internalType": "string",
              "name": "campaignId",
              "type": "string"
            },
            {
              "internalType": "address",
              "name": "issuer",
              "type": "address"
            },
            {
              "internalType": "uint256",
              "name": "totalFunds",
              "type": "uint256"
            },
            {
              "internalType": "uint256",
              "name": "yieldGenerated",
              "type": "uint256"
            },
            {
              "internalType": "bool",
              "name": "fundsReleased",
              "type": "bool"
            },
            {
              "internalType": "bool",
              "name": "refundInitiated",
              "type": "bool"
            },
            {
              "internalType": "uint256",
              "name": "createdAt",
              "type": "uint256"
            },
            {
              "internalType": "uint256",
              "name": "releasedAt",
              "type": "uint256"
            }
          ],
          "internalType": "struct FundEscrow.EscrowAccount",
          "name": "account",
          "type": "tuple"
        }
      ],
      "stateMutability": "view",
      "type": "function"
    },
    {
      "inputs": [
        {
          "internalType": "string",
          "name": "campaignId",
          "type": "string"
        },
        {
          "internalType": "address",
          "name": "investor",
          "type": "address"
        }
      ],
      "name": "getInvestorBalance",
      "outputs": [
        {
          "internalType": "uint256",
          "name": "balance",
          "type": "uint256"
        }
      ],
      "stateMutability": "view",
      "type": "function"
    },
    {
      "inputs": [
        {
          "internalType": "bytes32",
          "name": "role",
          "type": "bytes32"
        }
      ],
      "name": "getRoleAdmin",
      "outputs": [
        {
          "internalType": "bytes32",
          "name": "",
          "type": "bytes32"
        }
      ],
      "stateMutability": "view",
      "type": "function"
    },
    {
      "inputs": [
        {
          "internalType": "bytes32",
          "name": "role",
          "type": "bytes32"
        },
        {
          "internalType": "address",
          "name": "account",
          "type": "address"
        }
      ],
      "name": "grantRole",
      "outputs": [],
      "stateMutability": "nonpayable",
      "type": "function"
    },
    {
      "inputs": [
        {
          "internalType": "bytes32",
          "name": "role",
          "type": "bytes32"
        },
        {
          "internalType": "address",
          "name": "account",
          "type": "address"
        }
      ],
      "name": "hasRole",
      "outputs": [
        {
          "internalType": "bool",
          "name": "",
          "type": "bool"
        }
      ],
      "stateMutability": "view",
      "type": "function"
    },
    {
      "inputs": [
        {
          "internalType": "string",
          "name": "",
          "type": "string"
        },
        {
          "internalType": "address",
          "name": "",
          "type": "address"
        }
      ],
      "name": "investorBalances",
      "outputs": [
        {
          "internalType": "uint256",
          "name": "",
          "type": "uint256"
        }
      ],
      "stateMutability": "view",
      "type": "function"
    },
    {
      "inputs": [],
      "name": "pause",
      "outputs": [],
      "stateMutability": "nonpayable",
      "type": "function"
    },
    {
      "inputs": [],
      "name": "paused",
      "outputs": [
        {
          "internalType": "bool",
          "name": "",
          "type": "bool"
        }
      ],
      "stateMutability": "view",
      "type": "function"
    },
    {
      "inputs": [],
      "name": "platformWallet",
      "outputs": [
        {
          "internalType": "address",
          "name": "",
          "type": "address"
        }
      ],
      "stateMutability": "view",
      "type": "function"
    },
    {
      "inputs": [
        {
          "internalType": "string",
          "name": "campaignId",
          "type": "string"
        }
      ],
      "name": "processRefunds",
      "outputs": [],
      "stateMutability": "nonpayable",
      "type": "function"
    },
    {
      "inputs": [
        {
          "internalType": "string",
          "name": "campaignId",
          "type": "string"
        }
      ],
      "name": "releaseFunds",
      "outputs": [],
      "stateMutability": "nonpayable",
      "type": "function"
    },
    {
      "inputs": [
        {
          "internalType": "bytes32",
          "name": "role",
          "type": "bytes32"
        },
        {
          "internalType": "address",
          "name": "callerConfirmation",
          "type": "address"
        }
      ],
      "name": "renounceRole",
      "outputs": [],
      "stateMutability": "nonpayable",
      "type": "function"
    },
    {
      "inputs": [
        {
          "internalType": "bytes32",
          "name": "role",
          "type": "bytes32"
        },
        {
          "internalType": "address",
          "name": "account",
          "type": "address"
        }
      ],
      "name": "revokeRole",
      "outputs": [],
      "stateMutability": "nonpayable",
      "type": "function"
    },
    {
      "inputs": [
        {
          "internalType": "address",
          "name": "newPlatformWallet",
          "type": "address"
        }
      ],
      "name": "setPlatformWallet",
      "outputs": [],
      "stateMutability": "nonpayable",
      "type": "function"
    },
    {
      "inputs": [
        {
          "internalType": "bool",
          "name": "enabled",
          "type": "bool"
        }
      ],
      "name": "setYieldFarming",
      "outputs": [],
      "stateMutability": "nonpayable",
      "type": "function"
    },
    {
      "inputs": [
        {
          "internalType": "address payable",
          "name": "newYieldPool",
          "type": "address"
        }
      ],
      "name": "setYieldPool",
      "outputs": [],
      "stateMutability": "nonpayable",
      "type": "function"
    },
    {
      "inputs": [
        {
          "internalType": "bytes4",
          "name": "interfaceId",
          "type": "bytes4"
        }
      ],
      "name": "supportsInterface",
      "outputs": [
        {
          "internalType": "bool",
          "name": "",
          "type": "bool"
        }
      ],
      "stateMutability": "view",
      "type": "function"
    },
    {
      "inputs": [],
      "name": "unpause",
      "outputs": [],
      "stateMutability": "nonpayable",
      "type": "function"
    },
    {
      "inputs": [],
      "name": "yieldFarmingEnabled",
      "outputs": [
        {
          "internalType": "bool",
          "name": "",
          "type": "bool"
        }
      ],
      "stateMutability": "view",
      "type": "function"
    },
    {
      "inputs": [],
      "name": "yieldPool",
      "outputs": [
        {
          "internalType": "contract DeFiYieldPool",
          "name": "",
          "type": "address"
        }
      ],
      "stateMutability": "view",
      "type": "function"
    },
    {
      "stateMutability": "payable",
      "type": "receive"
    }
  ],
  "bytecode": "0x608034620000e857601f62001f9238819003918201601f19168301916001600160401b03831184841017620000ed578084926040948552833981010312620000e85780516001600160a01b03808216929091839003620000e857602001519081168103620000e857600180558115620000d6576007805460028054610100600160a81b03191660089490941b610100600160a81b0316939093179092556001600160a81b0319909116919091179055620000b93362000103565b50620000c53362000183565b50604051611d4c9081620002268239f35b60405163e6c4247b60e01b8152600490fd5b600080fd5b634e487b7160e01b600052604160045260246000fd5b6001600160a01b031660008181527fad3228b676f7d3cd4284a5443f17f1962b36e491b30a40b2405849e597ba5fb5602052604081205490919060ff166200017f57818052816020526040822081835260205260408220600160ff19825416179055339160008051602062001f728339815191528180a4600190565b5090565b6001600160a01b031660008181527fac7f456f33c5ee351ae3de46295d1da134dc7a37f62366914b5b4d70f151cdb060205260408120549091907f470f4f1717679395b6a9e0700797bfeeaa970f1643e72f5684d687c0be10fe279060ff166200022057808352826020526040832082845260205260408320600160ff1982541617905560008051602062001f72833981519152339380a4600190565b50509056fe60806040818152600436101561001f575b5050361561001d57600080fd5b005b60009160e08335811c91826301ffc9a7146116e85750816303f54a18146116cb5781630cbd6785146116ae5781630e13a9ce146115ed578163165e406314611548578163248a9ca31461151d5781632f2ff15d146114f25781632f940c701461146b57816331bf46eb1461141b57816336568abe146113d357816339a6f0d21461110d5781633e98e9711461104e5781633f4ba83a14610fe357816346cc03d814610fa85781635a566e7d14610c935781635c975abb14610c6f5781636275520e14610b1e5781636c53236b14610ac95781637129b8f01461096b5781638456cb59146108fe5781638831e9cf146108a05781638f188dd41461087357816391d148541461082c578163a217fddf14610811578163a43bfc54146107f4578163b8f8ceef1461056957508063bccc7d271461051b578063c3abd8b3146102bf578063c9207bb11461025f578063d547741f14610220578063ef475ce8146101fa578063fa2af9da146101d25763fe9e96400361001057346101ce57816003193601126101ce57602090517f470f4f1717679395b6a9e0700797bfeeaa970f1643e72f5684d687c0be10fe278152f35b5080fd5b50346101ce57816003193601126101ce5760075490516001600160a01b039091168152602090f35b50346101ce57816003193601126101ce5760209060ff60075460a01c1690519015158152f35b50346101ce57806003193601126101ce5761025b906004356102566001610245611862565b938387528660205286200154611a72565b611b16565b5080f35b50346101ce5760203660031901126101ce57600435916001600160401b0383116102bc57506102aa6020610298819436906004016117c6565b8184519382858094519384920161180d565b81016006815203019020549051908152f35b80fd5b50346101ce57602080600319360112610517576004356001600160401b038111610513576102f19036906004016117c6565b916102fa611a16565b610302611bb8565b8051828185516103158183858a0161180d565b810160038152030190209260058401541561050257600484019384549060ff82166104f15760ff8260081c166104e057600281019586549283156104cf5760019060ff19161790554260068201558190879260ff60075460a01c16806104b8575b6103f4575b506001018780808060018060a01b0395868654165af1610399611bdb565b50156103e3577fd7f542c14278f8bef2cd5cf86d1ad69fae1baee3e926844d9e36213d146ead94949392916103d2915416965492611b98565b948351928352820152a36001805580f35b84516312171d8360e31b8152600490fd5b600254865163cf84b47760e01b81526004810189905294508790859060081c6001600160a01b0316818c8161042c602482018c611999565b03925af19384156104ae57899461047a575b50838061044c575b5061037b565b60019293509061271061046b83610466610472958a611c39565b611c22565b0490611b8b565b919038610446565b9093508681813d83116104a7575b610492818361178a565b810103126104a25751923861043e565b600080fd5b503d610488565b86513d8b823e3d90fd5b5060025460081c6001600160a01b03161515610376565b855163786e0a9960e01b8152600490fd5b8351633ee132b760e01b8152600490fd5b8351635c1508a760e01b8152600490fd5b8151636824bccd60e01b8152600490fd5b8380fd5b8280fd5b50346101ce576020908161054561053136611878565b92908185519382858094519384920161180d565b810160058152030190209060018060a01b0316600052825280600020549051908152f35b839150346101ce5761057a36611878565b610585929192611a16565b8251156107e3576001600160a01b03169182156107d2578451906005815192602081818501956105b681838961180d565b8101600381520301902001546107c157610612916020918751956105d98761176e565b8187528387015286888701528660608701528660808701528660a08701524260c08701528685870152875193849283925192839161180d565b810160038152030190209180519485516001600160401b0381116107ad5761063a85546118b9565b601f8111610768575b506020601f82116001146106fe578190879860069798926106f3575b50508160011b916000199060031b1c19161785555b6001850160018060a01b036020840151166001600160601b0360a01b825416179055810151600285015560608101516003850155600484016106c860808301511515829060ff801983541691151516179055565b60a0820151815461ff00191690151560081b61ff001617905560c08101516005850155015191015580f35b01519050888061065f565b8587526020872097875b601f198416811061075057509782916006979899600194601f19811610610737575b505050811b018555610674565b015160001960f88460031b161c1916905588808061072a565b828201518a5560019099019860209283019201610708565b85875260208720601f830160051c810191602084106107a3575b601f0160051c01905b8181106107985750610643565b87815560010161078b565b9091508190610782565b634e487b7160e01b86526041600452602486fd5b85516382706ec560e01b8152600490fd5b845163e6c4247b60e01b8152600490fd5b8451633925755160e11b8152600490fd5b5050346101ce57816003193601126101ce57602090516107d08152f35b5050346101ce57816003193601126101ce5751908152602090f35b5050346101ce57806003193601126101ce576020918161084a611862565b916004358152808552209060018060a01b0316600052825260ff81600020541690519015158152f35b5050346101ce57816003193601126101ce57600254905160089190911c6001600160a01b03168152602090f35b5050346101ce5760203660031901126101ce576004356001600160a01b03811691908290036104a2576108d16119be565b81156108ee57506001600160601b0360a01b600754161760075580f35b5163e6c4247b60e01b8152600490fd5b5050346101ce57816003193601126101ce576109186119be565b60025460ff811661095a5760ff1916600117600255513381527f62e78cea01bee320cd4e420270b5ea74000d11b0c9f74754ebdbfc544b05a25890602090a180f35b815163d93c066560e01b8152600490fd5b9190503461051757602080600319360112610513576004356001600160401b038111610ac55781610120956109a76109ee9336906004016117c6565b908686516109b48161176e565b60608152828582015282888201528260608201528260808201528260a08201528260c082015201528185519382858094519384920161180d565b81016003815203019020825193610a048561176e565b610a0d826118f3565b855260018060a01b0391826001820154169484870195865260028201549080880191825260038301546060890190815260048401549260808a019260ff85161515845260ff60a08c019560081c1615158552600660058701549660c08d01978852015497878c01988952610a948251809e819e8d83525191610100809e8201520190611999565b9a5116908b01525160608a015251608089015251151560a088015251151560c0870152519085015251908301520390f35b8480fd5b83346102bc5760203660031901126102bc576004356001600160a01b03811681036101ce57610af66119be565b60028054610100600160a81b03191660089290921b610100600160a81b031691909117905580f35b8284346102bc576020806003193601126101ce576001600160401b036004358181116105135782610b56610b689236906004016117c6565b8187519382858094519384920161180d565b81016004815203019020918254918211610c5b579290845190610b90858260051b018361178a565b8082528482018094845285842084915b838310610c095750505050845193808501918186525180925285850193925b828110610bcc5785850386f35b835180516001600160a01b031686528083015186840152878101518887015260609081015115159086015260809094019392810192600101610bbf565b6004886001928b9a97989a51610c1e8161173d565b848060a01b038654168152848601548382015260028601548d82015260ff6003870154161515606082015281520192019201919096949396610ba0565b634e487b7160e01b84526041600452602484fd5b5050346101ce57816003193601126101ce5760209060ff6002541690519015158152f35b8284346102bc576020806003193601126101ce576004356001600160401b03811161051757610cc69036906004016117c6565b90610ccf611a16565b610cd7611bb8565b83519382519482840195610cec81838961180d565b810190838160039384815203019020600581015415610f9757600481019182549260ff93848116610f8657848160081c16610f75576101009061ff00191617905586978360075460a01c1680610f5e575b610eab575b610d6d610d5d87612710938851809381928d5192839161180d565b8101600481520301902099611c0b565b0492875b8954811015610ea357610d84818b611830565b5083810180549084821615610dbc575b5050506000198114610da857600101610d71565b634e487b7160e01b89526011600452602489fd5b6001809260ff1916179055810154908a9087610e52575b610ddd8284611b8b565b908c80808060018060a01b0395868654165af1610df8611bdb565b5015610e41577f512b6116886bf2909f39ac5b4fc712283d8fc8957d50951dfbaad4e7606a0fe1918a91541693610e2e8d611b98565b9382519182528c820152a38a8080610d94565b89516312171d8360e31b8152600490fd5b9050868202828104881483151715610e8d576002870154908115610e77570490610dd3565b634e487b7160e01b600052601260045260246000fd5b634e487b7160e01b600052601160045260246000fd5b886001805580f35b600254855163cf84b47760e01b815260048101889052995086908a9060081c6001600160a01b0316818b81610ee3602482018e611999565b03925af1988915610f54578899610f23575b50610d6d610d5d87612710938c80610f13575b509350505050610d42565b610f1d908c611c39565b8d610f08565b9098508581813d8311610f4d575b610f3b818361178a565b810103126104a2575197610d6d610ef5565b503d610f31565b85513d8a823e3d90fd5b5060025460081c6001600160a01b03161515610d3d565b8551634776882560e01b8152600490fd5b8551635c1508a760e01b8152600490fd5b8251636824bccd60e01b8152600490fd5b5050346101ce57816003193601126101ce57602090517f90c1542e8849f561e480d26d143903b92097f79053ec0e7837aaa255099b002b8152f35b5050346101ce57816003193601126101ce57610ffd6119be565b60025460ff81161561103d5760ff1916600255513381527f5db9ee0a495bf2e6ff9c91a7834c1ba4fdd244a5e8aa4e537bd38aeae4b073aa90602090a180f35b8151638dfc202b60e01b8152600490fd5b9190503461051757602036600319011261051757600435926001600160401b0384116102bc575061108b60206102986110de9536906004016117c6565b810160038152030190209061109f826118f3565b9260018060a01b036001840154169260ff60028201546003830154600484015491600660058601549501549680519a8b9a610100808d528c0190611999565b9860208b015289015260608801528181161515608088015260081c16151560a086015260c08501528301520390f35b505061111836611878565b91611121611a16565b611129611bb8565b34156113c3576001600160a01b039283169283156113b257815190835160209283818188019361115a81838761180d565b81016003815203019020906005820154156113a157600482015460ff8116908115611393575b506113825784518481885161119681838761180d565b810160048152030190208551906111ac8261173d565b8882528582013481528783019042825260608401928c84528054906801000000000000000082101561136e57906111e891600182018155611830565b94909461135a5793600389946002989794611236948b6112469951166001600160601b0360a01b865416178555516001850155518984015551151591019060ff801983541691151516179055565b8751809381928b5192839161180d565b810160058152030190208789528452848820611263348254611b8b565b90550190611272348354611b8b565b825560ff60075460a01c168061134a575b6112c9575b50906112b77fdf891f5410135263075ea37fdff545d69408e487f2cac5ef532f801aecfaf19e93925494611b98565b93825191348352820152a36001805580f35b60025460081c16803b156113465786845180926346f45b8d60e01b825285600483015281806112fb602482018b611999565b039134905af1801561133c5715611288576001600160401b038197929711611328578352946112b7611288565b634e487b7160e01b82526041600452602482fd5b84513d89823e3d90fd5b8680fd5b508060025460081c161515611283565b634e487b7160e01b8d5260048d905260248dfd5b634e487b7160e01b8e52604160045260248efd5b8451634776882560e01b8152600490fd5b60ff915060081c1638611180565b8451636824bccd60e01b8152600490fd5b815163e6c4247b60e01b8152600490fd5b5163162908e360e11b8152600490fd5b5050346101ce57806003193601126101ce576113ed611862565b90336001600160a01b0383160361140b575061025b90600435611b16565b5163334bd91960e11b8152600490fd5b5050346101ce57806020928361144761143336611878565b92908186519382858094519384920161180d565b6005908201908152030190206001600160a01b039091168252845220549051908152f35b5050346101ce57806003193601126101ce57600435611488611862565b6114906119be565b6001600160a01b038116156114e1574782116114d0578380809381935af16114b6611bdb565b50156114c0575080f35b516312171d8360e31b8152600490fd5b825163786e0a9960e01b8152600490fd5b825163e6c4247b60e01b8152600490fd5b5050346101ce57806003193601126101ce5761025b906004356115186001610245611862565b611a98565b5050346101ce5760203660031901126101ce5760018160209360043581528085522001549051908152f35b5050346101ce57806003193601126101ce576004356001600160401b038111610517576115799036906004016117c6565b916115956020602435948185519382858094519384920161180d565b810160048152030190209081548410156102bc57506080926115b691611830565b509060018060a01b038254169160018101549160ff6003600284015493015416928151948552602085015283015215156060820152f35b5050346101ce5760203660031901126101ce5760043590811515809203610517577f470f4f1717679395b6a9e0700797bfeeaa970f1643e72f5684d687c0be10fe278084528360205281842033855260205260ff82852054161561169257506007805460ff60a01b191660a084901b60ff60a01b16179055519081527f91ccd5f8882d4fb9b42190c2ad948520f759e9b571bb8ca6ade6a86bedc15e5c90602090a180f35b604491519063e2517d3f60e01b82523360048301526024820152fd5b5050346101ce57816003193601126101ce57602090516113888152f35b5050346101ce57816003193601126101ce5760209051610bb88152f35b8490346101ce5760203660031901126101ce5760043563ffffffff60e01b81168091036105175760209250637965db0b60e01b811490811561172c575b5015158152f35b6301ffc9a760e01b14905083611725565b608081019081106001600160401b0382111761175857604052565b634e487b7160e01b600052604160045260246000fd5b61010081019081106001600160401b0382111761175857604052565b90601f801991011681019081106001600160401b0382111761175857604052565b6001600160401b03811161175857601f01601f191660200190565b81601f820112156104a2578035906117dd826117ab565b926117eb604051948561178a565b828452602083830101116104a257816000926020809301838601378301015290565b60005b8381106118205750506000910152565b8181015183820152602001611810565b805482101561184c5760005260206000209060021b0190600090565b634e487b7160e01b600052603260045260246000fd5b602435906001600160a01b03821682036104a257565b60406003198201126104a257600435906001600160401b0382116104a2576118a2916004016117c6565b906024356001600160a01b03811681036104a25790565b90600182811c921680156118e9575b60208310146118d357565b634e487b7160e01b600052602260045260246000fd5b91607f16916118c8565b9060405191826000825492611907846118b9565b9081845260019485811690816000146119765750600114611933575b50506119319250038361178a565b565b9093915060005260209081600020936000915b81831061195e57505061193193508201013880611923565b85548884018501529485019487945091830191611946565b91505061193194506020925060ff191682840152151560051b8201013880611923565b906020916119b28151809281855285808601910161180d565b601f01601f1916010190565b3360009081527fad3228b676f7d3cd4284a5443f17f1962b36e491b30a40b2405849e597ba5fb5602052604081205460ff16156119f85750565b6044906040519063e2517d3f60e01b82523360048301526024820152fd5b3360009081527f1223792cbf48f76b6d665b93b10b3304b0682c530f282594d6389153ba192f2d60205260409020547f90c1542e8849f561e480d26d143903b92097f79053ec0e7837aaa255099b002b9060ff16156119f85750565b80600052600060205260406000203360005260205260ff60406000205416156119f85750565b9060009180835282602052604083209160018060a01b03169182845260205260ff60408420541615600014611b1157808352826020526040832082845260205260408320600160ff198254161790557f2f8788117e7eff1d82e926ec794901d17c78024a50270940304540a733656f0d339380a4600190565b505090565b9060009180835282602052604083209160018060a01b03169182845260205260ff604084205416600014611b115780835282602052604083208284526020526040832060ff1981541690557ff6391f5c32d9c69d2a47ea670b442974b53935d1edc7fd64eb21e047a839171b339380a4600190565b91908201809211610e8d57565b611bb09060206040519282848094519384920161180d565b810103902090565b600260015414611bc9576002600155565b604051633ee5aeb560e01b8152600490fd5b3d15611c06573d90611bec826117ab565b91611bfa604051938461178a565b82523d6000602084013e565b606090565b9061138891828102928184041490151715610e8d57565b90610bb891828102928184041490151715610e8d57565b906127109081611c4882611c0b565b049282611c5483611c22565b04926107d0808402908482041484151715610e8d570490846040516020818451611c81818385890161180d565b810160068152030190205581611cda575b907fbf4018813442e6f7a50c6a9f45dea117060297c101014cecc7b5faddb323688e93611cc160809493611b98565b95604051938452602084015260408301526060820152a2565b919060008080808460018060a01b03600754165af1611cf7611bdb565b5015611d04579091611c92565b6040516312171d8360e31b8152600490fdfea2646970667358221220740428d8dfcd707421fdb0502a7124d6f1a5d67a2d5031d21ebb2f1bb9313f1f64736f6c634300081400332f8788117e7eff1d82e926ec794901d17c78024a50270940304540a733656f0d",
  "linkReferences": {},
  "deployedLinkReferences": {}
}